{
  "address": "0xCf7Ed3AccA5a467e9e704C703E8D87F634fB0Fc9",
  "abi": [
    {
      "inputs": [
        {
          "internalType": "uint256",
          "name": "maxSupply",
          "type": "uint256"
        },
        {
          "internalType": "address[]",
          "name": "users",
          "type": "address[]"
        }
      ],
      "stateMutability": "nonpayable",
      "type": "constructor"
    },
    {
      "anonymous": false,
      "inputs": [
        {
          "indexed": true,
          "internalType": "address",
          "name": "owner",
          "type": "address"
        },
        {
          "indexed": true,
          "internalType": "address",
          "name": "spender",
          "type": "address"
        },
        {
          "indexed": false,
          "internalType": "uint256",
          "name": "value",
          "type": "uint256"
        }
      ],
      "name": "Approval",
      "type": "event"
    },
    {
      "anonymous": false,
      "inputs": [
        {
          "indexed": true,
          "internalType": "address",
          "name": "previousOwner",
          "type": "address"
        },
        {
          "indexed": true,
          "internalType": "address",
          "name": "newOwner",
          "type": "address"
        }
      ],
      "name": "OwnershipTransferred",
      "type": "event"
    },
    {
      "anonymous": false,
      "inputs": [
        {
          "indexed": true,
          "internalType": "address",
          "name": "from",
          "type": "address"
        },
        {
          "indexed": true,
          "internalType": "address",
          "name": "to",
          "type": "address"
        },
        {
          "indexed": false,
          "internalType": "uint256",
          "name": "value",
          "type": "uint256"
        }
      ],
      "name": "Transfer",
      "type": "event"
    },
    {
      "inputs": [
        {
          "internalType": "address",
          "name": "owner",
          "type": "address"
        },
        {
          "internalType": "address",
          "name": "spender",
          "type": "address"
        }
      ],
      "name": "allowance",
      "outputs": [
        {
          "internalType": "uint256",
          "name": "",
          "type": "uint256"
        }
      ],
      "stateMutability": "view",
      "type": "function"
    },
    {
      "inputs": [
        {
          "internalType": "address",
          "name": "spender",
          "type": "address"
        },
        {
          "internalType": "uint256",
          "name": "amount",
          "type": "uint256"
        }
      ],
      "name": "approve",
      "outputs": [
        {
          "internalType": "bool",
          "name": "",
          "type": "bool"
        }
      ],
      "stateMutability": "nonpayable",
      "type": "function"
    },
    {
      "inputs": [
        {
          "internalType": "address",
          "name": "account",
          "type": "address"
        }
      ],
      "name": "balanceOf",
      "outputs": [
        {
          "internalType": "uint256",
          "name": "",
          "type": "uint256"
        }
      ],
      "stateMutability": "view",
      "type": "function"
    },
    {
      "inputs": [],
      "name": "decimals",
      "outputs": [
        {
          "internalType": "uint8",
          "name": "",
          "type": "uint8"
        }
      ],
      "stateMutability": "view",
      "type": "function"
    },
    {
      "inputs": [
        {
          "internalType": "address",
          "name": "spender",
          "type": "address"
        },
        {
          "internalType": "uint256",
          "name": "subtractedValue",
          "type": "uint256"
        }
      ],
      "name": "decreaseAllowance",
      "outputs": [
        {
          "internalType": "bool",
          "name": "",
          "type": "bool"
        }
      ],
      "stateMutability": "nonpayable",
      "type": "function"
    },
    {
      "inputs": [
        {
          "internalType": "address",
          "name": "spender",
          "type": "address"
        },
        {
          "internalType": "uint256",
          "name": "addedValue",
          "type": "uint256"
        }
      ],
      "name": "increaseAllowance",
      "outputs": [
        {
          "internalType": "bool",
          "name": "",
          "type": "bool"
        }
      ],
      "stateMutability": "nonpayable",
      "type": "function"
    },
    {
      "inputs": [],
      "name": "name",
      "outputs": [
        {
          "internalType": "string",
          "name": "",
          "type": "string"
        }
      ],
      "stateMutability": "view",
      "type": "function"
    },
    {
      "inputs": [],
      "name": "owner",
      "outputs": [
        {
          "internalType": "address",
          "name": "",
          "type": "address"
        }
      ],
      "stateMutability": "view",
      "type": "function"
    },
    {
      "inputs": [],
      "name": "renounceOwnership",
      "outputs": [],
      "stateMutability": "nonpayable",
      "type": "function"
    },
    {
      "inputs": [],
      "name": "selfDestruct",
      "outputs": [],
      "stateMutability": "nonpayable",
      "type": "function"
    },
    {
      "inputs": [],
      "name": "symbol",
      "outputs": [
        {
          "internalType": "string",
          "name": "",
          "type": "string"
        }
      ],
      "stateMutability": "view",
      "type": "function"
    },
    {
      "inputs": [],
      "name": "totalSupply",
      "outputs": [
        {
          "internalType": "uint256",
          "name": "",
          "type": "uint256"
        }
      ],
      "stateMutability": "view",
      "type": "function"
    },
    {
      "inputs": [
        {
          "internalType": "address",
          "name": "to",
          "type": "address"
        },
        {
          "internalType": "uint256",
          "name": "amount",
          "type": "uint256"
        }
      ],
      "name": "transfer",
      "outputs": [
        {
          "internalType": "bool",
          "name": "",
          "type": "bool"
        }
      ],
      "stateMutability": "nonpayable",
      "type": "function"
    },
    {
      "inputs": [
        {
          "internalType": "address",
          "name": "from",
          "type": "address"
        },
        {
          "internalType": "address",
          "name": "to",
          "type": "address"
        },
        {
          "internalType": "uint256",
          "name": "amount",
          "type": "uint256"
        }
      ],
      "name": "transferFrom",
      "outputs": [
        {
          "internalType": "bool",
          "name": "",
          "type": "bool"
        }
      ],
      "stateMutability": "nonpayable",
      "type": "function"
    },
    {
      "inputs": [
        {
          "internalType": "address",
          "name": "newOwner",
          "type": "address"
        }
      ],
      "name": "transferOwnership",
      "outputs": [],
      "stateMutability": "nonpayable",
      "type": "function"
    }
  ],
  "transactionHash": "0x223a5425c99aae3ea12ed758d23c8ea18a27d135814dc61f3bdfeafc84d77227",
  "args": [
    "1000000000000000000000000",
    [
      "0xf39Fd6e51aad88F6F4ce6aB8827279cffFb92266",
      "0x70997970C51812dc3A010C7d01b50e0d17dc79C8",
      "0x3C44CdDdB6a900fa2b585dd299e03d12FA4293BC",
      "0x90F79bf6EB2c4f870365E785982E1f101E93b906",
      "0x15d34AAf54267DB7D7c367839AAf71A00a2C6A65",
      "0x9965507D1a55bcC2695C58ba16FB37d819B0A4dc",
      "0x976EA74026E726554dB657fA54763abd0C3a0aa9",
      "0x14dC79964da2C08b23698B3D3cc7Ca32193d9955",
      "0x23618e81E3f5cdF7f54C3d65f7FBc0aBf5B21E8f",
      "0xa0Ee7A142d267C1f36714E4a8F75612F20a79720",
      "0xBcd4042DE499D14e55001CcbB24a551F3b954096",
      "0x71bE63f3384f5fb98995898A86B02Fb2426c5788",
      "0xFABB0ac9d68B0B445fB7357272Ff202C5651694a",
      "0x1CBd3b2770909D4e10f157cABC84C7264073C9Ec",
      "0xdF3e18d64BC6A983f673Ab319CCaE4f1a57C7097",
      "0xcd3B766CCDd6AE721141F452C550Ca635964ce71",
      "0x2546BcD3c84621e976D8185a91A922aE77ECEc30",
      "0xbDA5747bFD65F08deb54cb465eB87D40e51B197E",
      "0xdD2FD4581271e230360230F9337D5c0430Bf44C0",
      "0x8626f6940E2eb28930eFb4CeF49B2d1F2C9C1199",
      "0x09DB0a93B389bEF724429898f539AEB7ac2Dd55f",
      "0x02484cb50AAC86Eae85610D6f4Bf026f30f6627D",
      "0x08135Da0A343E492FA2d4282F2AE34c6c5CC1BbE",
      "0x5E661B79FE2D3F6cE70F5AAC07d8Cd9abb2743F1",
      "0x61097BA76cD906d2ba4FD106E757f7Eb455fc295",
      "0xDf37F81dAAD2b0327A0A50003740e1C935C70913",
      "0x553BC17A05702530097c3677091C5BB47a3a7931",
      "0x87BdCE72c06C21cd96219BD8521bDF1F42C78b5e",
      "0x40Fc963A729c542424cD800349a7E4Ecc4896624",
      "0x9DCCe783B6464611f38631e6C851bf441907c710",
      "0x1BcB8e569EedAb4668e55145Cfeaf190902d3CF2",
      "0x8263Fce86B1b78F95Ab4dae11907d8AF88f841e7",
      "0xcF2d5b3cBb4D7bF04e3F7bFa8e27081B52191f91",
      "0x86c53Eb85D0B7548fea5C4B4F82b4205C8f6Ac18",
      "0x1aac82773CB722166D7dA0d5b0FA35B0307dD99D",
      "0x2f4f06d218E426344CFE1A83D53dAd806994D325",
      "0x1003ff39d25F2Ab16dBCc18EcE05a9B6154f65F4",
      "0x9eAF5590f2c84912A08de97FA28d0529361Deb9E",
      "0x11e8F3eA3C6FcF12EcfF2722d75CEFC539c51a1C",
      "0x7D86687F980A56b832e9378952B738b614A99dc6",
      "0x9eF6c02FB2ECc446146E05F1fF687a788a8BF76d",
      "0x08A2DE6F3528319123b25935C92888B16db8913E",
      "0xe141C82D99D85098e03E1a1cC1CdE676556fDdE0",
      "0x4b23D303D9e3719D6CDf8d172Ea030F80509ea15",
      "0xC004e69C5C04A223463Ff32042dd36DabF63A25a",
      "0x5eb15C0992734B5e77c888D713b4FC67b3D679A2",
      "0x7Ebb637fd68c523613bE51aad27C35C4DB199B9c",
      "0x3c3E2E178C69D4baD964568415a0f0c84fd6320A",
      "0x35304262b9E87C00c430149f28dD154995d01207",
      "0xD4A1E660C916855229e1712090CcfD8a424A2E33",
      "0xEe7f6A930B29d7350498Af97f0F9672EaecbeeFf",
      "0x145e2dc5C8238d1bE628F87076A37d4a26a78544",
      "0xD6A098EbCc5f8Bd4e174D915C54486B077a34A51",
      "0x042a63149117602129B6922ecFe3111168C2C323",
      "0xa0EC9eE47802CeB56eb58ce80F3E41630B771b04",
      "0xe8B1ff302A740fD2C6e76B620d45508dAEc2DDFf",
      "0xAb707cb80e7de7C75d815B1A653433F3EEc44c74",
      "0x0d803cdeEe5990f22C2a8DF10A695D2312dA26CC",
      "0x1c87Bb9234aeC6aDc580EaE6C8B59558A4502220",
      "0x4779d18931B35540F84b0cd0e9633855B84df7b8",
      "0xC0543b0b980D8c834CBdF023b2d2A75b5f9D1909",
      "0x73B3074ac649A8dc31c2C90a124469456301a30F",
      "0x265188114EB5d5536BC8654d8e9710FE72C28c4d",
      "0x924Ba5Ce9f91ddED37b4ebf8c0dc82A40202fc0A",
      "0x64492E25C30031EDAD55E57cEA599CDB1F06dad1",
      "0x262595fa2a3A86adACDe208589614d483e3eF1C0",
      "0xDFd99099Fa13541a64AEe9AAd61c0dbf3D32D492",
      "0x63c3686EF31C03a641e2Ea8993A91Ea351e5891a",
      "0x9394cb5f737Bd3aCea7dcE90CA48DBd42801EE5d",
      "0x344dca30F5c5f74F2f13Dc1d48Ad3A9069d13Ad9",
      "0xF23E054D8b4D0BECFa22DeEF5632F27f781f8bf5",
      "0x6d69F301d1Da5C7818B5e61EECc745b30179C68b",
      "0xF0cE7BaB13C99bA0565f426508a7CD8f4C247E5a",
      "0x011bD5423C5F77b5a0789E27f922535fd76B688F",
      "0xD9065f27e9b706E5F7628e067cC00B288dddbF19",
      "0x54ccCeB38251C29b628ef8B00b3cAB97e7cAc7D5",
      "0xA1196426b41627ae75Ea7f7409E074BE97367da2",
      "0xE74cEf90b6CF1a77FEfAd731713e6f53e575C183",
      "0x7Df8Efa6d6F1CB5C4f36315e0AcB82b02Ae8BA40",
      "0x9E126C57330FA71556628e0aabd6B6B6783d99fA",
      "0x586BA39027A74e8D40E6626f89Ae97bA7f616644",
      "0x9A50ed082Cf2fc003152580dcDB320B834fA379E",
      "0xbc8183bac3E969042736f7af07f76223D11D2148",
      "0x586aF62EAe7F447D14D25f53918814e04d3A5BA4",
      "0xCcDd262f272Ee6C226266eEa13eE48D4d932Ce66",
      "0xF0eeDDC5e015d4c459590E01Dcc2f2FD1d2baac7",
      "0x4edFEDFf17ab9642F8464D6143900903dD21421a",
      "0x492C973C16E8aeC46f4d71716E91b05B245377C9",
      "0xE5D3ab6883b7e8c35c04675F28BB992Ca1129ee4",
      "0x71F280DEA6FC5a03790941Ad72956f545FeB7a52",
      "0xE77478D9E136D3643cFc6fef578Abf63F9Ab91B1",
      "0x6C8EA11559DFE79Ae3dBDD6A67b47F61b929398f",
      "0x48fA7b63049A6F4E7316EB2D9c5BDdA8933BCA2f",
      "0x16aDfbeFdEfD488C992086D472A4CA577a0e5e54",
      "0x225356FF5d64889D7364Be2c990f93a66298Ee8D",
      "0xcBDc0F9a4C38f1e010bD3B6e43598A55D1868c23",
      "0xBc5BdceE96b1BC47822C74e6f64186fbA7d686be",
      "0x0536896a5e38BbD59F3F369FF3682677965aBD19",
      "0xFE0f143FcAD5B561b1eD2AC960278A2F23559Ef9",
      "0x98D08079928FcCB30598c6C6382ABfd7dbFaA1cD",
      "0x8C3229EC621644789d7F61FAa82c6d0E5F97d43D",
      "0x9586A4833970847aef259aD5BFB7aa8901DDf746",
      "0x0e9971c0005D91336c1441b8F03c1C4fe5FB4584",
      "0xC4c81D5C1851702d27d602aA8ff830A7689F17cc",
      "0x9c79357189d6aF261691ECF48de9A6bbF30438Fc",
      "0xd96Eb0f2e106eA7c0a939e9C460a17ace65FeCFF",
      "0x4548774216F19914493d051481FEb56246bC13f0",
      "0xFdAA62Ea18331AFA45CC78b44DBa58d809EaB80e",
      "0x7D19cEa5598AccbBF0005A8EB8ed6A02C6F8aB84",
      "0xEaBd5094570298Ffd24e93E7af378162884611cb",
      "0x51953940F874eFa94F92EB2d6Aed023617A07222",
      "0x6813ae1FC15E995230C05D4480d50219Bb635F15",
      "0x11c9CFEc77102a7C903a2D2319c79E7b0BBC9235",
      "0xBE9086f1A38740F297F6347B531732541289b220",
      "0xD4Db664B707353422b1Ffc94038cDD0a7D074D51",
      "0x11Ba29fE987adDFa480FfEcf3d98B26630917a78",
      "0xFFd57510605b4F47A58576ccC059aB8882C7eA00",
      "0x83781Cf2371117aAc856621805FB83c9ca439BAd",
      "0x2Bac2e5a4f39c32eD16205591Ba26e307414cA9E",
      "0x8D86EF40df93B1b3822bf996B972bA53E79C07c9",
      "0xc9DB8bec097C2CbdcE109e03A36f98a87E04ffEf",
      "0x925EB78bEb9a84cf88dc92DF5f2FE7bF33b40104",
      "0x5061a633977476e18B99423Ac51C6Df50621a597",
      "0x46655f18cC741152515f0d843AD4355b4AD23377",
      "0x012af9b68f94FE212705B708Cb69b53508D522a2",
      "0x87194239f32f33d74C99B2545032623B32e3F795",
      "0x0149aF4613AA457765d23a38D62685a9623AEf35",
      "0xBCcA9EcB933Db2481111102E73c61C7c7C4e2366",
      "0x20a6250c2cb9B6828ce0B16e09B950E7d0d0556d",
      "0x99F25BC68A4a0D6c9fCaA795d6f8cA738468f679",
      "0x2c7D914a1801242017Bd00aBC5A02452e1305C63",
      "0x5a3A245E0523B2728ec8D914358E33671e27872d",
      "0x3E13F655ce1CBC382e3e09b17266f5Ca1326F567",
      "0x148B4D43A550d74b82eA435dA0007a7B1048D714",
      "0xC8014C948758904edbeAD506B08941919261561B",
      "0x09bE20D14fc2BAb7bA84984c5AEBd43b6a37D36E",
      "0x527601C75277B9823fe4eb7D95Bf34da6C0C602b",
      "0xf88c5937F7EcE778c39cE149E9A863043Ec8Cb9C",
      "0xb938cfBDB5F0B5eFEA6E4e18e39390BfEeb47722",
      "0x902D6954691BC8f78202B84bcec7fc0cee8FC83E",
      "0xb24e6C5d01d14be3918ed712aCe1b2f7F2Bef53a",
      "0xFaF513321611B74ca918dF250d6ac38d43ab57f8",
      "0xA576e67c260B90f667E136AF1BEB9513859c6dC2",
      "0x110958850E5bfe54CeBA0a87b1cF7671c501dA95",
      "0x0d56282A479497840F27CE4e248616BBdBAFF881",
      "0x7F70da265d37eDCD337b0Df314C3E2208371dDA9",
      "0x09C1E3F7d9b6070eeB26Ac74Df33cCe0C5d858f5",
      "0x00297d0b6404D57C0fa9a3D3a6998Ef28623444B",
      "0x50a7E8CBecaa992ff5b77289Ae3227C9F2cABd9c",
      "0x838D1153557025efb2867d12b2AdFe151aC41693",
      "0x280b23F871E8679970CeC204Bc67d19840CEfeD0",
      "0x5F5622BaBB2c7cD60867Ca41aC86122Abb561449",
      "0xD597A7E5D9eee71843B25347f9091E42Db30C2D2",
      "0x100dD58b96152C9d99232920c97a7de1238d3043",
      "0xE8dFC1532693FF0AeFe7BEE264289806deAB3Fe3",
      "0x865cF0101F6E34D47a9A4EEB0d39a5dC8fAEd566",
      "0xFae5D89c5b24B1Fb8B86ED9656558CD980d01C43",
      "0x50FC8E8d9b5E9D3DF14919c1Df634b0F2311538A",
      "0x1848543e04A38dF7dEEf7Dfd346eFFb4f059a849",
      "0x80B8494D411e67c830C34c72B2aadf4D405AbDf0",
      "0x3961e9553D9E7aae3B6b497F92966a46D467C823",
      "0xd62Dc0f62c5c3b98c75ce130E78A5Bdc0021daD8",
      "0xba2Ef8C82FdF88ac9ca4163b7cAb1A0628d6b936",
      "0xE15B6c968d11723E5454894946DCF78E9eF18D42",
      "0xb65aD69852c853f323e5EEF1bf8a1Fb4C77E4765",
      "0x1ac9A50e9AaBadBede678a65D32F7cf58F2c1d85",
      "0x7233f2a928ED28AFb4A323BeCCE6F59712233A77",
      "0x88709c5A505d024368144D0Aa5e142ce238962cf",
      "0x0d3C1E9bb0DfDf2ebe674f3ee0C00E944C53FDAb",
      "0x62953a71c4d29c602F88c456e91a5f7Eecf7fcDE",
      "0x4d24dBC55231CEAF86b87F6cA71167bd94577936",
      "0x90c416e481f9944dd7afE0aA0e78e16780580bAC",
      "0x4f822bb4fAC4B2b6630bdF412E8158c15bd65aae",
      "0xB4076feC6a847622581cdfe9a8381e6e6168f597",
      "0x9c6550109D19a9a9B4568FD63b633F162588A53f",
      "0x450c8C20E62E0d6D91456A79367cC9dBEbB03272",
      "0xd85B3541370346B99F5C43B1848eB82BbB2ec3b7",
      "0x82E6e9473928d3108cC891D27B533914e014A8BD",
      "0x21b3De814B091aAaA340550d24440709E32e0c06",
      "0xA521BAC16af43F2E9A82Cd9BB4F5E328863EC6ac",
      "0xb669e9eCc9132c03B0708e9da76A4f00a30A935b",
      "0x33B1ce5357959ec0043e0d77556a5093AB347862",
      "0x9818DBC159BCC58C7feA87E82E738BDb0fcF03F8",
      "0x38421c898cfC5883ddCEC1247EA3f7Ff087Dd6ca",
      "0xe27fF38C1Edeb794ac38867D15620F63f12159e3",
      "0x5eA56c35eB281Ce7810faBFA793dd57482d4C913",
      "0xD9594d67fe240c37508Be5038443D8D4596EFCE0",
      "0x6e26847B83DdAc8a8aA689a441c5Bf168ee5342C",
      "0x0695FdDF2154cc8f097DB36c4bbde79265D0Ad71",
      "0xEd77fBD612b5E88a0De4BbB369F90278B87e887A",
      "0xc642A4b180CCBD0BEaC32d221c6faa1b7890B905",
      "0xCd2AFcCd6EA22a59235FD99260754A5Df136a22b",
      "0x4Daf3470DBA87DA934D22048ef416D6428EFFd1A",
      "0xcD4d0C621B577FC6477B83Fb3e4653668bb3F4C2",
      "0x2557794Bf452ec0a9cB923B03b2D2fb550E17357",
      "0x477763584467fEeAD3B77E0623Ec04153552D3bb",
      "0xA36362a58bB0B52932fa8B23733b459A6a242D65",
      "0xfaeb6d74bf4AA6fa096EC02f4C8C0a6C4EA6598D",
      "0x67Bc83836777dbAe169CFf9CB31a5d2bEAdEeCAb",
      "0xe2abD1E57c8D6f0D21645a8a0Af6C4251a4395f5"
    ]
  ],
  "numDeployments": 1,
  "solcInputHash": "2715594b3354d0d47c1ddd722c18f8fb",
  "bytecode": "0x60806040523480156200001157600080fd5b5060405162000f9438038062000f948339810160408190526200003491620002f9565b604080518082018252600981526826b7b5379021b7b4b760b91b6020808301918252835180850190945260048452634d4f4a4f60e01b908401528151919291620000819160039162000236565b5080516200009790600490602084019062000236565b505050620000b4620000ae620000f860201b60201c565b620000fc565b805160005b81811015620000ee57620000d933620000d38487620003f6565b6200014e565b80620000e58162000454565b915050620000b9565b505050506200049e565b3390565b600580546001600160a01b038381166001600160a01b0319831681179093556040519116919082907f8be0079c531659141344cd1fd0a4f28419497f9722a3daafe3b4186f6b6457e090600090a35050565b6001600160a01b038216620001a95760405162461bcd60e51b815260206004820152601f60248201527f45524332303a206d696e7420746f20746865207a65726f206164647265737300604482015260640160405180910390fd5b8060026000828254620001bd9190620003db565b90915550506001600160a01b03821660009081526020819052604081208054839290620001ec908490620003db565b90915550506040518181526001600160a01b038316906000907fddf252ad1be2c89b69c2b068fc378daa952ba7f163c4a11628f55a4df523b3ef9060200160405180910390a35050565b828054620002449062000417565b90600052602060002090601f016020900481019282620002685760008555620002b3565b82601f106200028357805160ff1916838001178555620002b3565b82800160010185558215620002b3579182015b82811115620002b357825182559160200191906001019062000296565b50620002c1929150620002c5565b5090565b5b80821115620002c15760008155600101620002c6565b80516001600160a01b0381168114620002f457600080fd5b919050565b600080604083850312156200030c578182fd5b8251602080850151919350906001600160401b03808211156200032d578384fd5b818601915086601f83011262000341578384fd5b81518181111562000356576200035662000488565b8060051b604051601f19603f830116810181811085821117156200037e576200037e62000488565b604052828152858101935084860182860187018b10156200039d578788fd5b8795505b83861015620003ca57620003b581620002dc565b855260019590950194938601938601620003a1565b508096505050505050509250929050565b60008219821115620003f157620003f162000472565b500190565b6000826200041257634e487b7160e01b81526012600452602481fd5b500490565b600181811c908216806200042c57607f821691505b602082108114156200044e57634e487b7160e01b600052602260045260246000fd5b50919050565b60006000198214156200046b576200046b62000472565b5060010190565b634e487b7160e01b600052601160045260246000fd5b634e487b7160e01b600052604160045260246000fd5b610ae680620004ae6000396000f3fe608060405234801561001057600080fd5b50600436106100f55760003560e01c8063715018a611610097578063a457c2d711610066578063a457c2d7146101e0578063a9059cbb146101f3578063dd62ed3e14610206578063f2fde38b1461023f57600080fd5b8063715018a6146101ab5780638da5cb5b146101b557806395d89b41146101d05780639cb8a26a146101d857600080fd5b806323b872dd116100d357806323b872dd1461014d578063313ce56714610160578063395093511461016f57806370a082311461018257600080fd5b806306fdde03146100fa578063095ea7b31461011857806318160ddd1461013b575b600080fd5b610102610252565b60405161010f91906109c9565b60405180910390f35b61012b6101263660046109a0565b6102e4565b604051901515815260200161010f565b6002545b60405190815260200161010f565b61012b61015b366004610965565b6102fc565b6040516012815260200161010f565b61012b61017d3660046109a0565b610320565b61013f610190366004610912565b6001600160a01b031660009081526020819052604090205490565b6101b361035f565b005b6005546040516001600160a01b03909116815260200161010f565b61010261039e565b6101b36103ad565b61012b6101ee3660046109a0565b6103e5565b61012b6102013660046109a0565b610477565b61013f610214366004610933565b6001600160a01b03918216600090815260016020908152604080832093909416825291909152205490565b6101b361024d366004610912565b610485565b60606003805461026190610a75565b80601f016020809104026020016040519081016040528092919081815260200182805461028d90610a75565b80156102da5780601f106102af576101008083540402835291602001916102da565b820191906000526020600020905b8154815290600101906020018083116102bd57829003601f168201915b5050505050905090565b6000336102f2818585610520565b5060019392505050565b60003361030a858285610644565b6103158585856106d6565b506001949350505050565b3360008181526001602090815260408083206001600160a01b03871684529091528120549091906102f2908290869061035a908790610a51565b610520565b6005546001600160a01b031633146103925760405162461bcd60e51b815260040161038990610a1c565b60405180910390fd5b61039c60006108a4565b565b60606004805461026190610a75565b6005546001600160a01b031633146103d75760405162461bcd60e51b815260040161038990610a1c565b6005546001600160a01b0316ff5b3360008181526001602090815260408083206001600160a01b03871684529091528120549091908381101561046a5760405162461bcd60e51b815260206004820152602560248201527f45524332303a2064656372656173656420616c6c6f77616e63652062656c6f77604482015264207a65726f60d81b6064820152608401610389565b6103158286868403610520565b6000336102f28185856106d6565b6005546001600160a01b031633146104af5760405162461bcd60e51b815260040161038990610a1c565b6001600160a01b0381166105145760405162461bcd60e51b815260206004820152602660248201527f4f776e61626c653a206e6577206f776e657220697320746865207a65726f206160448201526564647265737360d01b6064820152608401610389565b61051d816108a4565b50565b6001600160a01b0383166105825760405162461bcd60e51b8152602060048201526024808201527f45524332303a20617070726f76652066726f6d20746865207a65726f206164646044820152637265737360e01b6064820152608401610389565b6001600160a01b0382166105e35760405162461bcd60e51b815260206004820152602260248201527f45524332303a20617070726f766520746f20746865207a65726f206164647265604482015261737360f01b6064820152608401610389565b6001600160a01b0383811660008181526001602090815260408083209487168084529482529182902085905590518481527f8c5be1e5ebec7d5bd14f71427d1e84f3dd0314c0f7b2291e5b200ac8c7c3b925910160405180910390a3505050565b6001600160a01b0383811660009081526001602090815260408083209386168352929052205460001981146106d057818110156106c35760405162461bcd60e51b815260206004820152601d60248201527f45524332303a20696e73756666696369656e7420616c6c6f77616e63650000006044820152606401610389565b6106d08484848403610520565b50505050565b6001600160a01b03831661073a5760405162461bcd60e51b815260206004820152602560248201527f45524332303a207472616e736665722066726f6d20746865207a65726f206164604482015264647265737360d81b6064820152608401610389565b6001600160a01b03821661079c5760405162461bcd60e51b815260206004820152602360248201527f45524332303a207472616e7366657220746f20746865207a65726f206164647260448201526265737360e81b6064820152608401610389565b6001600160a01b038316600090815260208190526040902054818110156108145760405162461bcd60e51b815260206004820152602660248201527f45524332303a207472616e7366657220616d6f756e7420657863656564732062604482015265616c616e636560d01b6064820152608401610389565b6001600160a01b0380851660009081526020819052604080822085850390559185168152908120805484929061084b908490610a51565b92505081905550826001600160a01b0316846001600160a01b03167fddf252ad1be2c89b69c2b068fc378daa952ba7f163c4a11628f55a4df523b3ef8460405161089791815260200190565b60405180910390a36106d0565b600580546001600160a01b038381166001600160a01b0319831681179093556040519116919082907f8be0079c531659141344cd1fd0a4f28419497f9722a3daafe3b4186f6b6457e090600090a35050565b80356001600160a01b038116811461090d57600080fd5b919050565b600060208284031215610923578081fd5b61092c826108f6565b9392505050565b60008060408385031215610945578081fd5b61094e836108f6565b915061095c602084016108f6565b90509250929050565b600080600060608486031215610979578081fd5b610982846108f6565b9250610990602085016108f6565b9150604084013590509250925092565b600080604083850312156109b2578182fd5b6109bb836108f6565b946020939093013593505050565b6000602080835283518082850152825b818110156109f5578581018301518582016040015282016109d9565b81811115610a065783604083870101525b50601f01601f1916929092016040019392505050565b6020808252818101527f4f776e61626c653a2063616c6c6572206973206e6f7420746865206f776e6572604082015260600190565b60008219821115610a7057634e487b7160e01b81526011600452602481fd5b500190565b600181811c90821680610a8957607f821691505b60208210811415610aaa57634e487b7160e01b600052602260045260246000fd5b5091905056fea2646970667358221220d59f92d2fc6192b921a426d21e7895ad9d040e87d9e9fa77cb0aa55404fedc3864736f6c63430008040033",
  "devdoc": {
    "author": "Justa Liang",
    "kind": "dev",
    "methods": {
      "allowance(address,address)": {
        "details": "See {IERC20-allowance}."
      },
      "approve(address,uint256)": {
        "details": "See {IERC20-approve}. NOTE: If `amount` is the maximum `uint256`, the allowance is not updated on `transferFrom`. This is semantically equivalent to an infinite approval. Requirements: - `spender` cannot be the zero address."
      },
      "balanceOf(address)": {
        "details": "See {IERC20-balanceOf}."
      },
      "decimals()": {
        "details": "Returns the number of decimals used to get its user representation. For example, if `decimals` equals `2`, a balance of `505` tokens should be displayed to a user as `5.05` (`505 / 10 ** 2`). Tokens usually opt for a value of 18, imitating the relationship between Ether and Wei. This is the value {ERC20} uses, unless this function is overridden; NOTE: This information is only used for _display_ purposes: it in no way affects any of the arithmetic of the contract, including {IERC20-balanceOf} and {IERC20-transfer}."
      },
      "decreaseAllowance(address,uint256)": {
        "details": "Atomically decreases the allowance granted to `spender` by the caller. This is an alternative to {approve} that can be used as a mitigation for problems described in {IERC20-approve}. Emits an {Approval} event indicating the updated allowance. Requirements: - `spender` cannot be the zero address. - `spender` must have allowance for the caller of at least `subtractedValue`."
      },
      "increaseAllowance(address,uint256)": {
        "details": "Atomically increases the allowance granted to `spender` by the caller. This is an alternative to {approve} that can be used as a mitigation for problems described in {IERC20-approve}. Emits an {Approval} event indicating the updated allowance. Requirements: - `spender` cannot be the zero address."
      },
      "name()": {
        "details": "Returns the name of the token."
      },
      "owner()": {
        "details": "Returns the address of the current owner."
      },
      "renounceOwnership()": {
        "details": "Leaves the contract without owner. It will not be possible to call `onlyOwner` functions anymore. Can only be called by the current owner. NOTE: Renouncing ownership will leave the contract without an owner, thereby removing any functionality that is only available to the owner."
      },
      "selfDestruct()": {
        "details": "Self-destruct"
      },
      "symbol()": {
        "details": "Returns the symbol of the token, usually a shorter version of the name."
      },
      "totalSupply()": {
        "details": "See {IERC20-totalSupply}."
      },
      "transfer(address,uint256)": {
        "details": "See {IERC20-transfer}. Requirements: - `to` cannot be the zero address. - the caller must have a balance of at least `amount`."
      },
      "transferFrom(address,address,uint256)": {
        "details": "See {IERC20-transferFrom}. Emits an {Approval} event indicating the updated allowance. This is not required by the EIP. See the note at the beginning of {ERC20}. NOTE: Does not update the allowance if the current allowance is the maximum `uint256`. Requirements: - `from` and `to` cannot be the zero address. - `from` must have a balance of at least `amount`. - the caller must have allowance for ``from``'s tokens of at least `amount`."
      },
      "transferOwnership(address)": {
        "details": "Transfers ownership of the contract to a new account (`newOwner`). Can only be called by the current owner."
      }
    },
    "title": "ERC20 token",
    "version": 1
  },
  "userdoc": {
    "kind": "user",
    "methods": {},
    "notice": "For BaaSid test",
    "version": 1
  },
  "storageLayout": {
    "storage": [
      {
        "astId": 502,
        "contract": "contracts/ERC20Mojo.sol:ERC20Mojo",
        "label": "_balances",
        "offset": 0,
        "slot": "0",
        "type": "t_mapping(t_address,t_uint256)"
      },
      {
        "astId": 508,
        "contract": "contracts/ERC20Mojo.sol:ERC20Mojo",
        "label": "_allowances",
        "offset": 0,
        "slot": "1",
        "type": "t_mapping(t_address,t_mapping(t_address,t_uint256))"
      },
      {
        "astId": 510,
        "contract": "contracts/ERC20Mojo.sol:ERC20Mojo",
        "label": "_totalSupply",
        "offset": 0,
        "slot": "2",
        "type": "t_uint256"
      },
      {
        "astId": 512,
        "contract": "contracts/ERC20Mojo.sol:ERC20Mojo",
        "label": "_name",
        "offset": 0,
        "slot": "3",
        "type": "t_string_storage"
      },
      {
        "astId": 514,
        "contract": "contracts/ERC20Mojo.sol:ERC20Mojo",
        "label": "_symbol",
        "offset": 0,
        "slot": "4",
        "type": "t_string_storage"
      },
      {
        "astId": 389,
        "contract": "contracts/ERC20Mojo.sol:ERC20Mojo",
        "label": "_owner",
        "offset": 0,
        "slot": "5",
        "type": "t_address"
      }
    ],
    "types": {
      "t_address": {
        "encoding": "inplace",
        "label": "address",
        "numberOfBytes": "20"
      },
      "t_mapping(t_address,t_mapping(t_address,t_uint256))": {
        "encoding": "mapping",
        "key": "t_address",
        "label": "mapping(address => mapping(address => uint256))",
        "numberOfBytes": "32",
        "value": "t_mapping(t_address,t_uint256)"
      },
      "t_mapping(t_address,t_uint256)": {
        "encoding": "mapping",
        "key": "t_address",
        "label": "mapping(address => uint256)",
        "numberOfBytes": "32",
        "value": "t_uint256"
      },
      "t_string_storage": {
        "encoding": "bytes",
        "label": "string",
        "numberOfBytes": "32"
      },
      "t_uint256": {
        "encoding": "inplace",
        "label": "uint256",
        "numberOfBytes": "32"
      }
    }
  }
}