{
  "address": "0x99bbA657f2BbC93c02D617f8bA121cB8Fc104Acf",
  "abi": [
    {
      "inputs": [
        {
          "internalType": "address[]",
          "name": "admins",
          "type": "address[]"
        }
      ],
      "stateMutability": "nonpayable",
      "type": "constructor"
    },
    {
      "anonymous": false,
      "inputs": [
        {
          "indexed": true,
          "internalType": "address",
          "name": "owner",
          "type": "address"
        },
        {
          "indexed": true,
          "internalType": "address",
          "name": "approved",
          "type": "address"
        },
        {
          "indexed": true,
          "internalType": "uint256",
          "name": "tokenId",
          "type": "uint256"
        }
      ],
      "name": "Approval",
      "type": "event"
    },
    {
      "anonymous": false,
      "inputs": [
        {
          "indexed": true,
          "internalType": "address",
          "name": "owner",
          "type": "address"
        },
        {
          "indexed": true,
          "internalType": "address",
          "name": "operator",
          "type": "address"
        },
        {
          "indexed": false,
          "internalType": "bool",
          "name": "approved",
          "type": "bool"
        }
      ],
      "name": "ApprovalForAll",
      "type": "event"
    },
    {
      "anonymous": false,
      "inputs": [
        {
          "indexed": true,
          "internalType": "bytes32",
          "name": "role",
          "type": "bytes32"
        },
        {
          "indexed": true,
          "internalType": "bytes32",
          "name": "previousAdminRole",
          "type": "bytes32"
        },
        {
          "indexed": true,
          "internalType": "bytes32",
          "name": "newAdminRole",
          "type": "bytes32"
        }
      ],
      "name": "RoleAdminChanged",
      "type": "event"
    },
    {
      "anonymous": false,
      "inputs": [
        {
          "indexed": true,
          "internalType": "bytes32",
          "name": "role",
          "type": "bytes32"
        },
        {
          "indexed": true,
          "internalType": "address",
          "name": "account",
          "type": "address"
        },
        {
          "indexed": true,
          "internalType": "address",
          "name": "sender",
          "type": "address"
        }
      ],
      "name": "RoleGranted",
      "type": "event"
    },
    {
      "anonymous": false,
      "inputs": [
        {
          "indexed": true,
          "internalType": "bytes32",
          "name": "role",
          "type": "bytes32"
        },
        {
          "indexed": true,
          "internalType": "address",
          "name": "account",
          "type": "address"
        },
        {
          "indexed": true,
          "internalType": "address",
          "name": "sender",
          "type": "address"
        }
      ],
      "name": "RoleRevoked",
      "type": "event"
    },
    {
      "anonymous": false,
      "inputs": [
        {
          "indexed": true,
          "internalType": "address",
          "name": "from",
          "type": "address"
        },
        {
          "indexed": true,
          "internalType": "address",
          "name": "to",
          "type": "address"
        },
        {
          "indexed": true,
          "internalType": "uint256",
          "name": "tokenId",
          "type": "uint256"
        }
      ],
      "name": "Transfer",
      "type": "event"
    },
    {
      "inputs": [],
      "name": "ADMIN",
      "outputs": [
        {
          "internalType": "bytes32",
          "name": "",
          "type": "bytes32"
        }
      ],
      "stateMutability": "view",
      "type": "function"
    },
    {
      "inputs": [],
      "name": "DEFAULT_ADMIN_ROLE",
      "outputs": [
        {
          "internalType": "bytes32",
          "name": "",
          "type": "bytes32"
        }
      ],
      "stateMutability": "view",
      "type": "function"
    },
    {
      "inputs": [
        {
          "internalType": "address[]",
          "name": "newAdmins",
          "type": "address[]"
        }
      ],
      "name": "addAdmins",
      "outputs": [],
      "stateMutability": "nonpayable",
      "type": "function"
    },
    {
      "inputs": [
        {
          "internalType": "uint256",
          "name": "tokenId",
          "type": "uint256"
        }
      ],
      "name": "adminBurn",
      "outputs": [],
      "stateMutability": "nonpayable",
      "type": "function"
    },
    {
      "inputs": [
        {
          "internalType": "address",
          "name": "to",
          "type": "address"
        },
        {
          "internalType": "uint256",
          "name": "tokenId",
          "type": "uint256"
        }
      ],
      "name": "adminTransfer",
      "outputs": [],
      "stateMutability": "nonpayable",
      "type": "function"
    },
    {
      "inputs": [
        {
          "internalType": "address",
          "name": "to",
          "type": "address"
        },
        {
          "internalType": "uint256",
          "name": "tokenId",
          "type": "uint256"
        }
      ],
      "name": "approve",
      "outputs": [],
      "stateMutability": "nonpayable",
      "type": "function"
    },
    {
      "inputs": [
        {
          "internalType": "address",
          "name": "owner",
          "type": "address"
        }
      ],
      "name": "balanceOf",
      "outputs": [
        {
          "internalType": "uint256",
          "name": "",
          "type": "uint256"
        }
      ],
      "stateMutability": "view",
      "type": "function"
    },
    {
      "inputs": [],
      "name": "defaultAdmin",
      "outputs": [
        {
          "internalType": "address",
          "name": "",
          "type": "address"
        }
      ],
      "stateMutability": "view",
      "type": "function"
    },
    {
      "inputs": [
        {
          "internalType": "uint256",
          "name": "tokenId",
          "type": "uint256"
        }
      ],
      "name": "getApproved",
      "outputs": [
        {
          "internalType": "address",
          "name": "",
          "type": "address"
        }
      ],
      "stateMutability": "view",
      "type": "function"
    },
    {
      "inputs": [
        {
          "internalType": "bytes32",
          "name": "role",
          "type": "bytes32"
        }
      ],
      "name": "getRoleAdmin",
      "outputs": [
        {
          "internalType": "bytes32",
          "name": "",
          "type": "bytes32"
        }
      ],
      "stateMutability": "view",
      "type": "function"
    },
    {
      "inputs": [
        {
          "internalType": "bytes32",
          "name": "role",
          "type": "bytes32"
        },
        {
          "internalType": "address",
          "name": "account",
          "type": "address"
        }
      ],
      "name": "grantRole",
      "outputs": [],
      "stateMutability": "nonpayable",
      "type": "function"
    },
    {
      "inputs": [
        {
          "internalType": "bytes32",
          "name": "role",
          "type": "bytes32"
        },
        {
          "internalType": "address",
          "name": "account",
          "type": "address"
        }
      ],
      "name": "hasRole",
      "outputs": [
        {
          "internalType": "bool",
          "name": "",
          "type": "bool"
        }
      ],
      "stateMutability": "view",
      "type": "function"
    },
    {
      "inputs": [
        {
          "internalType": "address",
          "name": "owner",
          "type": "address"
        },
        {
          "internalType": "address",
          "name": "operator",
          "type": "address"
        }
      ],
      "name": "isApprovedForAll",
      "outputs": [
        {
          "internalType": "bool",
          "name": "",
          "type": "bool"
        }
      ],
      "stateMutability": "view",
      "type": "function"
    },
    {
      "inputs": [
        {
          "internalType": "address",
          "name": "to",
          "type": "address"
        },
        {
          "internalType": "uint256",
          "name": "tokenId",
          "type": "uint256"
        },
        {
          "internalType": "string",
          "name": "tokenURI",
          "type": "string"
        }
      ],
      "name": "mintTo",
      "outputs": [],
      "stateMutability": "nonpayable",
      "type": "function"
    },
    {
      "inputs": [],
      "name": "name",
      "outputs": [
        {
          "internalType": "string",
          "name": "",
          "type": "string"
        }
      ],
      "stateMutability": "view",
      "type": "function"
    },
    {
      "inputs": [
        {
          "internalType": "uint256",
          "name": "tokenId",
          "type": "uint256"
        }
      ],
      "name": "ownerOf",
      "outputs": [
        {
          "internalType": "address",
          "name": "",
          "type": "address"
        }
      ],
      "stateMutability": "view",
      "type": "function"
    },
    {
      "inputs": [
        {
          "internalType": "bytes32",
          "name": "role",
          "type": "bytes32"
        },
        {
          "internalType": "address",
          "name": "account",
          "type": "address"
        }
      ],
      "name": "renounceRole",
      "outputs": [],
      "stateMutability": "nonpayable",
      "type": "function"
    },
    {
      "inputs": [
        {
          "internalType": "bytes32",
          "name": "role",
          "type": "bytes32"
        },
        {
          "internalType": "address",
          "name": "account",
          "type": "address"
        }
      ],
      "name": "revokeRole",
      "outputs": [],
      "stateMutability": "nonpayable",
      "type": "function"
    },
    {
      "inputs": [
        {
          "internalType": "address",
          "name": "from",
          "type": "address"
        },
        {
          "internalType": "address",
          "name": "to",
          "type": "address"
        },
        {
          "internalType": "uint256",
          "name": "tokenId",
          "type": "uint256"
        }
      ],
      "name": "safeTransferFrom",
      "outputs": [],
      "stateMutability": "nonpayable",
      "type": "function"
    },
    {
      "inputs": [
        {
          "internalType": "address",
          "name": "from",
          "type": "address"
        },
        {
          "internalType": "address",
          "name": "to",
          "type": "address"
        },
        {
          "internalType": "uint256",
          "name": "tokenId",
          "type": "uint256"
        },
        {
          "internalType": "bytes",
          "name": "_data",
          "type": "bytes"
        }
      ],
      "name": "safeTransferFrom",
      "outputs": [],
      "stateMutability": "nonpayable",
      "type": "function"
    },
    {
      "inputs": [],
      "name": "selfDestruct",
      "outputs": [],
      "stateMutability": "nonpayable",
      "type": "function"
    },
    {
      "inputs": [
        {
          "internalType": "address",
          "name": "operator",
          "type": "address"
        },
        {
          "internalType": "bool",
          "name": "approved",
          "type": "bool"
        }
      ],
      "name": "setApprovalForAll",
      "outputs": [],
      "stateMutability": "nonpayable",
      "type": "function"
    },
    {
      "inputs": [
        {
          "internalType": "bytes4",
          "name": "interfaceId",
          "type": "bytes4"
        }
      ],
      "name": "supportsInterface",
      "outputs": [
        {
          "internalType": "bool",
          "name": "",
          "type": "bool"
        }
      ],
      "stateMutability": "view",
      "type": "function"
    },
    {
      "inputs": [],
      "name": "symbol",
      "outputs": [
        {
          "internalType": "string",
          "name": "",
          "type": "string"
        }
      ],
      "stateMutability": "view",
      "type": "function"
    },
    {
      "inputs": [
        {
          "internalType": "uint256",
          "name": "tokenId",
          "type": "uint256"
        }
      ],
      "name": "tokenURI",
      "outputs": [
        {
          "internalType": "string",
          "name": "",
          "type": "string"
        }
      ],
      "stateMutability": "view",
      "type": "function"
    },
    {
      "inputs": [],
      "name": "totalSupply",
      "outputs": [
        {
          "internalType": "uint256",
          "name": "",
          "type": "uint256"
        }
      ],
      "stateMutability": "view",
      "type": "function"
    },
    {
      "inputs": [
        {
          "internalType": "address",
          "name": "from",
          "type": "address"
        },
        {
          "internalType": "address",
          "name": "to",
          "type": "address"
        },
        {
          "internalType": "uint256",
          "name": "tokenId",
          "type": "uint256"
        }
      ],
      "name": "transferFrom",
      "outputs": [],
      "stateMutability": "nonpayable",
      "type": "function"
    }
  ],
  "transactionHash": "0x4a95b9abcc7abcf14ce993dd051509c920be1844e520cd29655eb48035aa88be",
  "args": [
    [
      "0xf39Fd6e51aad88F6F4ce6aB8827279cffFb92266",
      "0x70997970C51812dc3A010C7d01b50e0d17dc79C8",
      "0x3C44CdDdB6a900fa2b585dd299e03d12FA4293BC",
      "0x90F79bf6EB2c4f870365E785982E1f101E93b906",
      "0x15d34AAf54267DB7D7c367839AAf71A00a2C6A65",
      "0x9965507D1a55bcC2695C58ba16FB37d819B0A4dc",
      "0x976EA74026E726554dB657fA54763abd0C3a0aa9",
      "0x14dC79964da2C08b23698B3D3cc7Ca32193d9955",
      "0x23618e81E3f5cdF7f54C3d65f7FBc0aBf5B21E8f",
      "0xa0Ee7A142d267C1f36714E4a8F75612F20a79720",
      "0xBcd4042DE499D14e55001CcbB24a551F3b954096",
      "0x71bE63f3384f5fb98995898A86B02Fb2426c5788",
      "0xFABB0ac9d68B0B445fB7357272Ff202C5651694a",
      "0x1CBd3b2770909D4e10f157cABC84C7264073C9Ec",
      "0xdF3e18d64BC6A983f673Ab319CCaE4f1a57C7097",
      "0xcd3B766CCDd6AE721141F452C550Ca635964ce71",
      "0x2546BcD3c84621e976D8185a91A922aE77ECEc30",
      "0xbDA5747bFD65F08deb54cb465eB87D40e51B197E",
      "0xdD2FD4581271e230360230F9337D5c0430Bf44C0",
      "0x8626f6940E2eb28930eFb4CeF49B2d1F2C9C1199",
      "0x09DB0a93B389bEF724429898f539AEB7ac2Dd55f",
      "0x02484cb50AAC86Eae85610D6f4Bf026f30f6627D",
      "0x08135Da0A343E492FA2d4282F2AE34c6c5CC1BbE",
      "0x5E661B79FE2D3F6cE70F5AAC07d8Cd9abb2743F1",
      "0x61097BA76cD906d2ba4FD106E757f7Eb455fc295",
      "0xDf37F81dAAD2b0327A0A50003740e1C935C70913",
      "0x553BC17A05702530097c3677091C5BB47a3a7931",
      "0x87BdCE72c06C21cd96219BD8521bDF1F42C78b5e",
      "0x40Fc963A729c542424cD800349a7E4Ecc4896624",
      "0x9DCCe783B6464611f38631e6C851bf441907c710",
      "0x1BcB8e569EedAb4668e55145Cfeaf190902d3CF2",
      "0x8263Fce86B1b78F95Ab4dae11907d8AF88f841e7",
      "0xcF2d5b3cBb4D7bF04e3F7bFa8e27081B52191f91",
      "0x86c53Eb85D0B7548fea5C4B4F82b4205C8f6Ac18",
      "0x1aac82773CB722166D7dA0d5b0FA35B0307dD99D",
      "0x2f4f06d218E426344CFE1A83D53dAd806994D325",
      "0x1003ff39d25F2Ab16dBCc18EcE05a9B6154f65F4",
      "0x9eAF5590f2c84912A08de97FA28d0529361Deb9E",
      "0x11e8F3eA3C6FcF12EcfF2722d75CEFC539c51a1C",
      "0x7D86687F980A56b832e9378952B738b614A99dc6",
      "0x9eF6c02FB2ECc446146E05F1fF687a788a8BF76d",
      "0x08A2DE6F3528319123b25935C92888B16db8913E",
      "0xe141C82D99D85098e03E1a1cC1CdE676556fDdE0",
      "0x4b23D303D9e3719D6CDf8d172Ea030F80509ea15",
      "0xC004e69C5C04A223463Ff32042dd36DabF63A25a",
      "0x5eb15C0992734B5e77c888D713b4FC67b3D679A2",
      "0x7Ebb637fd68c523613bE51aad27C35C4DB199B9c",
      "0x3c3E2E178C69D4baD964568415a0f0c84fd6320A",
      "0x35304262b9E87C00c430149f28dD154995d01207",
      "0xD4A1E660C916855229e1712090CcfD8a424A2E33",
      "0xEe7f6A930B29d7350498Af97f0F9672EaecbeeFf",
      "0x145e2dc5C8238d1bE628F87076A37d4a26a78544",
      "0xD6A098EbCc5f8Bd4e174D915C54486B077a34A51",
      "0x042a63149117602129B6922ecFe3111168C2C323",
      "0xa0EC9eE47802CeB56eb58ce80F3E41630B771b04",
      "0xe8B1ff302A740fD2C6e76B620d45508dAEc2DDFf",
      "0xAb707cb80e7de7C75d815B1A653433F3EEc44c74",
      "0x0d803cdeEe5990f22C2a8DF10A695D2312dA26CC",
      "0x1c87Bb9234aeC6aDc580EaE6C8B59558A4502220",
      "0x4779d18931B35540F84b0cd0e9633855B84df7b8",
      "0xC0543b0b980D8c834CBdF023b2d2A75b5f9D1909",
      "0x73B3074ac649A8dc31c2C90a124469456301a30F",
      "0x265188114EB5d5536BC8654d8e9710FE72C28c4d",
      "0x924Ba5Ce9f91ddED37b4ebf8c0dc82A40202fc0A",
      "0x64492E25C30031EDAD55E57cEA599CDB1F06dad1",
      "0x262595fa2a3A86adACDe208589614d483e3eF1C0",
      "0xDFd99099Fa13541a64AEe9AAd61c0dbf3D32D492",
      "0x63c3686EF31C03a641e2Ea8993A91Ea351e5891a",
      "0x9394cb5f737Bd3aCea7dcE90CA48DBd42801EE5d",
      "0x344dca30F5c5f74F2f13Dc1d48Ad3A9069d13Ad9",
      "0xF23E054D8b4D0BECFa22DeEF5632F27f781f8bf5",
      "0x6d69F301d1Da5C7818B5e61EECc745b30179C68b",
      "0xF0cE7BaB13C99bA0565f426508a7CD8f4C247E5a",
      "0x011bD5423C5F77b5a0789E27f922535fd76B688F",
      "0xD9065f27e9b706E5F7628e067cC00B288dddbF19",
      "0x54ccCeB38251C29b628ef8B00b3cAB97e7cAc7D5",
      "0xA1196426b41627ae75Ea7f7409E074BE97367da2",
      "0xE74cEf90b6CF1a77FEfAd731713e6f53e575C183",
      "0x7Df8Efa6d6F1CB5C4f36315e0AcB82b02Ae8BA40",
      "0x9E126C57330FA71556628e0aabd6B6B6783d99fA",
      "0x586BA39027A74e8D40E6626f89Ae97bA7f616644",
      "0x9A50ed082Cf2fc003152580dcDB320B834fA379E",
      "0xbc8183bac3E969042736f7af07f76223D11D2148",
      "0x586aF62EAe7F447D14D25f53918814e04d3A5BA4",
      "0xCcDd262f272Ee6C226266eEa13eE48D4d932Ce66",
      "0xF0eeDDC5e015d4c459590E01Dcc2f2FD1d2baac7",
      "0x4edFEDFf17ab9642F8464D6143900903dD21421a",
      "0x492C973C16E8aeC46f4d71716E91b05B245377C9",
      "0xE5D3ab6883b7e8c35c04675F28BB992Ca1129ee4",
      "0x71F280DEA6FC5a03790941Ad72956f545FeB7a52",
      "0xE77478D9E136D3643cFc6fef578Abf63F9Ab91B1",
      "0x6C8EA11559DFE79Ae3dBDD6A67b47F61b929398f",
      "0x48fA7b63049A6F4E7316EB2D9c5BDdA8933BCA2f",
      "0x16aDfbeFdEfD488C992086D472A4CA577a0e5e54",
      "0x225356FF5d64889D7364Be2c990f93a66298Ee8D",
      "0xcBDc0F9a4C38f1e010bD3B6e43598A55D1868c23",
      "0xBc5BdceE96b1BC47822C74e6f64186fbA7d686be",
      "0x0536896a5e38BbD59F3F369FF3682677965aBD19",
      "0xFE0f143FcAD5B561b1eD2AC960278A2F23559Ef9",
      "0x98D08079928FcCB30598c6C6382ABfd7dbFaA1cD",
      "0x8C3229EC621644789d7F61FAa82c6d0E5F97d43D",
      "0x9586A4833970847aef259aD5BFB7aa8901DDf746",
      "0x0e9971c0005D91336c1441b8F03c1C4fe5FB4584",
      "0xC4c81D5C1851702d27d602aA8ff830A7689F17cc",
      "0x9c79357189d6aF261691ECF48de9A6bbF30438Fc",
      "0xd96Eb0f2e106eA7c0a939e9C460a17ace65FeCFF",
      "0x4548774216F19914493d051481FEb56246bC13f0",
      "0xFdAA62Ea18331AFA45CC78b44DBa58d809EaB80e",
      "0x7D19cEa5598AccbBF0005A8EB8ed6A02C6F8aB84",
      "0xEaBd5094570298Ffd24e93E7af378162884611cb",
      "0x51953940F874eFa94F92EB2d6Aed023617A07222",
      "0x6813ae1FC15E995230C05D4480d50219Bb635F15",
      "0x11c9CFEc77102a7C903a2D2319c79E7b0BBC9235",
      "0xBE9086f1A38740F297F6347B531732541289b220",
      "0xD4Db664B707353422b1Ffc94038cDD0a7D074D51",
      "0x11Ba29fE987adDFa480FfEcf3d98B26630917a78",
      "0xFFd57510605b4F47A58576ccC059aB8882C7eA00",
      "0x83781Cf2371117aAc856621805FB83c9ca439BAd",
      "0x2Bac2e5a4f39c32eD16205591Ba26e307414cA9E",
      "0x8D86EF40df93B1b3822bf996B972bA53E79C07c9",
      "0xc9DB8bec097C2CbdcE109e03A36f98a87E04ffEf",
      "0x925EB78bEb9a84cf88dc92DF5f2FE7bF33b40104",
      "0x5061a633977476e18B99423Ac51C6Df50621a597",
      "0x46655f18cC741152515f0d843AD4355b4AD23377",
      "0x012af9b68f94FE212705B708Cb69b53508D522a2",
      "0x87194239f32f33d74C99B2545032623B32e3F795",
      "0x0149aF4613AA457765d23a38D62685a9623AEf35",
      "0xBCcA9EcB933Db2481111102E73c61C7c7C4e2366",
      "0x20a6250c2cb9B6828ce0B16e09B950E7d0d0556d",
      "0x99F25BC68A4a0D6c9fCaA795d6f8cA738468f679",
      "0x2c7D914a1801242017Bd00aBC5A02452e1305C63",
      "0x5a3A245E0523B2728ec8D914358E33671e27872d",
      "0x3E13F655ce1CBC382e3e09b17266f5Ca1326F567",
      "0x148B4D43A550d74b82eA435dA0007a7B1048D714",
      "0xC8014C948758904edbeAD506B08941919261561B",
      "0x09bE20D14fc2BAb7bA84984c5AEBd43b6a37D36E",
      "0x527601C75277B9823fe4eb7D95Bf34da6C0C602b",
      "0xf88c5937F7EcE778c39cE149E9A863043Ec8Cb9C",
      "0xb938cfBDB5F0B5eFEA6E4e18e39390BfEeb47722",
      "0x902D6954691BC8f78202B84bcec7fc0cee8FC83E",
      "0xb24e6C5d01d14be3918ed712aCe1b2f7F2Bef53a",
      "0xFaF513321611B74ca918dF250d6ac38d43ab57f8",
      "0xA576e67c260B90f667E136AF1BEB9513859c6dC2",
      "0x110958850E5bfe54CeBA0a87b1cF7671c501dA95",
      "0x0d56282A479497840F27CE4e248616BBdBAFF881",
      "0x7F70da265d37eDCD337b0Df314C3E2208371dDA9",
      "0x09C1E3F7d9b6070eeB26Ac74Df33cCe0C5d858f5",
      "0x00297d0b6404D57C0fa9a3D3a6998Ef28623444B",
      "0x50a7E8CBecaa992ff5b77289Ae3227C9F2cABd9c",
      "0x838D1153557025efb2867d12b2AdFe151aC41693",
      "0x280b23F871E8679970CeC204Bc67d19840CEfeD0",
      "0x5F5622BaBB2c7cD60867Ca41aC86122Abb561449",
      "0xD597A7E5D9eee71843B25347f9091E42Db30C2D2",
      "0x100dD58b96152C9d99232920c97a7de1238d3043",
      "0xE8dFC1532693FF0AeFe7BEE264289806deAB3Fe3",
      "0x865cF0101F6E34D47a9A4EEB0d39a5dC8fAEd566",
      "0xFae5D89c5b24B1Fb8B86ED9656558CD980d01C43",
      "0x50FC8E8d9b5E9D3DF14919c1Df634b0F2311538A",
      "0x1848543e04A38dF7dEEf7Dfd346eFFb4f059a849",
      "0x80B8494D411e67c830C34c72B2aadf4D405AbDf0",
      "0x3961e9553D9E7aae3B6b497F92966a46D467C823",
      "0xd62Dc0f62c5c3b98c75ce130E78A5Bdc0021daD8",
      "0xba2Ef8C82FdF88ac9ca4163b7cAb1A0628d6b936",
      "0xE15B6c968d11723E5454894946DCF78E9eF18D42",
      "0xb65aD69852c853f323e5EEF1bf8a1Fb4C77E4765",
      "0x1ac9A50e9AaBadBede678a65D32F7cf58F2c1d85",
      "0x7233f2a928ED28AFb4A323BeCCE6F59712233A77",
      "0x88709c5A505d024368144D0Aa5e142ce238962cf",
      "0x0d3C1E9bb0DfDf2ebe674f3ee0C00E944C53FDAb",
      "0x62953a71c4d29c602F88c456e91a5f7Eecf7fcDE",
      "0x4d24dBC55231CEAF86b87F6cA71167bd94577936",
      "0x90c416e481f9944dd7afE0aA0e78e16780580bAC",
      "0x4f822bb4fAC4B2b6630bdF412E8158c15bd65aae",
      "0xB4076feC6a847622581cdfe9a8381e6e6168f597",
      "0x9c6550109D19a9a9B4568FD63b633F162588A53f",
      "0x450c8C20E62E0d6D91456A79367cC9dBEbB03272",
      "0xd85B3541370346B99F5C43B1848eB82BbB2ec3b7",
      "0x82E6e9473928d3108cC891D27B533914e014A8BD",
      "0x21b3De814B091aAaA340550d24440709E32e0c06",
      "0xA521BAC16af43F2E9A82Cd9BB4F5E328863EC6ac",
      "0xb669e9eCc9132c03B0708e9da76A4f00a30A935b",
      "0x33B1ce5357959ec0043e0d77556a5093AB347862",
      "0x9818DBC159BCC58C7feA87E82E738BDb0fcF03F8",
      "0x38421c898cfC5883ddCEC1247EA3f7Ff087Dd6ca",
      "0xe27fF38C1Edeb794ac38867D15620F63f12159e3",
      "0x5eA56c35eB281Ce7810faBFA793dd57482d4C913",
      "0xD9594d67fe240c37508Be5038443D8D4596EFCE0",
      "0x6e26847B83DdAc8a8aA689a441c5Bf168ee5342C",
      "0x0695FdDF2154cc8f097DB36c4bbde79265D0Ad71",
      "0xEd77fBD612b5E88a0De4BbB369F90278B87e887A",
      "0xc642A4b180CCBD0BEaC32d221c6faa1b7890B905",
      "0xCd2AFcCd6EA22a59235FD99260754A5Df136a22b",
      "0x4Daf3470DBA87DA934D22048ef416D6428EFFd1A",
      "0xcD4d0C621B577FC6477B83Fb3e4653668bb3F4C2",
      "0x2557794Bf452ec0a9cB923B03b2D2fb550E17357",
      "0x477763584467fEeAD3B77E0623Ec04153552D3bb",
      "0xA36362a58bB0B52932fa8B23733b459A6a242D65",
      "0xfaeb6d74bf4AA6fa096EC02f4C8C0a6C4EA6598D",
      "0x67Bc83836777dbAe169CFf9CB31a5d2bEAdEeCAb",
      "0xe2abD1E57c8D6f0D21645a8a0Af6C4251a4395f5"
    ]
  ],
  "numDeployments": 1,
  "solcInputHash": "08de88a9bd012edaec23254d79987612",
  "bytecode": "0x60a06040523480156200001157600080fd5b50604051620025eb380380620025eb83398101604081905262000034916200034c565b604080518082018252600a81526910985854da5915195cdd60b21b602080830191825283518085019094526004845263109054d560e21b908401528151919291620000829160009162000289565b5080516200009890600190602084019062000289565b50508151905080620000df5760405162461bcd60e51b815260206004820152600c60248201526b656d7074792061646d696e7360a01b604482015260640160405180910390fd5b3360601b6001600160601b031916608052620001046000620000fe3390565b6200018a565b620001196430b236b4b760d91b60006200019a565b60005b818110156200017c57620001676430b236b4b760d91b8483815181106200015357634e487b7160e01b600052603260045260246000fd5b60200260200101516200018a60201b60201c565b8062000173816200045d565b9150506200011c565b50506000600855506200049b565b620001968282620001e5565b5050565b600082815260076020526040808220600101805490849055905190918391839186917fbd79b86ffe0ab8e8776151514217cd7cacd52c909f66475c3af44e129f0b00ff9190a4505050565b60008281526007602090815260408083206001600160a01b038516845290915290205460ff16620001965760008281526007602090815260408083206001600160a01b03851684529091529020805460ff19166001179055620002453390565b6001600160a01b0316816001600160a01b0316837f2f8788117e7eff1d82e926ec794901d17c78024a50270940304540a733656f0d60405160405180910390a45050565b828054620002979062000420565b90600052602060002090601f016020900481019282620002bb576000855562000306565b82601f10620002d657805160ff191683800117855562000306565b8280016001018555821562000306579182015b8281111562000306578251825591602001919060010190620002e9565b506200031492915062000318565b5090565b5b8082111562000314576000815560010162000319565b80516001600160a01b03811681146200034757600080fd5b919050565b600060208083850312156200035f578182fd5b82516001600160401b038082111562000376578384fd5b818501915085601f8301126200038a578384fd5b8151818111156200039f576200039f62000485565b8060051b604051601f19603f83011681018181108582111715620003c757620003c762000485565b604052828152858101935084860182860187018a1015620003e6578788fd5b8795505b838610156200041357620003fe816200032f565b855260019590950194938601938601620003ea565b5098975050505050505050565b600181811c908216806200043557607f821691505b602082108114156200045757634e487b7160e01b600052602260045260246000fd5b50919050565b60006000198214156200047e57634e487b7160e01b81526011600452602481fd5b5060010190565b634e487b7160e01b600052604160045260246000fd5b60805160601c61212a620004c1600039600081816102eb015261092f015261212a6000f3fe608060405234801561001057600080fd5b50600436106101a95760003560e01c806384ef8ffc116100f9578063a22cb46511610097578063c87b56dd11610071578063c87b56dd14610397578063d547741f146103aa578063e985e9c5146103bd578063f17e48ec146103f957600080fd5b8063a22cb4651461035e578063b88d4fde14610371578063badb97ff1461038457600080fd5b80639c54df64116100d35780639c54df64146103285780639cb8a26a1461033b5780639f6ed25f14610343578063a217fddf1461035657600080fd5b806384ef8ffc146102e657806391d148541461030d57806395d89b411461032057600080fd5b8063248a9ca31161016657806336568abe1161014057806336568abe1461029a57806342842e0e146102ad5780636352211e146102c057806370a08231146102d357600080fd5b8063248a9ca3146102555780632a0acc6a146102785780632f2ff15d1461028757600080fd5b806301ffc9a7146101ae57806306fdde03146101d6578063081812fc146101eb578063095ea7b31461021657806318160ddd1461022b57806323b872dd14610242575b600080fd5b6101c16101bc366004611d92565b61040c565b60405190151581526020015b60405180910390f35b6101de610452565b6040516101cd9190611ed7565b6101fe6101f9366004611d58565b6104e4565b6040516001600160a01b0390911681526020016101cd565b610229610224366004611c3d565b610571565b005b61023460085481565b6040519081526020016101cd565b610229610250366004611af3565b610687565b610234610263366004611d58565b60009081526007602052604090206001015490565b6102346430b236b4b760d91b81565b610229610295366004611d70565b6106b8565b6102296102a8366004611d70565b6106de565b6102296102bb366004611af3565b61075c565b6101fe6102ce366004611d58565b610777565b6102346102e1366004611aa7565b6107ee565b6101fe7f000000000000000000000000000000000000000000000000000000000000000081565b6101c161031b366004611d70565b610875565b6101de6108a0565b610229610336366004611ce8565b6108af565b610229610921565b610229610351366004611c66565b610959565b610234600081565b61022961036c366004611c03565b6109d2565b61022961037f366004611b2e565b6109dd565b610229610392366004611d58565b610a15565b6101de6103a5366004611d58565b610a4a565b6102296103b8366004611d70565b610bc1565b6101c16103cb366004611ac1565b6001600160a01b03918216600090815260056020908152604080832093909416825291909152205460ff1690565b610229610407366004611c3d565b610be7565b60006001600160e01b031982166380ac58cd60e01b148061043d57506001600160e01b03198216637965db0b60e01b145b8061044c575061044c82610c1d565b92915050565b60606000805461046190612032565b80601f016020809104026020016040519081016040528092919081815260200182805461048d90612032565b80156104da5780601f106104af576101008083540402835291602001916104da565b820191906000526020600020905b8154815290600101906020018083116104bd57829003601f168201915b5050505050905090565b60006104ef82610c42565b6105555760405162461bcd60e51b815260206004820152602c60248201527f4552433732313a20617070726f76656420717565727920666f72206e6f6e657860448201526b34b9ba32b73a103a37b5b2b760a11b60648201526084015b60405180910390fd5b506000908152600460205260409020546001600160a01b031690565b600061057c82610777565b9050806001600160a01b0316836001600160a01b031614156105ea5760405162461bcd60e51b815260206004820152602160248201527f4552433732313a20617070726f76616c20746f2063757272656e74206f776e656044820152603960f91b606482015260840161054c565b336001600160a01b0382161480610606575061060681336103cb565b6106785760405162461bcd60e51b815260206004820152603860248201527f4552433732313a20617070726f76652063616c6c6572206973206e6f74206f7760448201527f6e6572206e6f7220617070726f76656420666f7220616c6c0000000000000000606482015260840161054c565b6106828383610c5f565b505050565b6106913382610ccd565b6106ad5760405162461bcd60e51b815260040161054c90611f3c565b610682838383610db3565b6000828152600760205260409020600101546106d48133610f4f565b6106828383610fb3565b6001600160a01b038116331461074e5760405162461bcd60e51b815260206004820152602f60248201527f416363657373436f6e74726f6c3a2063616e206f6e6c792072656e6f756e636560448201526e103937b632b9903337b91039b2b63360891b606482015260840161054c565b6107588282611039565b5050565b610682838383604051806020016040528060008152506109dd565b6000818152600260205260408120546001600160a01b03168061044c5760405162461bcd60e51b815260206004820152602960248201527f4552433732313a206f776e657220717565727920666f72206e6f6e657869737460448201526832b73a103a37b5b2b760b91b606482015260840161054c565b60006001600160a01b0382166108595760405162461bcd60e51b815260206004820152602a60248201527f4552433732313a2062616c616e636520717565727920666f7220746865207a65604482015269726f206164647265737360b01b606482015260840161054c565b506001600160a01b031660009081526003602052604090205490565b60009182526007602090815260408084206001600160a01b0393909316845291905290205460ff1690565b60606001805461046190612032565b60006108bb8133610f4f565b8160005b8181101561091a576109086430b236b4b760d91b8686848181106108f357634e487b7160e01b600052603260045260246000fd5b90506020020160208101906102959190611aa7565b806109128161206d565b9150506108bf565b5050505050565b600061092d8133610f4f565b7f00000000000000000000000000000000000000000000000000000000000000006001600160a01b0316ff5b6430b236b4b760d91b61096c8133610f4f565b61097685856110a0565b6109b68484848080601f0160208091040260200160405190810160405280939291908181526020018383808284376000920191909152506110ba92505050565b600880549060006109c68361206d565b91905055505050505050565b610758338383611145565b6109e73383610ccd565b610a035760405162461bcd60e51b815260040161054c90611f3c565b610a0f84848484611214565b50505050565b6430b236b4b760d91b610a288133610f4f565b610a3182611247565b60088054906000610a418361201b565b91905055505050565b6060610a5582610c42565b610abb5760405162461bcd60e51b815260206004820152603160248201527f45524337323155524953746f726167653a2055524920717565727920666f72206044820152703737b732bc34b9ba32b73a103a37b5b2b760791b606482015260840161054c565b60008281526006602052604081208054610ad490612032565b80601f0160208091040260200160405190810160405280929190818152602001828054610b0090612032565b8015610b4d5780601f10610b2257610100808354040283529160200191610b4d565b820191906000526020600020905b815481529060010190602001808311610b3057829003601f168201915b505050505090506000610b6b60408051602081019091526000815290565b9050805160001415610b7e575092915050565b815115610bb0578082604051602001610b98929190611df6565b60405160208183030381529060405292505050919050565b610bb98461128a565b949350505050565b600082815260076020526040902060010154610bdd8133610f4f565b6106828383611039565b6430b236b4b760d91b610bfa8133610f4f565b610682610c0683610777565b848460405180602001604052806000815250611214565b60006001600160e01b03198216637965db0b60e01b148061044c575061044c82611362565b6000908152600260205260409020546001600160a01b0316151590565b600081815260046020526040902080546001600160a01b0319166001600160a01b0384169081179091558190610c9482610777565b6001600160a01b03167f8c5be1e5ebec7d5bd14f71427d1e84f3dd0314c0f7b2291e5b200ac8c7c3b92560405160405180910390a45050565b6000610cd882610c42565b610d395760405162461bcd60e51b815260206004820152602c60248201527f4552433732313a206f70657261746f7220717565727920666f72206e6f6e657860448201526b34b9ba32b73a103a37b5b2b760a11b606482015260840161054c565b6000610d4483610777565b9050806001600160a01b0316846001600160a01b03161480610d7f5750836001600160a01b0316610d74846104e4565b6001600160a01b0316145b80610bb957506001600160a01b0380821660009081526005602090815260408083209388168352929052205460ff16610bb9565b826001600160a01b0316610dc682610777565b6001600160a01b031614610e2a5760405162461bcd60e51b815260206004820152602560248201527f4552433732313a207472616e736665722066726f6d20696e636f72726563742060448201526437bbb732b960d91b606482015260840161054c565b6001600160a01b038216610e8c5760405162461bcd60e51b8152602060048201526024808201527f4552433732313a207472616e7366657220746f20746865207a65726f206164646044820152637265737360e01b606482015260840161054c565b610e97600082610c5f565b6001600160a01b0383166000908152600360205260408120805460019290610ec0908490611fd8565b90915550506001600160a01b0382166000908152600360205260408120805460019290610eee908490611f8d565b909155505060008181526002602052604080822080546001600160a01b0319166001600160a01b0386811691821790925591518493918716917fddf252ad1be2c89b69c2b068fc378daa952ba7f163c4a11628f55a4df523b3ef91a4505050565b610f598282610875565b61075857610f71816001600160a01b031660146113b2565b610f7c8360206113b2565b604051602001610f8d929190611e25565b60408051601f198184030181529082905262461bcd60e51b825261054c91600401611ed7565b610fbd8282610875565b6107585760008281526007602090815260408083206001600160a01b03851684529091529020805460ff19166001179055610ff53390565b6001600160a01b0316816001600160a01b0316837f2f8788117e7eff1d82e926ec794901d17c78024a50270940304540a733656f0d60405160405180910390a45050565b6110438282610875565b156107585760008281526007602090815260408083206001600160a01b0385168085529252808320805460ff1916905551339285917ff6391f5c32d9c69d2a47ea670b442974b53935d1edc7fd64eb21e047a839171b9190a45050565b610758828260405180602001604052806000815250611594565b6110c382610c42565b6111265760405162461bcd60e51b815260206004820152602e60248201527f45524337323155524953746f726167653a2055524920736574206f66206e6f6e60448201526d32bc34b9ba32b73a103a37b5b2b760911b606482015260840161054c565b60008281526006602090815260409091208251610682928401906119bc565b816001600160a01b0316836001600160a01b031614156111a75760405162461bcd60e51b815260206004820152601960248201527f4552433732313a20617070726f766520746f2063616c6c657200000000000000604482015260640161054c565b6001600160a01b03838116600081815260056020908152604080832094871680845294825291829020805460ff191686151590811790915591519182527f17307eab39ab6107e8899845ad3d59bd9653f200f220920489ca2b5937696c31910160405180910390a3505050565b61121f848484610db3565b61122b848484846115c7565b610a0f5760405162461bcd60e51b815260040161054c90611eea565b611250816116d4565b6000818152600660205260409020805461126990612032565b15905061128757600081815260066020526040812061128791611a40565b50565b606061129582610c42565b6112f95760405162461bcd60e51b815260206004820152602f60248201527f4552433732314d657461646174613a2055524920717565727920666f72206e6f60448201526e3732bc34b9ba32b73a103a37b5b2b760891b606482015260840161054c565b600061131060408051602081019091526000815290565b90506000815111611330576040518060200160405280600081525061135b565b8061133a8461176f565b60405160200161134b929190611df6565b6040516020818303038152906040525b9392505050565b60006001600160e01b031982166380ac58cd60e01b148061139357506001600160e01b03198216635b5e139f60e01b145b8061044c57506301ffc9a760e01b6001600160e01b031983161461044c565b606060006113c1836002611fb9565b6113cc906002611f8d565b67ffffffffffffffff8111156113f257634e487b7160e01b600052604160045260246000fd5b6040519080825280601f01601f19166020018201604052801561141c576020820181803683370190505b509050600360fc1b8160008151811061144557634e487b7160e01b600052603260045260246000fd5b60200101906001600160f81b031916908160001a905350600f60fb1b8160018151811061148257634e487b7160e01b600052603260045260246000fd5b60200101906001600160f81b031916908160001a90535060006114a6846002611fb9565b6114b1906001611f8d565b90505b6001811115611545576f181899199a1a9b1b9c1cb0b131b232b360811b85600f16601081106114f357634e487b7160e01b600052603260045260246000fd5b1a60f81b82828151811061151757634e487b7160e01b600052603260045260246000fd5b60200101906001600160f81b031916908160001a90535060049490941c9361153e8161201b565b90506114b4565b50831561135b5760405162461bcd60e51b815260206004820181905260248201527f537472696e67733a20686578206c656e67746820696e73756666696369656e74604482015260640161054c565b61159e8383611889565b6115ab60008484846115c7565b6106825760405162461bcd60e51b815260040161054c90611eea565b60006001600160a01b0384163b156116c957604051630a85bd0160e11b81526001600160a01b0385169063150b7a029061160b903390899088908890600401611e9a565b602060405180830381600087803b15801561162557600080fd5b505af1925050508015611655575060408051601f3d908101601f1916820190925261165291810190611dae565b60015b6116af573d808015611683576040519150601f19603f3d011682016040523d82523d6000602084013e611688565b606091505b5080516116a75760405162461bcd60e51b815260040161054c90611eea565b805181602001fd5b6001600160e01b031916630a85bd0160e11b149050610bb9565b506001949350505050565b60006116df82610777565b90506116ec600083610c5f565b6001600160a01b0381166000908152600360205260408120805460019290611715908490611fd8565b909155505060008281526002602052604080822080546001600160a01b0319169055518391906001600160a01b038416907fddf252ad1be2c89b69c2b068fc378daa952ba7f163c4a11628f55a4df523b3ef908390a45050565b6060816117935750506040805180820190915260018152600360fc1b602082015290565b8160005b81156117bd57806117a78161206d565b91506117b69050600a83611fa5565b9150611797565b60008167ffffffffffffffff8111156117e657634e487b7160e01b600052604160045260246000fd5b6040519080825280601f01601f191660200182016040528015611810576020820181803683370190505b5090505b8415610bb957611825600183611fd8565b9150611832600a86612088565b61183d906030611f8d565b60f81b81838151811061186057634e487b7160e01b600052603260045260246000fd5b60200101906001600160f81b031916908160001a905350611882600a86611fa5565b9450611814565b6001600160a01b0382166118df5760405162461bcd60e51b815260206004820181905260248201527f4552433732313a206d696e7420746f20746865207a65726f2061646472657373604482015260640161054c565b6118e881610c42565b156119355760405162461bcd60e51b815260206004820152601c60248201527f4552433732313a20746f6b656e20616c7265616479206d696e74656400000000604482015260640161054c565b6001600160a01b038216600090815260036020526040812080546001929061195e908490611f8d565b909155505060008181526002602052604080822080546001600160a01b0319166001600160a01b03861690811790915590518392907fddf252ad1be2c89b69c2b068fc378daa952ba7f163c4a11628f55a4df523b3ef908290a45050565b8280546119c890612032565b90600052602060002090601f0160209004810192826119ea5760008555611a30565b82601f10611a0357805160ff1916838001178555611a30565b82800160010185558215611a30579182015b82811115611a30578251825591602001919060010190611a15565b50611a3c929150611a76565b5090565b508054611a4c90612032565b6000825580601f10611a5c575050565b601f01602090049060005260206000209081019061128791905b5b80821115611a3c5760008155600101611a77565b80356001600160a01b0381168114611aa257600080fd5b919050565b600060208284031215611ab8578081fd5b61135b82611a8b565b60008060408385031215611ad3578081fd5b611adc83611a8b565b9150611aea60208401611a8b565b90509250929050565b600080600060608486031215611b07578081fd5b611b1084611a8b565b9250611b1e60208501611a8b565b9150604084013590509250925092565b60008060008060808587031215611b43578081fd5b611b4c85611a8b565b9350611b5a60208601611a8b565b925060408501359150606085013567ffffffffffffffff80821115611b7d578283fd5b818701915087601f830112611b90578283fd5b813581811115611ba257611ba26120c8565b604051601f8201601f19908116603f01168101908382118183101715611bca57611bca6120c8565b816040528281528a6020848701011115611be2578586fd5b82602086016020830137918201602001949094529598949750929550505050565b60008060408385031215611c15578182fd5b611c1e83611a8b565b915060208301358015158114611c32578182fd5b809150509250929050565b60008060408385031215611c4f578182fd5b611c5883611a8b565b946020939093013593505050565b60008060008060608587031215611c7b578384fd5b611c8485611a8b565b935060208501359250604085013567ffffffffffffffff80821115611ca7578384fd5b818701915087601f830112611cba578384fd5b813581811115611cc8578485fd5b886020828501011115611cd9578485fd5b95989497505060200194505050565b60008060208385031215611cfa578182fd5b823567ffffffffffffffff80821115611d11578384fd5b818501915085601f830112611d24578384fd5b813581811115611d32578485fd5b8660208260051b8501011115611d46578485fd5b60209290920196919550909350505050565b600060208284031215611d69578081fd5b5035919050565b60008060408385031215611d82578182fd5b82359150611aea60208401611a8b565b600060208284031215611da3578081fd5b813561135b816120de565b600060208284031215611dbf578081fd5b815161135b816120de565b60008151808452611de2816020860160208601611fef565b601f01601f19169290920160200192915050565b60008351611e08818460208801611fef565b835190830190611e1c818360208801611fef565b01949350505050565b7f416363657373436f6e74726f6c3a206163636f756e7420000000000000000000815260008351611e5d816017850160208801611fef565b7001034b99036b4b9b9b4b733903937b6329607d1b6017918401918201528351611e8e816028840160208801611fef565b01602801949350505050565b6001600160a01b0385811682528416602082015260408101839052608060608201819052600090611ecd90830184611dca565b9695505050505050565b60208152600061135b6020830184611dca565b60208082526032908201527f4552433732313a207472616e7366657220746f206e6f6e20455243373231526560408201527131b2b4bb32b91034b6b83632b6b2b73a32b960711b606082015260800190565b60208082526031908201527f4552433732313a207472616e736665722063616c6c6572206973206e6f74206f6040820152701ddb995c881b9bdc88185c1c1c9bdd9959607a1b606082015260800190565b60008219821115611fa057611fa061209c565b500190565b600082611fb457611fb46120b2565b500490565b6000816000190483118215151615611fd357611fd361209c565b500290565b600082821015611fea57611fea61209c565b500390565b60005b8381101561200a578181015183820152602001611ff2565b83811115610a0f5750506000910152565b60008161202a5761202a61209c565b506000190190565b600181811c9082168061204657607f821691505b6020821081141561206757634e487b7160e01b600052602260045260246000fd5b50919050565b60006000198214156120815761208161209c565b5060010190565b600082612097576120976120b2565b500690565b634e487b7160e01b600052601160045260246000fd5b634e487b7160e01b600052601260045260246000fd5b634e487b7160e01b600052604160045260246000fd5b6001600160e01b03198116811461128757600080fdfea2646970667358221220f79a3d7281a472249c1cc786627f0dd0337cdd92f1faa3fe1228c8b5b1ed1d8e64736f6c63430008040033",
  "devdoc": {
    "author": "Justa Liang",
    "kind": "dev",
    "methods": {
      "addAdmins(address[])": {
        "details": "Add admin roles"
      },
      "adminBurn(uint256)": {
        "details": "Admin can burn any token"
      },
      "adminTransfer(address,uint256)": {
        "details": "Admin can transfer any token"
      },
      "approve(address,uint256)": {
        "details": "See {IERC721-approve}."
      },
      "balanceOf(address)": {
        "details": "See {IERC721-balanceOf}."
      },
      "constructor": {
        "details": "Setup ERC721 and AccessControl"
      },
      "getApproved(uint256)": {
        "details": "See {IERC721-getApproved}."
      },
      "getRoleAdmin(bytes32)": {
        "details": "Returns the admin role that controls `role`. See {grantRole} and {revokeRole}. To change a role's admin, use {_setRoleAdmin}."
      },
      "grantRole(bytes32,address)": {
        "details": "Grants `role` to `account`. If `account` had not been already granted `role`, emits a {RoleGranted} event. Requirements: - the caller must have ``role``'s admin role."
      },
      "hasRole(bytes32,address)": {
        "details": "Returns `true` if `account` has been granted `role`."
      },
      "isApprovedForAll(address,address)": {
        "details": "See {IERC721-isApprovedForAll}."
      },
      "mintTo(address,uint256,string)": {
        "details": "Admin mint"
      },
      "name()": {
        "details": "See {IERC721Metadata-name}."
      },
      "ownerOf(uint256)": {
        "details": "See {IERC721-ownerOf}."
      },
      "renounceRole(bytes32,address)": {
        "details": "Revokes `role` from the calling account. Roles are often managed via {grantRole} and {revokeRole}: this function's purpose is to provide a mechanism for accounts to lose their privileges if they are compromised (such as when a trusted device is misplaced). If the calling account had been revoked `role`, emits a {RoleRevoked} event. Requirements: - the caller must be `account`."
      },
      "revokeRole(bytes32,address)": {
        "details": "Revokes `role` from `account`. If `account` had been granted `role`, emits a {RoleRevoked} event. Requirements: - the caller must have ``role``'s admin role."
      },
      "safeTransferFrom(address,address,uint256)": {
        "details": "See {IERC721-safeTransferFrom}."
      },
      "safeTransferFrom(address,address,uint256,bytes)": {
        "details": "See {IERC721-safeTransferFrom}."
      },
      "selfDestruct()": {
        "details": "Self-destruct"
      },
      "setApprovalForAll(address,bool)": {
        "details": "See {IERC721-setApprovalForAll}."
      },
      "supportsInterface(bytes4)": {
        "details": "Override interface"
      },
      "symbol()": {
        "details": "See {IERC721Metadata-symbol}."
      },
      "tokenURI(uint256)": {
        "details": "See {IERC721Metadata-tokenURI}."
      },
      "transferFrom(address,address,uint256)": {
        "details": "See {IERC721-transferFrom}."
      }
    },
    "stateVariables": {
      "defaultAdmin": {
        "details": "deployer as default admin"
      },
      "totalSupply": {
        "details": "total supply"
      }
    },
    "title": "ERC721URIStorage with adminTransfer and adminBurn",
    "version": 1
  },
  "userdoc": {
    "kind": "user",
    "methods": {},
    "notice": "For BaaSid test",
    "version": 1
  },
  "storageLayout": {
    "storage": [
      {
        "astId": 407,
        "contract": "contracts/ERC721Admin.sol:ERC721Admin",
        "label": "_name",
        "offset": 0,
        "slot": "0",
        "type": "t_string_storage"
      },
      {
        "astId": 409,
        "contract": "contracts/ERC721Admin.sol:ERC721Admin",
        "label": "_symbol",
        "offset": 0,
        "slot": "1",
        "type": "t_string_storage"
      },
      {
        "astId": 413,
        "contract": "contracts/ERC721Admin.sol:ERC721Admin",
        "label": "_owners",
        "offset": 0,
        "slot": "2",
        "type": "t_mapping(t_uint256,t_address)"
      },
      {
        "astId": 417,
        "contract": "contracts/ERC721Admin.sol:ERC721Admin",
        "label": "_balances",
        "offset": 0,
        "slot": "3",
        "type": "t_mapping(t_address,t_uint256)"
      },
      {
        "astId": 421,
        "contract": "contracts/ERC721Admin.sol:ERC721Admin",
        "label": "_tokenApprovals",
        "offset": 0,
        "slot": "4",
        "type": "t_mapping(t_uint256,t_address)"
      },
      {
        "astId": 427,
        "contract": "contracts/ERC721Admin.sol:ERC721Admin",
        "label": "_operatorApprovals",
        "offset": 0,
        "slot": "5",
        "type": "t_mapping(t_address,t_mapping(t_address,t_bool))"
      },
      {
        "astId": 1394,
        "contract": "contracts/ERC721Admin.sol:ERC721Admin",
        "label": "_tokenURIs",
        "offset": 0,
        "slot": "6",
        "type": "t_mapping(t_uint256,t_string_storage)"
      },
      {
        "astId": 24,
        "contract": "contracts/ERC721Admin.sol:ERC721Admin",
        "label": "_roles",
        "offset": 0,
        "slot": "7",
        "type": "t_mapping(t_bytes32,t_struct(RoleData)19_storage)"
      },
      {
        "astId": 2110,
        "contract": "contracts/ERC721Admin.sol:ERC721Admin",
        "label": "totalSupply",
        "offset": 0,
        "slot": "8",
        "type": "t_uint256"
      }
    ],
    "types": {
      "t_address": {
        "encoding": "inplace",
        "label": "address",
        "numberOfBytes": "20"
      },
      "t_bool": {
        "encoding": "inplace",
        "label": "bool",
        "numberOfBytes": "1"
      },
      "t_bytes32": {
        "encoding": "inplace",
        "label": "bytes32",
        "numberOfBytes": "32"
      },
      "t_mapping(t_address,t_bool)": {
        "encoding": "mapping",
        "key": "t_address",
        "label": "mapping(address => bool)",
        "numberOfBytes": "32",
        "value": "t_bool"
      },
      "t_mapping(t_address,t_mapping(t_address,t_bool))": {
        "encoding": "mapping",
        "key": "t_address",
        "label": "mapping(address => mapping(address => bool))",
        "numberOfBytes": "32",
        "value": "t_mapping(t_address,t_bool)"
      },
      "t_mapping(t_address,t_uint256)": {
        "encoding": "mapping",
        "key": "t_address",
        "label": "mapping(address => uint256)",
        "numberOfBytes": "32",
        "value": "t_uint256"
      },
      "t_mapping(t_bytes32,t_struct(RoleData)19_storage)": {
        "encoding": "mapping",
        "key": "t_bytes32",
        "label": "mapping(bytes32 => struct AccessControl.RoleData)",
        "numberOfBytes": "32",
        "value": "t_struct(RoleData)19_storage"
      },
      "t_mapping(t_uint256,t_address)": {
        "encoding": "mapping",
        "key": "t_uint256",
        "label": "mapping(uint256 => address)",
        "numberOfBytes": "32",
        "value": "t_address"
      },
      "t_mapping(t_uint256,t_string_storage)": {
        "encoding": "mapping",
        "key": "t_uint256",
        "label": "mapping(uint256 => string)",
        "numberOfBytes": "32",
        "value": "t_string_storage"
      },
      "t_string_storage": {
        "encoding": "bytes",
        "label": "string",
        "numberOfBytes": "32"
      },
      "t_struct(RoleData)19_storage": {
        "encoding": "inplace",
        "label": "struct AccessControl.RoleData",
        "members": [
          {
            "astId": 16,
            "contract": "contracts/ERC721Admin.sol:ERC721Admin",
            "label": "members",
            "offset": 0,
            "slot": "0",
            "type": "t_mapping(t_address,t_bool)"
          },
          {
            "astId": 18,
            "contract": "contracts/ERC721Admin.sol:ERC721Admin",
            "label": "adminRole",
            "offset": 0,
            "slot": "1",
            "type": "t_bytes32"
          }
        ],
        "numberOfBytes": "64"
      },
      "t_uint256": {
        "encoding": "inplace",
        "label": "uint256",
        "numberOfBytes": "32"
      }
    }
  }
}