{
  "address": "0xF8e31cb472bc70500f08Cd84917E5A1912Ec8397",
  "abi": [
    {
      "inputs": [
        {
          "internalType": "address[]",
          "name": "admins",
          "type": "address[]"
        },
        {
          "internalType": "string",
          "name": "initBaseURI",
          "type": "string"
        }
      ],
      "stateMutability": "nonpayable",
      "type": "constructor"
    },
    {
      "anonymous": false,
      "inputs": [
        {
          "indexed": true,
          "internalType": "address",
          "name": "owner",
          "type": "address"
        },
        {
          "indexed": true,
          "internalType": "address",
          "name": "approved",
          "type": "address"
        },
        {
          "indexed": true,
          "internalType": "uint256",
          "name": "tokenId",
          "type": "uint256"
        }
      ],
      "name": "Approval",
      "type": "event"
    },
    {
      "anonymous": false,
      "inputs": [
        {
          "indexed": true,
          "internalType": "address",
          "name": "owner",
          "type": "address"
        },
        {
          "indexed": true,
          "internalType": "address",
          "name": "operator",
          "type": "address"
        },
        {
          "indexed": false,
          "internalType": "bool",
          "name": "approved",
          "type": "bool"
        }
      ],
      "name": "ApprovalForAll",
      "type": "event"
    },
    {
      "anonymous": false,
      "inputs": [
        {
          "indexed": true,
          "internalType": "bytes32",
          "name": "role",
          "type": "bytes32"
        },
        {
          "indexed": true,
          "internalType": "bytes32",
          "name": "previousAdminRole",
          "type": "bytes32"
        },
        {
          "indexed": true,
          "internalType": "bytes32",
          "name": "newAdminRole",
          "type": "bytes32"
        }
      ],
      "name": "RoleAdminChanged",
      "type": "event"
    },
    {
      "anonymous": false,
      "inputs": [
        {
          "indexed": true,
          "internalType": "bytes32",
          "name": "role",
          "type": "bytes32"
        },
        {
          "indexed": true,
          "internalType": "address",
          "name": "account",
          "type": "address"
        },
        {
          "indexed": true,
          "internalType": "address",
          "name": "sender",
          "type": "address"
        }
      ],
      "name": "RoleGranted",
      "type": "event"
    },
    {
      "anonymous": false,
      "inputs": [
        {
          "indexed": true,
          "internalType": "bytes32",
          "name": "role",
          "type": "bytes32"
        },
        {
          "indexed": true,
          "internalType": "address",
          "name": "account",
          "type": "address"
        },
        {
          "indexed": true,
          "internalType": "address",
          "name": "sender",
          "type": "address"
        }
      ],
      "name": "RoleRevoked",
      "type": "event"
    },
    {
      "anonymous": false,
      "inputs": [
        {
          "indexed": true,
          "internalType": "address",
          "name": "from",
          "type": "address"
        },
        {
          "indexed": true,
          "internalType": "address",
          "name": "to",
          "type": "address"
        },
        {
          "indexed": true,
          "internalType": "uint256",
          "name": "tokenId",
          "type": "uint256"
        }
      ],
      "name": "Transfer",
      "type": "event"
    },
    {
      "inputs": [],
      "name": "ADMIN",
      "outputs": [
        {
          "internalType": "bytes32",
          "name": "",
          "type": "bytes32"
        }
      ],
      "stateMutability": "view",
      "type": "function"
    },
    {
      "inputs": [],
      "name": "DEFAULT_ADMIN_ROLE",
      "outputs": [
        {
          "internalType": "bytes32",
          "name": "",
          "type": "bytes32"
        }
      ],
      "stateMutability": "view",
      "type": "function"
    },
    {
      "inputs": [
        {
          "internalType": "address[]",
          "name": "newAdmins",
          "type": "address[]"
        }
      ],
      "name": "addAdmins",
      "outputs": [],
      "stateMutability": "nonpayable",
      "type": "function"
    },
    {
      "inputs": [
        {
          "internalType": "uint256[]",
          "name": "tokenIds",
          "type": "uint256[]"
        }
      ],
      "name": "adminBatchBurn",
      "outputs": [],
      "stateMutability": "nonpayable",
      "type": "function"
    },
    {
      "inputs": [
        {
          "internalType": "address[]",
          "name": "receivers",
          "type": "address[]"
        },
        {
          "internalType": "uint256[]",
          "name": "tokenIds",
          "type": "uint256[]"
        }
      ],
      "name": "adminBatchMint",
      "outputs": [],
      "stateMutability": "nonpayable",
      "type": "function"
    },
    {
      "inputs": [
        {
          "internalType": "address[]",
          "name": "receivers",
          "type": "address[]"
        },
        {
          "internalType": "uint256[]",
          "name": "tokenIds",
          "type": "uint256[]"
        }
      ],
      "name": "adminBatchTransfer",
      "outputs": [],
      "stateMutability": "nonpayable",
      "type": "function"
    },
    {
      "inputs": [
        {
          "internalType": "uint256",
          "name": "tokenId",
          "type": "uint256"
        }
      ],
      "name": "adminBurn",
      "outputs": [],
      "stateMutability": "nonpayable",
      "type": "function"
    },
    {
      "inputs": [
        {
          "internalType": "address",
          "name": "to",
          "type": "address"
        },
        {
          "internalType": "uint256",
          "name": "tokenId",
          "type": "uint256"
        }
      ],
      "name": "adminMint",
      "outputs": [],
      "stateMutability": "nonpayable",
      "type": "function"
    },
    {
      "inputs": [
        {
          "internalType": "address",
          "name": "to",
          "type": "address"
        },
        {
          "internalType": "uint256",
          "name": "tokenId",
          "type": "uint256"
        }
      ],
      "name": "adminTransfer",
      "outputs": [],
      "stateMutability": "nonpayable",
      "type": "function"
    },
    {
      "inputs": [
        {
          "internalType": "address",
          "name": "to",
          "type": "address"
        },
        {
          "internalType": "uint256",
          "name": "tokenId",
          "type": "uint256"
        }
      ],
      "name": "approve",
      "outputs": [],
      "stateMutability": "nonpayable",
      "type": "function"
    },
    {
      "inputs": [
        {
          "internalType": "address",
          "name": "owner",
          "type": "address"
        }
      ],
      "name": "balanceOf",
      "outputs": [
        {
          "internalType": "uint256",
          "name": "",
          "type": "uint256"
        }
      ],
      "stateMutability": "view",
      "type": "function"
    },
    {
      "inputs": [],
      "name": "defaultAdmin",
      "outputs": [
        {
          "internalType": "address",
          "name": "",
          "type": "address"
        }
      ],
      "stateMutability": "view",
      "type": "function"
    },
    {
      "inputs": [
        {
          "internalType": "uint256",
          "name": "tokenId",
          "type": "uint256"
        }
      ],
      "name": "getApproved",
      "outputs": [
        {
          "internalType": "address",
          "name": "",
          "type": "address"
        }
      ],
      "stateMutability": "view",
      "type": "function"
    },
    {
      "inputs": [
        {
          "internalType": "bytes32",
          "name": "role",
          "type": "bytes32"
        }
      ],
      "name": "getRoleAdmin",
      "outputs": [
        {
          "internalType": "bytes32",
          "name": "",
          "type": "bytes32"
        }
      ],
      "stateMutability": "view",
      "type": "function"
    },
    {
      "inputs": [
        {
          "internalType": "bytes32",
          "name": "role",
          "type": "bytes32"
        },
        {
          "internalType": "address",
          "name": "account",
          "type": "address"
        }
      ],
      "name": "grantRole",
      "outputs": [],
      "stateMutability": "nonpayable",
      "type": "function"
    },
    {
      "inputs": [
        {
          "internalType": "bytes32",
          "name": "role",
          "type": "bytes32"
        },
        {
          "internalType": "address",
          "name": "account",
          "type": "address"
        }
      ],
      "name": "hasRole",
      "outputs": [
        {
          "internalType": "bool",
          "name": "",
          "type": "bool"
        }
      ],
      "stateMutability": "view",
      "type": "function"
    },
    {
      "inputs": [
        {
          "internalType": "address",
          "name": "owner",
          "type": "address"
        },
        {
          "internalType": "address",
          "name": "operator",
          "type": "address"
        }
      ],
      "name": "isApprovedForAll",
      "outputs": [
        {
          "internalType": "bool",
          "name": "",
          "type": "bool"
        }
      ],
      "stateMutability": "view",
      "type": "function"
    },
    {
      "inputs": [],
      "name": "name",
      "outputs": [
        {
          "internalType": "string",
          "name": "",
          "type": "string"
        }
      ],
      "stateMutability": "view",
      "type": "function"
    },
    {
      "inputs": [
        {
          "internalType": "uint256",
          "name": "tokenId",
          "type": "uint256"
        }
      ],
      "name": "ownerOf",
      "outputs": [
        {
          "internalType": "address",
          "name": "",
          "type": "address"
        }
      ],
      "stateMutability": "view",
      "type": "function"
    },
    {
      "inputs": [
        {
          "internalType": "bytes32",
          "name": "role",
          "type": "bytes32"
        },
        {
          "internalType": "address",
          "name": "account",
          "type": "address"
        }
      ],
      "name": "renounceRole",
      "outputs": [],
      "stateMutability": "nonpayable",
      "type": "function"
    },
    {
      "inputs": [
        {
          "internalType": "bytes32",
          "name": "role",
          "type": "bytes32"
        },
        {
          "internalType": "address",
          "name": "account",
          "type": "address"
        }
      ],
      "name": "revokeRole",
      "outputs": [],
      "stateMutability": "nonpayable",
      "type": "function"
    },
    {
      "inputs": [
        {
          "internalType": "address",
          "name": "from",
          "type": "address"
        },
        {
          "internalType": "address",
          "name": "to",
          "type": "address"
        },
        {
          "internalType": "uint256",
          "name": "tokenId",
          "type": "uint256"
        }
      ],
      "name": "safeTransferFrom",
      "outputs": [],
      "stateMutability": "nonpayable",
      "type": "function"
    },
    {
      "inputs": [
        {
          "internalType": "address",
          "name": "from",
          "type": "address"
        },
        {
          "internalType": "address",
          "name": "to",
          "type": "address"
        },
        {
          "internalType": "uint256",
          "name": "tokenId",
          "type": "uint256"
        },
        {
          "internalType": "bytes",
          "name": "_data",
          "type": "bytes"
        }
      ],
      "name": "safeTransferFrom",
      "outputs": [],
      "stateMutability": "nonpayable",
      "type": "function"
    },
    {
      "inputs": [],
      "name": "selfDestruct",
      "outputs": [],
      "stateMutability": "nonpayable",
      "type": "function"
    },
    {
      "inputs": [
        {
          "internalType": "address",
          "name": "operator",
          "type": "address"
        },
        {
          "internalType": "bool",
          "name": "approved",
          "type": "bool"
        }
      ],
      "name": "setApprovalForAll",
      "outputs": [],
      "stateMutability": "nonpayable",
      "type": "function"
    },
    {
      "inputs": [
        {
          "internalType": "bytes4",
          "name": "interfaceId",
          "type": "bytes4"
        }
      ],
      "name": "supportsInterface",
      "outputs": [
        {
          "internalType": "bool",
          "name": "",
          "type": "bool"
        }
      ],
      "stateMutability": "view",
      "type": "function"
    },
    {
      "inputs": [],
      "name": "symbol",
      "outputs": [
        {
          "internalType": "string",
          "name": "",
          "type": "string"
        }
      ],
      "stateMutability": "view",
      "type": "function"
    },
    {
      "inputs": [
        {
          "internalType": "uint256",
          "name": "index",
          "type": "uint256"
        }
      ],
      "name": "tokenByIndex",
      "outputs": [
        {
          "internalType": "uint256",
          "name": "",
          "type": "uint256"
        }
      ],
      "stateMutability": "view",
      "type": "function"
    },
    {
      "inputs": [
        {
          "internalType": "address",
          "name": "owner",
          "type": "address"
        },
        {
          "internalType": "uint256",
          "name": "index",
          "type": "uint256"
        }
      ],
      "name": "tokenOfOwnerByIndex",
      "outputs": [
        {
          "internalType": "uint256",
          "name": "",
          "type": "uint256"
        }
      ],
      "stateMutability": "view",
      "type": "function"
    },
    {
      "inputs": [
        {
          "internalType": "address",
          "name": "owner",
          "type": "address"
        },
        {
          "internalType": "uint256",
          "name": "pageIndex",
          "type": "uint256"
        },
        {
          "internalType": "uint256",
          "name": "amountPerPage",
          "type": "uint256"
        }
      ],
      "name": "tokenOfOwnerByPage",
      "outputs": [
        {
          "internalType": "uint256[]",
          "name": "tokenIdList",
          "type": "uint256[]"
        }
      ],
      "stateMutability": "view",
      "type": "function"
    },
    {
      "inputs": [
        {
          "internalType": "uint256",
          "name": "tokenId",
          "type": "uint256"
        }
      ],
      "name": "tokenURI",
      "outputs": [
        {
          "internalType": "string",
          "name": "",
          "type": "string"
        }
      ],
      "stateMutability": "view",
      "type": "function"
    },
    {
      "inputs": [],
      "name": "totalSupply",
      "outputs": [
        {
          "internalType": "uint256",
          "name": "",
          "type": "uint256"
        }
      ],
      "stateMutability": "view",
      "type": "function"
    },
    {
      "inputs": [
        {
          "internalType": "address",
          "name": "from",
          "type": "address"
        },
        {
          "internalType": "address",
          "name": "to",
          "type": "address"
        },
        {
          "internalType": "uint256",
          "name": "tokenId",
          "type": "uint256"
        }
      ],
      "name": "transferFrom",
      "outputs": [],
      "stateMutability": "nonpayable",
      "type": "function"
    },
    {
      "inputs": [
        {
          "internalType": "string",
          "name": "newBaseURI",
          "type": "string"
        }
      ],
      "name": "updateBaseURI",
      "outputs": [],
      "stateMutability": "nonpayable",
      "type": "function"
    }
  ],
  "transactionHash": "0x472851b823e2da91b61de67c6b32446bed057c0e5a346e4d39d9f97e715da178",
  "args": [
    [
      "0xf39Fd6e51aad88F6F4ce6aB8827279cffFb92266",
      "0x70997970C51812dc3A010C7d01b50e0d17dc79C8",
      "0x3C44CdDdB6a900fa2b585dd299e03d12FA4293BC",
      "0x90F79bf6EB2c4f870365E785982E1f101E93b906",
      "0x15d34AAf54267DB7D7c367839AAf71A00a2C6A65",
      "0x9965507D1a55bcC2695C58ba16FB37d819B0A4dc",
      "0x976EA74026E726554dB657fA54763abd0C3a0aa9",
      "0x14dC79964da2C08b23698B3D3cc7Ca32193d9955",
      "0x23618e81E3f5cdF7f54C3d65f7FBc0aBf5B21E8f",
      "0xa0Ee7A142d267C1f36714E4a8F75612F20a79720",
      "0xBcd4042DE499D14e55001CcbB24a551F3b954096",
      "0x71bE63f3384f5fb98995898A86B02Fb2426c5788",
      "0xFABB0ac9d68B0B445fB7357272Ff202C5651694a",
      "0x1CBd3b2770909D4e10f157cABC84C7264073C9Ec",
      "0xdF3e18d64BC6A983f673Ab319CCaE4f1a57C7097",
      "0xcd3B766CCDd6AE721141F452C550Ca635964ce71",
      "0x2546BcD3c84621e976D8185a91A922aE77ECEc30",
      "0xbDA5747bFD65F08deb54cb465eB87D40e51B197E",
      "0xdD2FD4581271e230360230F9337D5c0430Bf44C0",
      "0x8626f6940E2eb28930eFb4CeF49B2d1F2C9C1199",
      "0x09DB0a93B389bEF724429898f539AEB7ac2Dd55f",
      "0x02484cb50AAC86Eae85610D6f4Bf026f30f6627D",
      "0x08135Da0A343E492FA2d4282F2AE34c6c5CC1BbE",
      "0x5E661B79FE2D3F6cE70F5AAC07d8Cd9abb2743F1",
      "0x61097BA76cD906d2ba4FD106E757f7Eb455fc295",
      "0xDf37F81dAAD2b0327A0A50003740e1C935C70913",
      "0x553BC17A05702530097c3677091C5BB47a3a7931",
      "0x87BdCE72c06C21cd96219BD8521bDF1F42C78b5e",
      "0x40Fc963A729c542424cD800349a7E4Ecc4896624",
      "0x9DCCe783B6464611f38631e6C851bf441907c710",
      "0x1BcB8e569EedAb4668e55145Cfeaf190902d3CF2",
      "0x8263Fce86B1b78F95Ab4dae11907d8AF88f841e7",
      "0xcF2d5b3cBb4D7bF04e3F7bFa8e27081B52191f91",
      "0x86c53Eb85D0B7548fea5C4B4F82b4205C8f6Ac18",
      "0x1aac82773CB722166D7dA0d5b0FA35B0307dD99D",
      "0x2f4f06d218E426344CFE1A83D53dAd806994D325",
      "0x1003ff39d25F2Ab16dBCc18EcE05a9B6154f65F4",
      "0x9eAF5590f2c84912A08de97FA28d0529361Deb9E",
      "0x11e8F3eA3C6FcF12EcfF2722d75CEFC539c51a1C",
      "0x7D86687F980A56b832e9378952B738b614A99dc6",
      "0x9eF6c02FB2ECc446146E05F1fF687a788a8BF76d",
      "0x08A2DE6F3528319123b25935C92888B16db8913E",
      "0xe141C82D99D85098e03E1a1cC1CdE676556fDdE0",
      "0x4b23D303D9e3719D6CDf8d172Ea030F80509ea15",
      "0xC004e69C5C04A223463Ff32042dd36DabF63A25a",
      "0x5eb15C0992734B5e77c888D713b4FC67b3D679A2",
      "0x7Ebb637fd68c523613bE51aad27C35C4DB199B9c",
      "0x3c3E2E178C69D4baD964568415a0f0c84fd6320A",
      "0x35304262b9E87C00c430149f28dD154995d01207",
      "0xD4A1E660C916855229e1712090CcfD8a424A2E33",
      "0xEe7f6A930B29d7350498Af97f0F9672EaecbeeFf",
      "0x145e2dc5C8238d1bE628F87076A37d4a26a78544",
      "0xD6A098EbCc5f8Bd4e174D915C54486B077a34A51",
      "0x042a63149117602129B6922ecFe3111168C2C323",
      "0xa0EC9eE47802CeB56eb58ce80F3E41630B771b04",
      "0xe8B1ff302A740fD2C6e76B620d45508dAEc2DDFf",
      "0xAb707cb80e7de7C75d815B1A653433F3EEc44c74",
      "0x0d803cdeEe5990f22C2a8DF10A695D2312dA26CC",
      "0x1c87Bb9234aeC6aDc580EaE6C8B59558A4502220",
      "0x4779d18931B35540F84b0cd0e9633855B84df7b8",
      "0xC0543b0b980D8c834CBdF023b2d2A75b5f9D1909",
      "0x73B3074ac649A8dc31c2C90a124469456301a30F",
      "0x265188114EB5d5536BC8654d8e9710FE72C28c4d",
      "0x924Ba5Ce9f91ddED37b4ebf8c0dc82A40202fc0A",
      "0x64492E25C30031EDAD55E57cEA599CDB1F06dad1",
      "0x262595fa2a3A86adACDe208589614d483e3eF1C0",
      "0xDFd99099Fa13541a64AEe9AAd61c0dbf3D32D492",
      "0x63c3686EF31C03a641e2Ea8993A91Ea351e5891a",
      "0x9394cb5f737Bd3aCea7dcE90CA48DBd42801EE5d",
      "0x344dca30F5c5f74F2f13Dc1d48Ad3A9069d13Ad9",
      "0xF23E054D8b4D0BECFa22DeEF5632F27f781f8bf5",
      "0x6d69F301d1Da5C7818B5e61EECc745b30179C68b",
      "0xF0cE7BaB13C99bA0565f426508a7CD8f4C247E5a",
      "0x011bD5423C5F77b5a0789E27f922535fd76B688F",
      "0xD9065f27e9b706E5F7628e067cC00B288dddbF19",
      "0x54ccCeB38251C29b628ef8B00b3cAB97e7cAc7D5",
      "0xA1196426b41627ae75Ea7f7409E074BE97367da2",
      "0xE74cEf90b6CF1a77FEfAd731713e6f53e575C183",
      "0x7Df8Efa6d6F1CB5C4f36315e0AcB82b02Ae8BA40",
      "0x9E126C57330FA71556628e0aabd6B6B6783d99fA",
      "0x586BA39027A74e8D40E6626f89Ae97bA7f616644",
      "0x9A50ed082Cf2fc003152580dcDB320B834fA379E",
      "0xbc8183bac3E969042736f7af07f76223D11D2148",
      "0x586aF62EAe7F447D14D25f53918814e04d3A5BA4",
      "0xCcDd262f272Ee6C226266eEa13eE48D4d932Ce66",
      "0xF0eeDDC5e015d4c459590E01Dcc2f2FD1d2baac7",
      "0x4edFEDFf17ab9642F8464D6143900903dD21421a",
      "0x492C973C16E8aeC46f4d71716E91b05B245377C9",
      "0xE5D3ab6883b7e8c35c04675F28BB992Ca1129ee4",
      "0x71F280DEA6FC5a03790941Ad72956f545FeB7a52",
      "0xE77478D9E136D3643cFc6fef578Abf63F9Ab91B1",
      "0x6C8EA11559DFE79Ae3dBDD6A67b47F61b929398f",
      "0x48fA7b63049A6F4E7316EB2D9c5BDdA8933BCA2f",
      "0x16aDfbeFdEfD488C992086D472A4CA577a0e5e54",
      "0x225356FF5d64889D7364Be2c990f93a66298Ee8D",
      "0xcBDc0F9a4C38f1e010bD3B6e43598A55D1868c23",
      "0xBc5BdceE96b1BC47822C74e6f64186fbA7d686be",
      "0x0536896a5e38BbD59F3F369FF3682677965aBD19",
      "0xFE0f143FcAD5B561b1eD2AC960278A2F23559Ef9",
      "0x98D08079928FcCB30598c6C6382ABfd7dbFaA1cD",
      "0x8C3229EC621644789d7F61FAa82c6d0E5F97d43D",
      "0x9586A4833970847aef259aD5BFB7aa8901DDf746",
      "0x0e9971c0005D91336c1441b8F03c1C4fe5FB4584",
      "0xC4c81D5C1851702d27d602aA8ff830A7689F17cc",
      "0x9c79357189d6aF261691ECF48de9A6bbF30438Fc",
      "0xd96Eb0f2e106eA7c0a939e9C460a17ace65FeCFF",
      "0x4548774216F19914493d051481FEb56246bC13f0",
      "0xFdAA62Ea18331AFA45CC78b44DBa58d809EaB80e",
      "0x7D19cEa5598AccbBF0005A8EB8ed6A02C6F8aB84",
      "0xEaBd5094570298Ffd24e93E7af378162884611cb",
      "0x51953940F874eFa94F92EB2d6Aed023617A07222",
      "0x6813ae1FC15E995230C05D4480d50219Bb635F15",
      "0x11c9CFEc77102a7C903a2D2319c79E7b0BBC9235",
      "0xBE9086f1A38740F297F6347B531732541289b220",
      "0xD4Db664B707353422b1Ffc94038cDD0a7D074D51",
      "0x11Ba29fE987adDFa480FfEcf3d98B26630917a78",
      "0xFFd57510605b4F47A58576ccC059aB8882C7eA00",
      "0x83781Cf2371117aAc856621805FB83c9ca439BAd",
      "0x2Bac2e5a4f39c32eD16205591Ba26e307414cA9E",
      "0x8D86EF40df93B1b3822bf996B972bA53E79C07c9",
      "0xc9DB8bec097C2CbdcE109e03A36f98a87E04ffEf",
      "0x925EB78bEb9a84cf88dc92DF5f2FE7bF33b40104",
      "0x5061a633977476e18B99423Ac51C6Df50621a597",
      "0x46655f18cC741152515f0d843AD4355b4AD23377",
      "0x012af9b68f94FE212705B708Cb69b53508D522a2",
      "0x87194239f32f33d74C99B2545032623B32e3F795",
      "0x0149aF4613AA457765d23a38D62685a9623AEf35",
      "0xBCcA9EcB933Db2481111102E73c61C7c7C4e2366",
      "0x20a6250c2cb9B6828ce0B16e09B950E7d0d0556d",
      "0x99F25BC68A4a0D6c9fCaA795d6f8cA738468f679",
      "0x2c7D914a1801242017Bd00aBC5A02452e1305C63",
      "0x5a3A245E0523B2728ec8D914358E33671e27872d",
      "0x3E13F655ce1CBC382e3e09b17266f5Ca1326F567",
      "0x148B4D43A550d74b82eA435dA0007a7B1048D714",
      "0xC8014C948758904edbeAD506B08941919261561B",
      "0x09bE20D14fc2BAb7bA84984c5AEBd43b6a37D36E",
      "0x527601C75277B9823fe4eb7D95Bf34da6C0C602b",
      "0xf88c5937F7EcE778c39cE149E9A863043Ec8Cb9C",
      "0xb938cfBDB5F0B5eFEA6E4e18e39390BfEeb47722",
      "0x902D6954691BC8f78202B84bcec7fc0cee8FC83E",
      "0xb24e6C5d01d14be3918ed712aCe1b2f7F2Bef53a",
      "0xFaF513321611B74ca918dF250d6ac38d43ab57f8",
      "0xA576e67c260B90f667E136AF1BEB9513859c6dC2",
      "0x110958850E5bfe54CeBA0a87b1cF7671c501dA95",
      "0x0d56282A479497840F27CE4e248616BBdBAFF881",
      "0x7F70da265d37eDCD337b0Df314C3E2208371dDA9",
      "0x09C1E3F7d9b6070eeB26Ac74Df33cCe0C5d858f5",
      "0x00297d0b6404D57C0fa9a3D3a6998Ef28623444B",
      "0x50a7E8CBecaa992ff5b77289Ae3227C9F2cABd9c",
      "0x838D1153557025efb2867d12b2AdFe151aC41693",
      "0x280b23F871E8679970CeC204Bc67d19840CEfeD0",
      "0x5F5622BaBB2c7cD60867Ca41aC86122Abb561449",
      "0xD597A7E5D9eee71843B25347f9091E42Db30C2D2",
      "0x100dD58b96152C9d99232920c97a7de1238d3043",
      "0xE8dFC1532693FF0AeFe7BEE264289806deAB3Fe3",
      "0x865cF0101F6E34D47a9A4EEB0d39a5dC8fAEd566",
      "0xFae5D89c5b24B1Fb8B86ED9656558CD980d01C43",
      "0x50FC8E8d9b5E9D3DF14919c1Df634b0F2311538A",
      "0x1848543e04A38dF7dEEf7Dfd346eFFb4f059a849",
      "0x80B8494D411e67c830C34c72B2aadf4D405AbDf0",
      "0x3961e9553D9E7aae3B6b497F92966a46D467C823",
      "0xd62Dc0f62c5c3b98c75ce130E78A5Bdc0021daD8",
      "0xba2Ef8C82FdF88ac9ca4163b7cAb1A0628d6b936",
      "0xE15B6c968d11723E5454894946DCF78E9eF18D42",
      "0xb65aD69852c853f323e5EEF1bf8a1Fb4C77E4765",
      "0x1ac9A50e9AaBadBede678a65D32F7cf58F2c1d85",
      "0x7233f2a928ED28AFb4A323BeCCE6F59712233A77",
      "0x88709c5A505d024368144D0Aa5e142ce238962cf",
      "0x0d3C1E9bb0DfDf2ebe674f3ee0C00E944C53FDAb",
      "0x62953a71c4d29c602F88c456e91a5f7Eecf7fcDE",
      "0x4d24dBC55231CEAF86b87F6cA71167bd94577936",
      "0x90c416e481f9944dd7afE0aA0e78e16780580bAC",
      "0x4f822bb4fAC4B2b6630bdF412E8158c15bd65aae",
      "0xB4076feC6a847622581cdfe9a8381e6e6168f597",
      "0x9c6550109D19a9a9B4568FD63b633F162588A53f",
      "0x450c8C20E62E0d6D91456A79367cC9dBEbB03272",
      "0xd85B3541370346B99F5C43B1848eB82BbB2ec3b7",
      "0x82E6e9473928d3108cC891D27B533914e014A8BD",
      "0x21b3De814B091aAaA340550d24440709E32e0c06",
      "0xA521BAC16af43F2E9A82Cd9BB4F5E328863EC6ac",
      "0xb669e9eCc9132c03B0708e9da76A4f00a30A935b",
      "0x33B1ce5357959ec0043e0d77556a5093AB347862",
      "0x9818DBC159BCC58C7feA87E82E738BDb0fcF03F8",
      "0x38421c898cfC5883ddCEC1247EA3f7Ff087Dd6ca",
      "0xe27fF38C1Edeb794ac38867D15620F63f12159e3",
      "0x5eA56c35eB281Ce7810faBFA793dd57482d4C913",
      "0xD9594d67fe240c37508Be5038443D8D4596EFCE0",
      "0x6e26847B83DdAc8a8aA689a441c5Bf168ee5342C",
      "0x0695FdDF2154cc8f097DB36c4bbde79265D0Ad71",
      "0xEd77fBD612b5E88a0De4BbB369F90278B87e887A",
      "0xc642A4b180CCBD0BEaC32d221c6faa1b7890B905",
      "0xCd2AFcCd6EA22a59235FD99260754A5Df136a22b",
      "0x4Daf3470DBA87DA934D22048ef416D6428EFFd1A",
      "0xcD4d0C621B577FC6477B83Fb3e4653668bb3F4C2",
      "0x2557794Bf452ec0a9cB923B03b2D2fb550E17357",
      "0x477763584467fEeAD3B77E0623Ec04153552D3bb",
      "0xA36362a58bB0B52932fa8B23733b459A6a242D65",
      "0xfaeb6d74bf4AA6fa096EC02f4C8C0a6C4EA6598D",
      "0x67Bc83836777dbAe169CFf9CB31a5d2bEAdEeCAb",
      "0xe2abD1E57c8D6f0D21645a8a0Af6C4251a4395f5"
    ],
    "https://storage.googleapis.com/myproject845.appspot.com/nftJson/"
  ],
  "numDeployments": 1,
  "solcInputHash": "a336e1889e22165bfe93c91e877940f8",
  "bytecode": "0x60a06040523480156200001157600080fd5b5060405162002d2a38038062002d2a83398101604081905262000034916200038a565b604080518082018252600a81526910985854da5915195cdd60b21b602080830191825283518085019094526004845263109054d560e21b908401528151919291620000829160009162000253565b5080516200009890600190602084019062000253565b50508251905080620000df5760405162461bcd60e51b815260206004820152600c60248201526b656d7074792061646d696e7360a01b604482015260640160405180910390fd5b3360601b6001600160601b031916608052620001046000620000fe3390565b6200019f565b60005b818110156200017f576200016a7fa49807205ce4d355092ef5a8a18f56e8913cf4a201fbe287825b095693c217758583815181106200015657634e487b7160e01b600052603260045260246000fd5b60200260200101516200019f60201b60201c565b806200017681620004eb565b91505062000107565b5081516200019590600b90602085019062000253565b5050505062000529565b620001ab8282620001af565b5050565b6000828152600a602090815260408083206001600160a01b038516845290915290205460ff16620001ab576000828152600a602090815260408083206001600160a01b03851684529091529020805460ff191660011790556200020f3390565b6001600160a01b0316816001600160a01b0316837f2f8788117e7eff1d82e926ec794901d17c78024a50270940304540a733656f0d60405160405180910390a45050565b8280546200026190620004ae565b90600052602060002090601f016020900481019282620002855760008555620002d0565b82601f10620002a057805160ff1916838001178555620002d0565b82800160010185558215620002d0579182015b82811115620002d0578251825591602001919060010190620002b3565b50620002de929150620002e2565b5090565b5b80821115620002de5760008155600101620002e3565b600082601f8301126200030a578081fd5b81516001600160401b0381111562000326576200032662000513565b60206200033c601f8301601f191682016200047b565b828152858284870101111562000350578384fd5b835b838110156200036f57858101830151828201840152820162000352565b838111156200038057848385840101525b5095945050505050565b600080604083850312156200039d578182fd5b82516001600160401b0380821115620003b4578384fd5b818501915085601f830112620003c8578384fd5b8151602082821115620003df57620003df62000513565b8160051b620003f08282016200047b565b8381528281019086840183880185018c10156200040b57898afd5b8997505b858810156200044757805193506001600160a01b03841684146200043157898afd5b838352600197909701969184019184016200040f565b50928901519297509194505050508082111562000462578283fd5b506200047185828601620002f9565b9150509250929050565b604051601f8201601f191681016001600160401b0381118282101715620004a657620004a662000513565b604052919050565b600181811c90821680620004c357607f821691505b60208210811415620004e557634e487b7160e01b600052602260045260246000fd5b50919050565b60006000198214156200050c57634e487b7160e01b81526011600452602481fd5b5060010190565b634e487b7160e01b600052604160045260246000fd5b60805160601c6127db6200054f600039600081816103950152610c7601526127db6000f3fe608060405234801561001057600080fd5b50600436106102065760003560e01c806384ef8ffc1161011a578063b88d4fde116100ad578063d547741f1161007c578063d547741f14610467578063d94ca6901461047a578063e58306f91461049a578063e985e9c5146104ad578063f17e48ec146104e957600080fd5b8063b88d4fde1461041b578063badb97ff1461042e578063c87b56dd14610441578063cbc884701461045457600080fd5b80639c54df64116100e95780639c54df64146103e55780639cb8a26a146103f8578063a217fddf14610400578063a22cb4651461040857600080fd5b806384ef8ffc1461039057806391d14854146103b7578063931688cb146103ca57806395d89b41146103dd57600080fd5b80632f2ff15d1161019d57806342842e0e1161016c57806342842e0e146103315780634f6ccce7146103445780636352211e1461035757806370a082311461036a57806377da56011461037d57600080fd5b80632f2ff15d146102e55780632f745c59146102f857806336568abe1461030b5780633709c0c11461031e57600080fd5b806318160ddd116101d957806318160ddd1461028857806323b872dd1461029a578063248a9ca3146102ad5780632a0acc6a146102d057600080fd5b806301ffc9a71461020b57806306fdde0314610233578063081812fc14610248578063095ea7b314610273575b600080fd5b61021e6102193660046122c8565b6104fc565b60405190151581526020015b60405180910390f35b61023b61050d565b60405161022a9190612565565b61025b61025636600461228e565b61059f565b6040516001600160a01b03909116815260200161022a565b61028661028136600461218a565b610639565b005b6008545b60405190815260200161022a565b6102866102a8366004612040565b61074f565b61028c6102bb36600461228e565b6000908152600a602052604090206001015490565b61028c60008051602061278683398151915281565b6102866102f33660046122a6565b610780565b61028c61030636600461218a565b6107a6565b6102866103193660046122a6565b61083c565b61028661032c3660046121e5565b6108ba565b61028661033f366004612040565b61090d565b61028c61035236600461228e565b610928565b61025b61036536600461228e565b6109c9565b61028c610378366004611ff4565b610a40565b61028661038b366004612225565b610ac7565b61025b7f000000000000000000000000000000000000000000000000000000000000000081565b61021e6103c53660046122a6565b610b91565b6102866103d8366004612300565b610bbc565b61023b610be1565b6102866103f33660046121e5565b610bf0565b610286610c68565b61028c600081565b610286610416366004612150565b610ca0565b61028661042936600461207b565b610cab565b61028661043c36600461228e565b610cdd565b61023b61044f36600461228e565b610cff565b610286610462366004612225565b610d98565b6102866104753660046122a6565b610e99565b61048d6104883660046121b3565b610ebf565b60405161022a9190612521565b6102866104a836600461218a565b610fd9565b61021e6104bb36600461200e565b6001600160a01b03918216600090815260056020908152604080832093909416825291909152205460ff1690565b6102866104f736600461218a565b610ffc565b600061050782611038565b92915050565b60606000805461051c906126c0565b80601f0160208091040260200160405190810160405280929190818152602001828054610548906126c0565b80156105955780601f1061056a57610100808354040283529160200191610595565b820191906000526020600020905b81548152906001019060200180831161057857829003601f168201915b5050505050905090565b6000818152600260205260408120546001600160a01b031661061d5760405162461bcd60e51b815260206004820152602c60248201527f4552433732313a20617070726f76656420717565727920666f72206e6f6e657860448201526b34b9ba32b73a103a37b5b2b760a11b60648201526084015b60405180910390fd5b506000908152600460205260409020546001600160a01b031690565b6000610644826109c9565b9050806001600160a01b0316836001600160a01b031614156106b25760405162461bcd60e51b815260206004820152602160248201527f4552433732313a20617070726f76616c20746f2063757272656e74206f776e656044820152603960f91b6064820152608401610614565b336001600160a01b03821614806106ce57506106ce81336104bb565b6107405760405162461bcd60e51b815260206004820152603860248201527f4552433732313a20617070726f76652063616c6c6572206973206e6f74206f7760448201527f6e6572206e6f7220617070726f76656420666f7220616c6c00000000000000006064820152608401610614565b61074a838361105d565b505050565b61075933826110cb565b6107755760405162461bcd60e51b8152600401610614906125ca565b61074a8383836111c2565b6000828152600a602052604090206001015461079c8133611369565b61074a83836113cd565b60006107b183610a40565b82106108135760405162461bcd60e51b815260206004820152602b60248201527f455243373231456e756d657261626c653a206f776e657220696e646578206f7560448201526a74206f6620626f756e647360a81b6064820152608401610614565b506001600160a01b03919091166000908152600660209081526040808320938352929052205490565b6001600160a01b03811633146108ac5760405162461bcd60e51b815260206004820152602f60248201527f416363657373436f6e74726f6c3a2063616e206f6e6c792072656e6f756e636560448201526e103937b632b9903337b91039b2b63360891b6064820152608401610614565b6108b68282611453565b5050565b8060005b81811015610907576108f58484838181106108e957634e487b7160e01b600052603260045260246000fd5b905060200201356114ba565b806108ff816126fb565b9150506108be565b50505050565b61074a83838360405180602001604052806000815250610cab565b600061093360085490565b82106109965760405162461bcd60e51b815260206004820152602c60248201527f455243373231456e756d657261626c653a20676c6f62616c20696e646578206f60448201526b7574206f6620626f756e647360a01b6064820152608401610614565b600882815481106109b757634e487b7160e01b600052603260045260246000fd5b90600052602060002001549050919050565b6000818152600260205260408120546001600160a01b0316806105075760405162461bcd60e51b815260206004820152602960248201527f4552433732313a206f776e657220717565727920666f72206e6f6e657869737460448201526832b73a103a37b5b2b760b91b6064820152608401610614565b60006001600160a01b038216610aab5760405162461bcd60e51b815260206004820152602a60248201527f4552433732313a2062616c616e636520717565727920666f7220746865207a65604482015269726f206164647265737360b01b6064820152608401610614565b506001600160a01b031660009081526003602052604090205490565b82818114610b085760405162461bcd60e51b815260206004820152600e60248201526d0e6d2f4ca40dcdee840dac2e8c6d60931b6044820152606401610614565b60005b81811015610b8957610b77868683818110610b3657634e487b7160e01b600052603260045260246000fd5b9050602002016020810190610b4b9190611ff4565b858584818110610b6b57634e487b7160e01b600052603260045260246000fd5b90506020020135611561565b80610b81816126fb565b915050610b0b565b505050505050565b6000918252600a602090815260408084206001600160a01b0393909316845291905290205460ff1690565b600080516020612786833981519152610bd58133611369565b610907600b8484611ef5565b60606001805461051c906126c0565b6000610bfc8133611369565b8160005b81811015610c6157610c4f600080516020612786833981519152868684818110610c3a57634e487b7160e01b600052603260045260246000fd5b90506020020160208101906102f39190611ff4565b80610c59816126fb565b915050610c00565b5050505050565b6000610c748133611369565b7f00000000000000000000000000000000000000000000000000000000000000006001600160a01b0316ff5b6108b633838361157b565b610cb533836110cb565b610cd15760405162461bcd60e51b8152600401610614906125ca565b6109078484848461164a565b600080516020612786833981519152610cf68133611369565b6108b6826114ba565b6000818152600260205260409020546060906001600160a01b0316610d665760405162461bcd60e51b815260206004820152601b60248201527f717565727920666f72206e6f6e6578697374656e7420746f6b656e00000000006044820152606401610614565b600b610d718361167d565b604051602001610d829291906123b5565b6040516020818303038152906040529050919050565b82818114610dd95760405162461bcd60e51b815260206004820152600e60248201526d0e6d2f4ca40dcdee840dac2e8c6d60931b6044820152606401610614565b60005b81811015610b8957610e87610e16858584818110610e0a57634e487b7160e01b600052603260045260246000fd5b905060200201356109c9565b878784818110610e3657634e487b7160e01b600052603260045260246000fd5b9050602002016020810190610e4b9190611ff4565b868685818110610e6b57634e487b7160e01b600052603260045260246000fd5b905060200201356040518060200160405280600081525061164a565b80610e91816126fb565b915050610ddc565b6000828152600a6020526040902060010154610eb58133611369565b61074a8383611453565b60606000610ecd8385612647565b905080610edd5760609150610fd1565b6000610ee98483612666565b9050610ef486610a40565b821115610f0757610f0486610a40565b91505b808211610f175760609250610fcf565b6000610f238284612666565b90508067ffffffffffffffff811115610f4c57634e487b7160e01b600052604160045260246000fd5b604051908082528060200260200182016040528015610f75578160200160208202803683370190505b50935060005b81811015610fcc57610f9188610306838661261b565b858281518110610fb157634e487b7160e01b600052603260045260246000fd5b6020908102919091010152610fc5816126fb565b9050610f7b565b50505b505b509392505050565b600080516020612786833981519152610ff28133611369565b61074a8383611561565b6000805160206127868339815191526110158133611369565b61074a611021836109c9565b84846040518060200160405280600081525061164a565b60006001600160e01b03198216637965db0b60e01b1480610507575061050782611797565b600081815260046020526040902080546001600160a01b0319166001600160a01b0384169081179091558190611092826109c9565b6001600160a01b03167f8c5be1e5ebec7d5bd14f71427d1e84f3dd0314c0f7b2291e5b200ac8c7c3b92560405160405180910390a45050565b6000818152600260205260408120546001600160a01b03166111445760405162461bcd60e51b815260206004820152602c60248201527f4552433732313a206f70657261746f7220717565727920666f72206e6f6e657860448201526b34b9ba32b73a103a37b5b2b760a11b6064820152608401610614565b600061114f836109c9565b9050806001600160a01b0316846001600160a01b0316148061118a5750836001600160a01b031661117f8461059f565b6001600160a01b0316145b806111ba57506001600160a01b0380821660009081526005602090815260408083209388168352929052205460ff165b949350505050565b826001600160a01b03166111d5826109c9565b6001600160a01b0316146112395760405162461bcd60e51b815260206004820152602560248201527f4552433732313a207472616e736665722066726f6d20696e636f72726563742060448201526437bbb732b960d91b6064820152608401610614565b6001600160a01b03821661129b5760405162461bcd60e51b8152602060048201526024808201527f4552433732313a207472616e7366657220746f20746865207a65726f206164646044820152637265737360e01b6064820152608401610614565b6112a68383836117bc565b6112b160008261105d565b6001600160a01b03831660009081526003602052604081208054600192906112da908490612666565b90915550506001600160a01b038216600090815260036020526040812080546001929061130890849061261b565b909155505060008181526002602052604080822080546001600160a01b0319166001600160a01b0386811691821790925591518493918716917fddf252ad1be2c89b69c2b068fc378daa952ba7f163c4a11628f55a4df523b3ef91a4505050565b6113738282610b91565b6108b65761138b816001600160a01b03166014611874565b611396836020611874565b6040516020016113a792919061246f565b60408051601f198184030181529082905262461bcd60e51b825261061491600401612565565b6113d78282610b91565b6108b6576000828152600a602090815260408083206001600160a01b03851684529091529020805460ff1916600117905561140f3390565b6001600160a01b0316816001600160a01b0316837f2f8788117e7eff1d82e926ec794901d17c78024a50270940304540a733656f0d60405160405180910390a45050565b61145d8282610b91565b156108b6576000828152600a602090815260408083206001600160a01b0385168085529252808320805460ff1916905551339285917ff6391f5c32d9c69d2a47ea670b442974b53935d1edc7fd64eb21e047a839171b9190a45050565b60006114c5826109c9565b90506114d3816000846117bc565b6114de60008361105d565b6001600160a01b0381166000908152600360205260408120805460019290611507908490612666565b909155505060008281526002602052604080822080546001600160a01b0319169055518391906001600160a01b038416907fddf252ad1be2c89b69c2b068fc378daa952ba7f163c4a11628f55a4df523b3ef908390a45050565b6108b6828260405180602001604052806000815250611a5d565b816001600160a01b0316836001600160a01b031614156115dd5760405162461bcd60e51b815260206004820152601960248201527f4552433732313a20617070726f766520746f2063616c6c6572000000000000006044820152606401610614565b6001600160a01b03838116600081815260056020908152604080832094871680845294825291829020805460ff191686151590811790915591519182527f17307eab39ab6107e8899845ad3d59bd9653f200f220920489ca2b5937696c31910160405180910390a3505050565b6116558484846111c2565b61166184848484611a90565b6109075760405162461bcd60e51b815260040161061490612578565b6060816116a15750506040805180820190915260018152600360fc1b602082015290565b8160005b81156116cb57806116b5816126fb565b91506116c49050600a83612633565b91506116a5565b60008167ffffffffffffffff8111156116f457634e487b7160e01b600052604160045260246000fd5b6040519080825280601f01601f19166020018201604052801561171e576020820181803683370190505b5090505b84156111ba57611733600183612666565b9150611740600a86612716565b61174b90603061261b565b60f81b81838151811061176e57634e487b7160e01b600052603260045260246000fd5b60200101906001600160f81b031916908160001a905350611790600a86612633565b9450611722565b60006001600160e01b0319821663780e9d6360e01b1480610507575061050782611b9d565b6001600160a01b0383166118175761181281600880546000838152600960205260408120829055600182018355919091527ff3f7a9fe364faab93b216da50a3214154f22a0a2b415b23a84c8169e8b636ee30155565b61183a565b816001600160a01b0316836001600160a01b03161461183a5761183a8382611bed565b6001600160a01b0382166118515761074a81611c8a565b826001600160a01b0316826001600160a01b03161461074a5761074a8282611d63565b60606000611883836002612647565b61188e90600261261b565b67ffffffffffffffff8111156118b457634e487b7160e01b600052604160045260246000fd5b6040519080825280601f01601f1916602001820160405280156118de576020820181803683370190505b509050600360fc1b8160008151811061190757634e487b7160e01b600052603260045260246000fd5b60200101906001600160f81b031916908160001a905350600f60fb1b8160018151811061194457634e487b7160e01b600052603260045260246000fd5b60200101906001600160f81b031916908160001a9053506000611968846002612647565b61197390600161261b565b90505b6001811115611a07576f181899199a1a9b1b9c1cb0b131b232b360811b85600f16601081106119b557634e487b7160e01b600052603260045260246000fd5b1a60f81b8282815181106119d957634e487b7160e01b600052603260045260246000fd5b60200101906001600160f81b031916908160001a90535060049490941c93611a00816126a9565b9050611976565b508315611a565760405162461bcd60e51b815260206004820181905260248201527f537472696e67733a20686578206c656e67746820696e73756666696369656e746044820152606401610614565b9392505050565b611a678383611da7565b611a746000848484611a90565b61074a5760405162461bcd60e51b815260040161061490612578565b60006001600160a01b0384163b15611b9257604051630a85bd0160e11b81526001600160a01b0385169063150b7a0290611ad49033908990889088906004016124e4565b602060405180830381600087803b158015611aee57600080fd5b505af1925050508015611b1e575060408051601f3d908101601f19168201909252611b1b918101906122e4565b60015b611b78573d808015611b4c576040519150601f19603f3d011682016040523d82523d6000602084013e611b51565b606091505b508051611b705760405162461bcd60e51b815260040161061490612578565b805181602001fd5b6001600160e01b031916630a85bd0160e11b1490506111ba565b506001949350505050565b60006001600160e01b031982166380ac58cd60e01b1480611bce57506001600160e01b03198216635b5e139f60e01b145b8061050757506301ffc9a760e01b6001600160e01b0319831614610507565b60006001611bfa84610a40565b611c049190612666565b600083815260076020526040902054909150808214611c57576001600160a01b03841660009081526006602090815260408083208584528252808320548484528184208190558352600790915290208190555b5060009182526007602090815260408084208490556001600160a01b039094168352600681528383209183525290812055565b600854600090611c9c90600190612666565b60008381526009602052604081205460088054939450909284908110611cd257634e487b7160e01b600052603260045260246000fd5b906000526020600020015490508060088381548110611d0157634e487b7160e01b600052603260045260246000fd5b6000918252602080832090910192909255828152600990915260408082208490558582528120556008805480611d4757634e487b7160e01b600052603160045260246000fd5b6001900381819060005260206000200160009055905550505050565b6000611d6e83610a40565b6001600160a01b039093166000908152600660209081526040808320868452825280832085905593825260079052919091209190915550565b6001600160a01b038216611dfd5760405162461bcd60e51b815260206004820181905260248201527f4552433732313a206d696e7420746f20746865207a65726f20616464726573736044820152606401610614565b6000818152600260205260409020546001600160a01b031615611e625760405162461bcd60e51b815260206004820152601c60248201527f4552433732313a20746f6b656e20616c7265616479206d696e746564000000006044820152606401610614565b611e6e600083836117bc565b6001600160a01b0382166000908152600360205260408120805460019290611e9790849061261b565b909155505060008181526002602052604080822080546001600160a01b0319166001600160a01b03861690811790915590518392907fddf252ad1be2c89b69c2b068fc378daa952ba7f163c4a11628f55a4df523b3ef908290a45050565b828054611f01906126c0565b90600052602060002090601f016020900481019282611f235760008555611f69565b82601f10611f3c5782800160ff19823516178555611f69565b82800160010185558215611f69579182015b82811115611f69578235825591602001919060010190611f4e565b50611f75929150611f79565b5090565b5b80821115611f755760008155600101611f7a565b80356001600160a01b0381168114611fa557600080fd5b919050565b60008083601f840112611fbb578081fd5b50813567ffffffffffffffff811115611fd2578182fd5b6020830191508360208260051b8501011115611fed57600080fd5b9250929050565b600060208284031215612005578081fd5b611a5682611f8e565b60008060408385031215612020578081fd5b61202983611f8e565b915061203760208401611f8e565b90509250929050565b600080600060608486031215612054578081fd5b61205d84611f8e565b925061206b60208501611f8e565b9150604084013590509250925092565b60008060008060808587031215612090578081fd5b61209985611f8e565b93506120a760208601611f8e565b925060408501359150606085013567ffffffffffffffff808211156120ca578283fd5b818701915087601f8301126120dd578283fd5b8135818111156120ef576120ef612756565b604051601f8201601f19908116603f0116810190838211818310171561211757612117612756565b816040528281528a602084870101111561212f578586fd5b82602086016020830137918201602001949094529598949750929550505050565b60008060408385031215612162578182fd5b61216b83611f8e565b91506020830135801515811461217f578182fd5b809150509250929050565b6000806040838503121561219c578182fd5b6121a583611f8e565b946020939093013593505050565b6000806000606084860312156121c7578283fd5b6121d084611f8e565b95602085013595506040909401359392505050565b600080602083850312156121f7578182fd5b823567ffffffffffffffff81111561220d578283fd5b61221985828601611faa565b90969095509350505050565b6000806000806040858703121561223a578384fd5b843567ffffffffffffffff80821115612251578586fd5b61225d88838901611faa565b90965094506020870135915080821115612275578384fd5b5061228287828801611faa565b95989497509550505050565b60006020828403121561229f578081fd5b5035919050565b600080604083850312156122b8578182fd5b8235915061203760208401611f8e565b6000602082840312156122d9578081fd5b8135611a568161276c565b6000602082840312156122f5578081fd5b8151611a568161276c565b60008060208385031215612312578182fd5b823567ffffffffffffffff80821115612329578384fd5b818501915085601f83011261233c578384fd5b81358181111561234a578485fd5b86602082850101111561235b578485fd5b60209290920196919550909350505050565b6000815180845261238581602086016020860161267d565b601f01601f19169290920160200192915050565b600081516123ab81856020860161267d565b9290920192915050565b600080845482600182811c9150808316806123d157607f831692505b60208084108214156123f157634e487b7160e01b87526022600452602487fd5b818015612405576001811461241657612442565b60ff19861689528489019650612442565b60008b815260209020885b8681101561243a5781548b820152908501908301612421565b505084890196505b5050505050506124666124558286612399565b64173539b7b760d91b815260050190565b95945050505050565b7f416363657373436f6e74726f6c3a206163636f756e74200000000000000000008152600083516124a781601785016020880161267d565b7001034b99036b4b9b9b4b733903937b6329607d1b60179184019182015283516124d881602884016020880161267d565b01602801949350505050565b6001600160a01b03858116825284166020820152604081018390526080606082018190526000906125179083018461236d565b9695505050505050565b6020808252825182820181905260009190848201906040850190845b818110156125595783518352928401929184019160010161253d565b50909695505050505050565b602081526000611a56602083018461236d565b60208082526032908201527f4552433732313a207472616e7366657220746f206e6f6e20455243373231526560408201527131b2b4bb32b91034b6b83632b6b2b73a32b960711b606082015260800190565b60208082526031908201527f4552433732313a207472616e736665722063616c6c6572206973206e6f74206f6040820152701ddb995c881b9bdc88185c1c1c9bdd9959607a1b606082015260800190565b6000821982111561262e5761262e61272a565b500190565b60008261264257612642612740565b500490565b60008160001904831182151516156126615761266161272a565b500290565b6000828210156126785761267861272a565b500390565b60005b83811015612698578181015183820152602001612680565b838111156109075750506000910152565b6000816126b8576126b861272a565b506000190190565b600181811c908216806126d457607f821691505b602082108114156126f557634e487b7160e01b600052602260045260246000fd5b50919050565b600060001982141561270f5761270f61272a565b5060010190565b60008261272557612725612740565b500690565b634e487b7160e01b600052601160045260246000fd5b634e487b7160e01b600052601260045260246000fd5b634e487b7160e01b600052604160045260246000fd5b6001600160e01b03198116811461278257600080fd5b5056fea49807205ce4d355092ef5a8a18f56e8913cf4a201fbe287825b095693c21775a2646970667358221220572a54c5eda68f4d4dc09a371711428a82e4040d1bae3a45a6aa9281f6aaccfd64736f6c63430008040033",
  "devdoc": {
    "author": "Justa Liang",
    "kind": "dev",
    "methods": {
      "addAdmins(address[])": {
        "details": "Add admin roles"
      },
      "adminBatchBurn(uint256[])": {
        "details": "Admin batch burn"
      },
      "adminBatchMint(address[],uint256[])": {
        "details": "Admin batch mint"
      },
      "adminBatchTransfer(address[],uint256[])": {
        "details": "Admin batch transfer"
      },
      "adminBurn(uint256)": {
        "details": "Admin can burn any token"
      },
      "adminMint(address,uint256)": {
        "details": "Admin mint"
      },
      "adminTransfer(address,uint256)": {
        "details": "Admin can transfer any token"
      },
      "approve(address,uint256)": {
        "details": "See {IERC721-approve}."
      },
      "balanceOf(address)": {
        "details": "See {IERC721-balanceOf}."
      },
      "constructor": {
        "details": "Setup ERC721 and AccessControl"
      },
      "getApproved(uint256)": {
        "details": "See {IERC721-getApproved}."
      },
      "getRoleAdmin(bytes32)": {
        "details": "Returns the admin role that controls `role`. See {grantRole} and {revokeRole}. To change a role's admin, use {_setRoleAdmin}."
      },
      "grantRole(bytes32,address)": {
        "details": "Grants `role` to `account`. If `account` had not been already granted `role`, emits a {RoleGranted} event. Requirements: - the caller must have ``role``'s admin role."
      },
      "hasRole(bytes32,address)": {
        "details": "Returns `true` if `account` has been granted `role`."
      },
      "isApprovedForAll(address,address)": {
        "details": "See {IERC721-isApprovedForAll}."
      },
      "name()": {
        "details": "See {IERC721Metadata-name}."
      },
      "ownerOf(uint256)": {
        "details": "See {IERC721-ownerOf}."
      },
      "renounceRole(bytes32,address)": {
        "details": "Revokes `role` from the calling account. Roles are often managed via {grantRole} and {revokeRole}: this function's purpose is to provide a mechanism for accounts to lose their privileges if they are compromised (such as when a trusted device is misplaced). If the calling account had been revoked `role`, emits a {RoleRevoked} event. Requirements: - the caller must be `account`."
      },
      "revokeRole(bytes32,address)": {
        "details": "Revokes `role` from `account`. If `account` had been granted `role`, emits a {RoleRevoked} event. Requirements: - the caller must have ``role``'s admin role."
      },
      "safeTransferFrom(address,address,uint256)": {
        "details": "See {IERC721-safeTransferFrom}."
      },
      "safeTransferFrom(address,address,uint256,bytes)": {
        "details": "See {IERC721-safeTransferFrom}."
      },
      "selfDestruct()": {
        "details": "Self-destruct"
      },
      "setApprovalForAll(address,bool)": {
        "details": "See {IERC721-setApprovalForAll}."
      },
      "supportsInterface(bytes4)": {
        "details": "Override interface"
      },
      "symbol()": {
        "details": "See {IERC721Metadata-symbol}."
      },
      "tokenByIndex(uint256)": {
        "details": "See {IERC721Enumerable-tokenByIndex}."
      },
      "tokenOfOwnerByIndex(address,uint256)": {
        "details": "See {IERC721Enumerable-tokenOfOwnerByIndex}."
      },
      "tokenURI(uint256)": {
        "details": "Override ERC721.tokenURI"
      },
      "totalSupply()": {
        "details": "See {IERC721Enumerable-totalSupply}."
      },
      "transferFrom(address,address,uint256)": {
        "details": "See {IERC721-transferFrom}."
      },
      "updateBaseURI(string)": {
        "details": "Update baseURI"
      }
    },
    "stateVariables": {
      "ADMIN": {
        "details": "Admin role code"
      },
      "__baseURI": {
        "details": "base URI"
      },
      "defaultAdmin": {
        "details": "deployer as default admin"
      }
    },
    "title": "ERC721URIStorage with adminTransfer and adminBurn",
    "version": 1
  },
  "userdoc": {
    "kind": "user",
    "methods": {
      "tokenOfOwnerByPage(address,uint256,uint256)": {
        "notice": "Token of owner by page and amount (ex: (1, 10) will return first page of 10 token IDs)"
      }
    },
    "notice": "For BaaSid test",
    "version": 1
  },
  "storageLayout": {
    "storage": [
      {
        "astId": 1203,
        "contract": "contracts/ERC721Admin.sol:ERC721Admin",
        "label": "_name",
        "offset": 0,
        "slot": "0",
        "type": "t_string_storage"
      },
      {
        "astId": 1205,
        "contract": "contracts/ERC721Admin.sol:ERC721Admin",
        "label": "_symbol",
        "offset": 0,
        "slot": "1",
        "type": "t_string_storage"
      },
      {
        "astId": 1209,
        "contract": "contracts/ERC721Admin.sol:ERC721Admin",
        "label": "_owners",
        "offset": 0,
        "slot": "2",
        "type": "t_mapping(t_uint256,t_address)"
      },
      {
        "astId": 1213,
        "contract": "contracts/ERC721Admin.sol:ERC721Admin",
        "label": "_balances",
        "offset": 0,
        "slot": "3",
        "type": "t_mapping(t_address,t_uint256)"
      },
      {
        "astId": 1217,
        "contract": "contracts/ERC721Admin.sol:ERC721Admin",
        "label": "_tokenApprovals",
        "offset": 0,
        "slot": "4",
        "type": "t_mapping(t_uint256,t_address)"
      },
      {
        "astId": 1223,
        "contract": "contracts/ERC721Admin.sol:ERC721Admin",
        "label": "_operatorApprovals",
        "offset": 0,
        "slot": "5",
        "type": "t_mapping(t_address,t_mapping(t_address,t_bool))"
      },
      {
        "astId": 2192,
        "contract": "contracts/ERC721Admin.sol:ERC721Admin",
        "label": "_ownedTokens",
        "offset": 0,
        "slot": "6",
        "type": "t_mapping(t_address,t_mapping(t_uint256,t_uint256))"
      },
      {
        "astId": 2196,
        "contract": "contracts/ERC721Admin.sol:ERC721Admin",
        "label": "_ownedTokensIndex",
        "offset": 0,
        "slot": "7",
        "type": "t_mapping(t_uint256,t_uint256)"
      },
      {
        "astId": 2199,
        "contract": "contracts/ERC721Admin.sol:ERC721Admin",
        "label": "_allTokens",
        "offset": 0,
        "slot": "8",
        "type": "t_array(t_uint256)dyn_storage"
      },
      {
        "astId": 2203,
        "contract": "contracts/ERC721Admin.sol:ERC721Admin",
        "label": "_allTokensIndex",
        "offset": 0,
        "slot": "9",
        "type": "t_mapping(t_uint256,t_uint256)"
      },
      {
        "astId": 24,
        "contract": "contracts/ERC721Admin.sol:ERC721Admin",
        "label": "_roles",
        "offset": 0,
        "slot": "10",
        "type": "t_mapping(t_bytes32,t_struct(RoleData)19_storage)"
      },
      {
        "astId": 3216,
        "contract": "contracts/ERC721Admin.sol:ERC721Admin",
        "label": "__baseURI",
        "offset": 0,
        "slot": "11",
        "type": "t_string_storage"
      }
    ],
    "types": {
      "t_address": {
        "encoding": "inplace",
        "label": "address",
        "numberOfBytes": "20"
      },
      "t_array(t_uint256)dyn_storage": {
        "base": "t_uint256",
        "encoding": "dynamic_array",
        "label": "uint256[]",
        "numberOfBytes": "32"
      },
      "t_bool": {
        "encoding": "inplace",
        "label": "bool",
        "numberOfBytes": "1"
      },
      "t_bytes32": {
        "encoding": "inplace",
        "label": "bytes32",
        "numberOfBytes": "32"
      },
      "t_mapping(t_address,t_bool)": {
        "encoding": "mapping",
        "key": "t_address",
        "label": "mapping(address => bool)",
        "numberOfBytes": "32",
        "value": "t_bool"
      },
      "t_mapping(t_address,t_mapping(t_address,t_bool))": {
        "encoding": "mapping",
        "key": "t_address",
        "label": "mapping(address => mapping(address => bool))",
        "numberOfBytes": "32",
        "value": "t_mapping(t_address,t_bool)"
      },
      "t_mapping(t_address,t_mapping(t_uint256,t_uint256))": {
        "encoding": "mapping",
        "key": "t_address",
        "label": "mapping(address => mapping(uint256 => uint256))",
        "numberOfBytes": "32",
        "value": "t_mapping(t_uint256,t_uint256)"
      },
      "t_mapping(t_address,t_uint256)": {
        "encoding": "mapping",
        "key": "t_address",
        "label": "mapping(address => uint256)",
        "numberOfBytes": "32",
        "value": "t_uint256"
      },
      "t_mapping(t_bytes32,t_struct(RoleData)19_storage)": {
        "encoding": "mapping",
        "key": "t_bytes32",
        "label": "mapping(bytes32 => struct AccessControl.RoleData)",
        "numberOfBytes": "32",
        "value": "t_struct(RoleData)19_storage"
      },
      "t_mapping(t_uint256,t_address)": {
        "encoding": "mapping",
        "key": "t_uint256",
        "label": "mapping(uint256 => address)",
        "numberOfBytes": "32",
        "value": "t_address"
      },
      "t_mapping(t_uint256,t_uint256)": {
        "encoding": "mapping",
        "key": "t_uint256",
        "label": "mapping(uint256 => uint256)",
        "numberOfBytes": "32",
        "value": "t_uint256"
      },
      "t_string_storage": {
        "encoding": "bytes",
        "label": "string",
        "numberOfBytes": "32"
      },
      "t_struct(RoleData)19_storage": {
        "encoding": "inplace",
        "label": "struct AccessControl.RoleData",
        "members": [
          {
            "astId": 16,
            "contract": "contracts/ERC721Admin.sol:ERC721Admin",
            "label": "members",
            "offset": 0,
            "slot": "0",
            "type": "t_mapping(t_address,t_bool)"
          },
          {
            "astId": 18,
            "contract": "contracts/ERC721Admin.sol:ERC721Admin",
            "label": "adminRole",
            "offset": 0,
            "slot": "1",
            "type": "t_bytes32"
          }
        ],
        "numberOfBytes": "64"
      },
      "t_uint256": {
        "encoding": "inplace",
        "label": "uint256",
        "numberOfBytes": "32"
      }
    }
  }
}