{
  "address": "0x3Aa5ebB10DC797CAC828524e59A333d0A371443c",
  "abi": [
    {
      "inputs": [
        {
          "internalType": "address[]",
          "name": "admins",
          "type": "address[]"
        }
      ],
      "stateMutability": "nonpayable",
      "type": "constructor"
    },
    {
      "anonymous": false,
      "inputs": [
        {
          "indexed": true,
          "internalType": "address",
          "name": "owner",
          "type": "address"
        },
        {
          "indexed": true,
          "internalType": "address",
          "name": "approved",
          "type": "address"
        },
        {
          "indexed": true,
          "internalType": "uint256",
          "name": "tokenId",
          "type": "uint256"
        }
      ],
      "name": "Approval",
      "type": "event"
    },
    {
      "anonymous": false,
      "inputs": [
        {
          "indexed": true,
          "internalType": "address",
          "name": "owner",
          "type": "address"
        },
        {
          "indexed": true,
          "internalType": "address",
          "name": "operator",
          "type": "address"
        },
        {
          "indexed": false,
          "internalType": "bool",
          "name": "approved",
          "type": "bool"
        }
      ],
      "name": "ApprovalForAll",
      "type": "event"
    },
    {
      "anonymous": false,
      "inputs": [
        {
          "indexed": true,
          "internalType": "bytes32",
          "name": "role",
          "type": "bytes32"
        },
        {
          "indexed": true,
          "internalType": "bytes32",
          "name": "previousAdminRole",
          "type": "bytes32"
        },
        {
          "indexed": true,
          "internalType": "bytes32",
          "name": "newAdminRole",
          "type": "bytes32"
        }
      ],
      "name": "RoleAdminChanged",
      "type": "event"
    },
    {
      "anonymous": false,
      "inputs": [
        {
          "indexed": true,
          "internalType": "bytes32",
          "name": "role",
          "type": "bytes32"
        },
        {
          "indexed": true,
          "internalType": "address",
          "name": "account",
          "type": "address"
        },
        {
          "indexed": true,
          "internalType": "address",
          "name": "sender",
          "type": "address"
        }
      ],
      "name": "RoleGranted",
      "type": "event"
    },
    {
      "anonymous": false,
      "inputs": [
        {
          "indexed": true,
          "internalType": "bytes32",
          "name": "role",
          "type": "bytes32"
        },
        {
          "indexed": true,
          "internalType": "address",
          "name": "account",
          "type": "address"
        },
        {
          "indexed": true,
          "internalType": "address",
          "name": "sender",
          "type": "address"
        }
      ],
      "name": "RoleRevoked",
      "type": "event"
    },
    {
      "anonymous": false,
      "inputs": [
        {
          "indexed": true,
          "internalType": "address",
          "name": "from",
          "type": "address"
        },
        {
          "indexed": true,
          "internalType": "address",
          "name": "to",
          "type": "address"
        },
        {
          "indexed": true,
          "internalType": "uint256",
          "name": "tokenId",
          "type": "uint256"
        }
      ],
      "name": "Transfer",
      "type": "event"
    },
    {
      "inputs": [],
      "name": "ADMIN",
      "outputs": [
        {
          "internalType": "bytes32",
          "name": "",
          "type": "bytes32"
        }
      ],
      "stateMutability": "view",
      "type": "function"
    },
    {
      "inputs": [],
      "name": "DEFAULT_ADMIN_ROLE",
      "outputs": [
        {
          "internalType": "bytes32",
          "name": "",
          "type": "bytes32"
        }
      ],
      "stateMutability": "view",
      "type": "function"
    },
    {
      "inputs": [
        {
          "internalType": "uint256",
          "name": "tokenId",
          "type": "uint256"
        }
      ],
      "name": "adminBurn",
      "outputs": [],
      "stateMutability": "nonpayable",
      "type": "function"
    },
    {
      "inputs": [
        {
          "internalType": "address",
          "name": "to",
          "type": "address"
        },
        {
          "internalType": "uint256",
          "name": "tokenId",
          "type": "uint256"
        }
      ],
      "name": "adminTransfer",
      "outputs": [],
      "stateMutability": "nonpayable",
      "type": "function"
    },
    {
      "inputs": [
        {
          "internalType": "address",
          "name": "to",
          "type": "address"
        },
        {
          "internalType": "uint256",
          "name": "tokenId",
          "type": "uint256"
        }
      ],
      "name": "approve",
      "outputs": [],
      "stateMutability": "nonpayable",
      "type": "function"
    },
    {
      "inputs": [
        {
          "internalType": "address",
          "name": "owner",
          "type": "address"
        }
      ],
      "name": "balanceOf",
      "outputs": [
        {
          "internalType": "uint256",
          "name": "",
          "type": "uint256"
        }
      ],
      "stateMutability": "view",
      "type": "function"
    },
    {
      "inputs": [],
      "name": "defaultAdmin",
      "outputs": [
        {
          "internalType": "address",
          "name": "",
          "type": "address"
        }
      ],
      "stateMutability": "view",
      "type": "function"
    },
    {
      "inputs": [
        {
          "internalType": "uint256",
          "name": "tokenId",
          "type": "uint256"
        }
      ],
      "name": "getApproved",
      "outputs": [
        {
          "internalType": "address",
          "name": "",
          "type": "address"
        }
      ],
      "stateMutability": "view",
      "type": "function"
    },
    {
      "inputs": [
        {
          "internalType": "bytes32",
          "name": "role",
          "type": "bytes32"
        }
      ],
      "name": "getRoleAdmin",
      "outputs": [
        {
          "internalType": "bytes32",
          "name": "",
          "type": "bytes32"
        }
      ],
      "stateMutability": "view",
      "type": "function"
    },
    {
      "inputs": [
        {
          "internalType": "bytes32",
          "name": "role",
          "type": "bytes32"
        },
        {
          "internalType": "address",
          "name": "account",
          "type": "address"
        }
      ],
      "name": "grantRole",
      "outputs": [],
      "stateMutability": "nonpayable",
      "type": "function"
    },
    {
      "inputs": [
        {
          "internalType": "bytes32",
          "name": "role",
          "type": "bytes32"
        },
        {
          "internalType": "address",
          "name": "account",
          "type": "address"
        }
      ],
      "name": "hasRole",
      "outputs": [
        {
          "internalType": "bool",
          "name": "",
          "type": "bool"
        }
      ],
      "stateMutability": "view",
      "type": "function"
    },
    {
      "inputs": [
        {
          "internalType": "address",
          "name": "owner",
          "type": "address"
        },
        {
          "internalType": "address",
          "name": "operator",
          "type": "address"
        }
      ],
      "name": "isApprovedForAll",
      "outputs": [
        {
          "internalType": "bool",
          "name": "",
          "type": "bool"
        }
      ],
      "stateMutability": "view",
      "type": "function"
    },
    {
      "inputs": [
        {
          "internalType": "address",
          "name": "to",
          "type": "address"
        },
        {
          "internalType": "uint256",
          "name": "tokenId",
          "type": "uint256"
        },
        {
          "internalType": "string",
          "name": "tokenURI",
          "type": "string"
        }
      ],
      "name": "mintTo",
      "outputs": [],
      "stateMutability": "nonpayable",
      "type": "function"
    },
    {
      "inputs": [],
      "name": "name",
      "outputs": [
        {
          "internalType": "string",
          "name": "",
          "type": "string"
        }
      ],
      "stateMutability": "view",
      "type": "function"
    },
    {
      "inputs": [
        {
          "internalType": "uint256",
          "name": "tokenId",
          "type": "uint256"
        }
      ],
      "name": "ownerOf",
      "outputs": [
        {
          "internalType": "address",
          "name": "",
          "type": "address"
        }
      ],
      "stateMutability": "view",
      "type": "function"
    },
    {
      "inputs": [
        {
          "internalType": "bytes32",
          "name": "role",
          "type": "bytes32"
        },
        {
          "internalType": "address",
          "name": "account",
          "type": "address"
        }
      ],
      "name": "renounceRole",
      "outputs": [],
      "stateMutability": "nonpayable",
      "type": "function"
    },
    {
      "inputs": [
        {
          "internalType": "bytes32",
          "name": "role",
          "type": "bytes32"
        },
        {
          "internalType": "address",
          "name": "account",
          "type": "address"
        }
      ],
      "name": "revokeRole",
      "outputs": [],
      "stateMutability": "nonpayable",
      "type": "function"
    },
    {
      "inputs": [
        {
          "internalType": "address",
          "name": "from",
          "type": "address"
        },
        {
          "internalType": "address",
          "name": "to",
          "type": "address"
        },
        {
          "internalType": "uint256",
          "name": "tokenId",
          "type": "uint256"
        }
      ],
      "name": "safeTransferFrom",
      "outputs": [],
      "stateMutability": "nonpayable",
      "type": "function"
    },
    {
      "inputs": [
        {
          "internalType": "address",
          "name": "from",
          "type": "address"
        },
        {
          "internalType": "address",
          "name": "to",
          "type": "address"
        },
        {
          "internalType": "uint256",
          "name": "tokenId",
          "type": "uint256"
        },
        {
          "internalType": "bytes",
          "name": "_data",
          "type": "bytes"
        }
      ],
      "name": "safeTransferFrom",
      "outputs": [],
      "stateMutability": "nonpayable",
      "type": "function"
    },
    {
      "inputs": [],
      "name": "selfDestruct",
      "outputs": [],
      "stateMutability": "nonpayable",
      "type": "function"
    },
    {
      "inputs": [
        {
          "internalType": "address",
          "name": "operator",
          "type": "address"
        },
        {
          "internalType": "bool",
          "name": "approved",
          "type": "bool"
        }
      ],
      "name": "setApprovalForAll",
      "outputs": [],
      "stateMutability": "nonpayable",
      "type": "function"
    },
    {
      "inputs": [
        {
          "internalType": "bytes4",
          "name": "interfaceId",
          "type": "bytes4"
        }
      ],
      "name": "supportsInterface",
      "outputs": [
        {
          "internalType": "bool",
          "name": "",
          "type": "bool"
        }
      ],
      "stateMutability": "view",
      "type": "function"
    },
    {
      "inputs": [],
      "name": "symbol",
      "outputs": [
        {
          "internalType": "string",
          "name": "",
          "type": "string"
        }
      ],
      "stateMutability": "view",
      "type": "function"
    },
    {
      "inputs": [
        {
          "internalType": "uint256",
          "name": "tokenId",
          "type": "uint256"
        }
      ],
      "name": "tokenURI",
      "outputs": [
        {
          "internalType": "string",
          "name": "",
          "type": "string"
        }
      ],
      "stateMutability": "view",
      "type": "function"
    },
    {
      "inputs": [],
      "name": "totalSupply",
      "outputs": [
        {
          "internalType": "uint256",
          "name": "",
          "type": "uint256"
        }
      ],
      "stateMutability": "view",
      "type": "function"
    },
    {
      "inputs": [
        {
          "internalType": "address",
          "name": "from",
          "type": "address"
        },
        {
          "internalType": "address",
          "name": "to",
          "type": "address"
        },
        {
          "internalType": "uint256",
          "name": "tokenId",
          "type": "uint256"
        }
      ],
      "name": "transferFrom",
      "outputs": [],
      "stateMutability": "nonpayable",
      "type": "function"
    }
  ],
  "transactionHash": "0x08568bbc4056a089fa0c74ce4032346c9fc00141549a90e48288d40a9a3b6cd8",
  "args": [
    [
      "0xf39Fd6e51aad88F6F4ce6aB8827279cffFb92266",
      "0x70997970C51812dc3A010C7d01b50e0d17dc79C8",
      "0x3C44CdDdB6a900fa2b585dd299e03d12FA4293BC",
      "0x90F79bf6EB2c4f870365E785982E1f101E93b906",
      "0x15d34AAf54267DB7D7c367839AAf71A00a2C6A65",
      "0x9965507D1a55bcC2695C58ba16FB37d819B0A4dc",
      "0x976EA74026E726554dB657fA54763abd0C3a0aa9",
      "0x14dC79964da2C08b23698B3D3cc7Ca32193d9955",
      "0x23618e81E3f5cdF7f54C3d65f7FBc0aBf5B21E8f",
      "0xa0Ee7A142d267C1f36714E4a8F75612F20a79720",
      "0xBcd4042DE499D14e55001CcbB24a551F3b954096",
      "0x71bE63f3384f5fb98995898A86B02Fb2426c5788",
      "0xFABB0ac9d68B0B445fB7357272Ff202C5651694a",
      "0x1CBd3b2770909D4e10f157cABC84C7264073C9Ec",
      "0xdF3e18d64BC6A983f673Ab319CCaE4f1a57C7097",
      "0xcd3B766CCDd6AE721141F452C550Ca635964ce71",
      "0x2546BcD3c84621e976D8185a91A922aE77ECEc30",
      "0xbDA5747bFD65F08deb54cb465eB87D40e51B197E",
      "0xdD2FD4581271e230360230F9337D5c0430Bf44C0",
      "0x8626f6940E2eb28930eFb4CeF49B2d1F2C9C1199",
      "0x09DB0a93B389bEF724429898f539AEB7ac2Dd55f",
      "0x02484cb50AAC86Eae85610D6f4Bf026f30f6627D",
      "0x08135Da0A343E492FA2d4282F2AE34c6c5CC1BbE",
      "0x5E661B79FE2D3F6cE70F5AAC07d8Cd9abb2743F1",
      "0x61097BA76cD906d2ba4FD106E757f7Eb455fc295",
      "0xDf37F81dAAD2b0327A0A50003740e1C935C70913",
      "0x553BC17A05702530097c3677091C5BB47a3a7931",
      "0x87BdCE72c06C21cd96219BD8521bDF1F42C78b5e",
      "0x40Fc963A729c542424cD800349a7E4Ecc4896624",
      "0x9DCCe783B6464611f38631e6C851bf441907c710",
      "0x1BcB8e569EedAb4668e55145Cfeaf190902d3CF2",
      "0x8263Fce86B1b78F95Ab4dae11907d8AF88f841e7",
      "0xcF2d5b3cBb4D7bF04e3F7bFa8e27081B52191f91",
      "0x86c53Eb85D0B7548fea5C4B4F82b4205C8f6Ac18",
      "0x1aac82773CB722166D7dA0d5b0FA35B0307dD99D",
      "0x2f4f06d218E426344CFE1A83D53dAd806994D325",
      "0x1003ff39d25F2Ab16dBCc18EcE05a9B6154f65F4",
      "0x9eAF5590f2c84912A08de97FA28d0529361Deb9E",
      "0x11e8F3eA3C6FcF12EcfF2722d75CEFC539c51a1C",
      "0x7D86687F980A56b832e9378952B738b614A99dc6",
      "0x9eF6c02FB2ECc446146E05F1fF687a788a8BF76d",
      "0x08A2DE6F3528319123b25935C92888B16db8913E",
      "0xe141C82D99D85098e03E1a1cC1CdE676556fDdE0",
      "0x4b23D303D9e3719D6CDf8d172Ea030F80509ea15",
      "0xC004e69C5C04A223463Ff32042dd36DabF63A25a",
      "0x5eb15C0992734B5e77c888D713b4FC67b3D679A2",
      "0x7Ebb637fd68c523613bE51aad27C35C4DB199B9c",
      "0x3c3E2E178C69D4baD964568415a0f0c84fd6320A",
      "0x35304262b9E87C00c430149f28dD154995d01207",
      "0xD4A1E660C916855229e1712090CcfD8a424A2E33",
      "0xEe7f6A930B29d7350498Af97f0F9672EaecbeeFf",
      "0x145e2dc5C8238d1bE628F87076A37d4a26a78544",
      "0xD6A098EbCc5f8Bd4e174D915C54486B077a34A51",
      "0x042a63149117602129B6922ecFe3111168C2C323",
      "0xa0EC9eE47802CeB56eb58ce80F3E41630B771b04",
      "0xe8B1ff302A740fD2C6e76B620d45508dAEc2DDFf",
      "0xAb707cb80e7de7C75d815B1A653433F3EEc44c74",
      "0x0d803cdeEe5990f22C2a8DF10A695D2312dA26CC",
      "0x1c87Bb9234aeC6aDc580EaE6C8B59558A4502220",
      "0x4779d18931B35540F84b0cd0e9633855B84df7b8",
      "0xC0543b0b980D8c834CBdF023b2d2A75b5f9D1909",
      "0x73B3074ac649A8dc31c2C90a124469456301a30F",
      "0x265188114EB5d5536BC8654d8e9710FE72C28c4d",
      "0x924Ba5Ce9f91ddED37b4ebf8c0dc82A40202fc0A",
      "0x64492E25C30031EDAD55E57cEA599CDB1F06dad1",
      "0x262595fa2a3A86adACDe208589614d483e3eF1C0",
      "0xDFd99099Fa13541a64AEe9AAd61c0dbf3D32D492",
      "0x63c3686EF31C03a641e2Ea8993A91Ea351e5891a",
      "0x9394cb5f737Bd3aCea7dcE90CA48DBd42801EE5d",
      "0x344dca30F5c5f74F2f13Dc1d48Ad3A9069d13Ad9",
      "0xF23E054D8b4D0BECFa22DeEF5632F27f781f8bf5",
      "0x6d69F301d1Da5C7818B5e61EECc745b30179C68b",
      "0xF0cE7BaB13C99bA0565f426508a7CD8f4C247E5a",
      "0x011bD5423C5F77b5a0789E27f922535fd76B688F",
      "0xD9065f27e9b706E5F7628e067cC00B288dddbF19",
      "0x54ccCeB38251C29b628ef8B00b3cAB97e7cAc7D5",
      "0xA1196426b41627ae75Ea7f7409E074BE97367da2",
      "0xE74cEf90b6CF1a77FEfAd731713e6f53e575C183",
      "0x7Df8Efa6d6F1CB5C4f36315e0AcB82b02Ae8BA40",
      "0x9E126C57330FA71556628e0aabd6B6B6783d99fA",
      "0x586BA39027A74e8D40E6626f89Ae97bA7f616644",
      "0x9A50ed082Cf2fc003152580dcDB320B834fA379E",
      "0xbc8183bac3E969042736f7af07f76223D11D2148",
      "0x586aF62EAe7F447D14D25f53918814e04d3A5BA4",
      "0xCcDd262f272Ee6C226266eEa13eE48D4d932Ce66",
      "0xF0eeDDC5e015d4c459590E01Dcc2f2FD1d2baac7",
      "0x4edFEDFf17ab9642F8464D6143900903dD21421a",
      "0x492C973C16E8aeC46f4d71716E91b05B245377C9",
      "0xE5D3ab6883b7e8c35c04675F28BB992Ca1129ee4",
      "0x71F280DEA6FC5a03790941Ad72956f545FeB7a52",
      "0xE77478D9E136D3643cFc6fef578Abf63F9Ab91B1",
      "0x6C8EA11559DFE79Ae3dBDD6A67b47F61b929398f",
      "0x48fA7b63049A6F4E7316EB2D9c5BDdA8933BCA2f",
      "0x16aDfbeFdEfD488C992086D472A4CA577a0e5e54",
      "0x225356FF5d64889D7364Be2c990f93a66298Ee8D",
      "0xcBDc0F9a4C38f1e010bD3B6e43598A55D1868c23",
      "0xBc5BdceE96b1BC47822C74e6f64186fbA7d686be",
      "0x0536896a5e38BbD59F3F369FF3682677965aBD19",
      "0xFE0f143FcAD5B561b1eD2AC960278A2F23559Ef9",
      "0x98D08079928FcCB30598c6C6382ABfd7dbFaA1cD"
    ]
  ],
  "numDeployments": 2,
  "solcInputHash": "9c2b5a0e603c05072dea521f6a9bbe0c",
  "bytecode": "0x60a06040523480156200001157600080fd5b50604051620024db380380620024db83398101604081905262000034916200034c565b604080518082018252600a81526910985854da5915195cdd60b21b602080830191825283518085019094526004845263109054d560e21b908401528151919291620000829160009162000289565b5080516200009890600190602084019062000289565b50508151905080620000df5760405162461bcd60e51b815260206004820152600c60248201526b656d7074792061646d696e7360a01b604482015260640160405180910390fd5b3360601b6001600160601b031916608052620001046000620000fe3390565b6200018a565b620001196430b236b4b760d91b60006200019a565b60005b818110156200017c57620001676430b236b4b760d91b8483815181106200015357634e487b7160e01b600052603260045260246000fd5b60200260200101516200018a60201b60201c565b8062000173816200045d565b9150506200011c565b50506000600855506200049b565b620001968282620001e5565b5050565b600082815260076020526040808220600101805490849055905190918391839186917fbd79b86ffe0ab8e8776151514217cd7cacd52c909f66475c3af44e129f0b00ff9190a4505050565b60008281526007602090815260408083206001600160a01b038516845290915290205460ff16620001965760008281526007602090815260408083206001600160a01b03851684529091529020805460ff19166001179055620002453390565b6001600160a01b0316816001600160a01b0316837f2f8788117e7eff1d82e926ec794901d17c78024a50270940304540a733656f0d60405160405180910390a45050565b828054620002979062000420565b90600052602060002090601f016020900481019282620002bb576000855562000306565b82601f10620002d657805160ff191683800117855562000306565b8280016001018555821562000306579182015b8281111562000306578251825591602001919060010190620002e9565b506200031492915062000318565b5090565b5b8082111562000314576000815560010162000319565b80516001600160a01b03811681146200034757600080fd5b919050565b600060208083850312156200035f578182fd5b82516001600160401b038082111562000376578384fd5b818501915085601f8301126200038a578384fd5b8151818111156200039f576200039f62000485565b8060051b604051601f19603f83011681018181108582111715620003c757620003c762000485565b604052828152858101935084860182860187018a1015620003e6578788fd5b8795505b838610156200041357620003fe816200032f565b855260019590950194938601938601620003ea565b5098975050505050505050565b600181811c908216806200043557607f821691505b602082108114156200045757634e487b7160e01b600052602260045260246000fd5b50919050565b60006000198214156200047e57634e487b7160e01b81526011600452602481fd5b5060010190565b634e487b7160e01b600052604160045260246000fd5b60805160601c61201a620004c1600039600081816102d0015261088f015261201a6000f3fe608060405234801561001057600080fd5b506004361061018e5760003560e01c806384ef8ffc116100de578063a22cb46511610097578063c87b56dd11610071578063c87b56dd14610369578063d547741f1461037c578063e985e9c51461038f578063f17e48ec146103cb57600080fd5b8063a22cb46514610330578063b88d4fde14610343578063badb97ff1461035657600080fd5b806384ef8ffc146102cb57806391d14854146102f257806395d89b41146103055780639cb8a26a1461030d5780639f6ed25f14610315578063a217fddf1461032857600080fd5b8063248a9ca31161014b57806336568abe1161012557806336568abe1461027f57806342842e0e146102925780636352211e146102a557806370a08231146102b857600080fd5b8063248a9ca31461023a5780632a0acc6a1461025d5780632f2ff15d1461026c57600080fd5b806301ffc9a71461019357806306fdde03146101bb578063081812fc146101d0578063095ea7b3146101fb57806318160ddd1461021057806323b872dd14610227575b600080fd5b6101a66101a1366004611c82565b6103de565b60405190151581526020015b60405180910390f35b6101c3610424565b6040516101b29190611dc7565b6101e36101de366004611c48565b6104b6565b6040516001600160a01b0390911681526020016101b2565b61020e610209366004611b9d565b610543565b005b61021960085481565b6040519081526020016101b2565b61020e610235366004611a53565b610659565b610219610248366004611c48565b60009081526007602052604090206001015490565b6102196430b236b4b760d91b81565b61020e61027a366004611c60565b61068a565b61020e61028d366004611c60565b6106b0565b61020e6102a0366004611a53565b61072e565b6101e36102b3366004611c48565b610749565b6102196102c6366004611a07565b6107c0565b6101e37f000000000000000000000000000000000000000000000000000000000000000081565b6101a6610300366004611c60565b610847565b6101c3610872565b61020e610881565b61020e610323366004611bc6565b6108b9565b610219600081565b61020e61033e366004611b63565b610932565b61020e610351366004611a8e565b61093d565b61020e610364366004611c48565b610975565b6101c3610377366004611c48565b6109aa565b61020e61038a366004611c60565b610b21565b6101a661039d366004611a21565b6001600160a01b03918216600090815260056020908152604080832093909416825291909152205460ff1690565b61020e6103d9366004611b9d565b610b47565b60006001600160e01b031982166380ac58cd60e01b148061040f57506001600160e01b03198216637965db0b60e01b145b8061041e575061041e82610b7d565b92915050565b60606000805461043390611f22565b80601f016020809104026020016040519081016040528092919081815260200182805461045f90611f22565b80156104ac5780601f10610481576101008083540402835291602001916104ac565b820191906000526020600020905b81548152906001019060200180831161048f57829003601f168201915b5050505050905090565b60006104c182610ba2565b6105275760405162461bcd60e51b815260206004820152602c60248201527f4552433732313a20617070726f76656420717565727920666f72206e6f6e657860448201526b34b9ba32b73a103a37b5b2b760a11b60648201526084015b60405180910390fd5b506000908152600460205260409020546001600160a01b031690565b600061054e82610749565b9050806001600160a01b0316836001600160a01b031614156105bc5760405162461bcd60e51b815260206004820152602160248201527f4552433732313a20617070726f76616c20746f2063757272656e74206f776e656044820152603960f91b606482015260840161051e565b336001600160a01b03821614806105d857506105d8813361039d565b61064a5760405162461bcd60e51b815260206004820152603860248201527f4552433732313a20617070726f76652063616c6c6572206973206e6f74206f7760448201527f6e6572206e6f7220617070726f76656420666f7220616c6c0000000000000000606482015260840161051e565b6106548383610bbf565b505050565b6106633382610c2d565b61067f5760405162461bcd60e51b815260040161051e90611e2c565b610654838383610d13565b6000828152600760205260409020600101546106a68133610eaf565b6106548383610f13565b6001600160a01b03811633146107205760405162461bcd60e51b815260206004820152602f60248201527f416363657373436f6e74726f6c3a2063616e206f6e6c792072656e6f756e636560448201526e103937b632b9903337b91039b2b63360891b606482015260840161051e565b61072a8282610f99565b5050565b6106548383836040518060200160405280600081525061093d565b6000818152600260205260408120546001600160a01b03168061041e5760405162461bcd60e51b815260206004820152602960248201527f4552433732313a206f776e657220717565727920666f72206e6f6e657869737460448201526832b73a103a37b5b2b760b91b606482015260840161051e565b60006001600160a01b03821661082b5760405162461bcd60e51b815260206004820152602a60248201527f4552433732313a2062616c616e636520717565727920666f7220746865207a65604482015269726f206164647265737360b01b606482015260840161051e565b506001600160a01b031660009081526003602052604090205490565b60009182526007602090815260408084206001600160a01b0393909316845291905290205460ff1690565b60606001805461043390611f22565b600061088d8133610eaf565b7f00000000000000000000000000000000000000000000000000000000000000006001600160a01b0316ff5b6430b236b4b760d91b6108cc8133610eaf565b6108d68585611000565b6109168484848080601f01602080910402602001604051908101604052809392919081815260200183838082843760009201919091525061101a92505050565b6008805490600061092683611f5d565b91905055505050505050565b61072a3383836110a5565b6109473383610c2d565b6109635760405162461bcd60e51b815260040161051e90611e2c565b61096f84848484611174565b50505050565b6430b236b4b760d91b6109888133610eaf565b610991826111a7565b600880549060006109a183611f0b565b91905055505050565b60606109b582610ba2565b610a1b5760405162461bcd60e51b815260206004820152603160248201527f45524337323155524953746f726167653a2055524920717565727920666f72206044820152703737b732bc34b9ba32b73a103a37b5b2b760791b606482015260840161051e565b60008281526006602052604081208054610a3490611f22565b80601f0160208091040260200160405190810160405280929190818152602001828054610a6090611f22565b8015610aad5780601f10610a8257610100808354040283529160200191610aad565b820191906000526020600020905b815481529060010190602001808311610a9057829003601f168201915b505050505090506000610acb60408051602081019091526000815290565b9050805160001415610ade575092915050565b815115610b10578082604051602001610af8929190611ce6565b60405160208183030381529060405292505050919050565b610b19846111ea565b949350505050565b600082815260076020526040902060010154610b3d8133610eaf565b6106548383610f99565b6430b236b4b760d91b610b5a8133610eaf565b610654610b6683610749565b848460405180602001604052806000815250611174565b60006001600160e01b03198216637965db0b60e01b148061041e575061041e826112c2565b6000908152600260205260409020546001600160a01b0316151590565b600081815260046020526040902080546001600160a01b0319166001600160a01b0384169081179091558190610bf482610749565b6001600160a01b03167f8c5be1e5ebec7d5bd14f71427d1e84f3dd0314c0f7b2291e5b200ac8c7c3b92560405160405180910390a45050565b6000610c3882610ba2565b610c995760405162461bcd60e51b815260206004820152602c60248201527f4552433732313a206f70657261746f7220717565727920666f72206e6f6e657860448201526b34b9ba32b73a103a37b5b2b760a11b606482015260840161051e565b6000610ca483610749565b9050806001600160a01b0316846001600160a01b03161480610cdf5750836001600160a01b0316610cd4846104b6565b6001600160a01b0316145b80610b1957506001600160a01b0380821660009081526005602090815260408083209388168352929052205460ff16610b19565b826001600160a01b0316610d2682610749565b6001600160a01b031614610d8a5760405162461bcd60e51b815260206004820152602560248201527f4552433732313a207472616e736665722066726f6d20696e636f72726563742060448201526437bbb732b960d91b606482015260840161051e565b6001600160a01b038216610dec5760405162461bcd60e51b8152602060048201526024808201527f4552433732313a207472616e7366657220746f20746865207a65726f206164646044820152637265737360e01b606482015260840161051e565b610df7600082610bbf565b6001600160a01b0383166000908152600360205260408120805460019290610e20908490611ec8565b90915550506001600160a01b0382166000908152600360205260408120805460019290610e4e908490611e7d565b909155505060008181526002602052604080822080546001600160a01b0319166001600160a01b0386811691821790925591518493918716917fddf252ad1be2c89b69c2b068fc378daa952ba7f163c4a11628f55a4df523b3ef91a4505050565b610eb98282610847565b61072a57610ed1816001600160a01b03166014611312565b610edc836020611312565b604051602001610eed929190611d15565b60408051601f198184030181529082905262461bcd60e51b825261051e91600401611dc7565b610f1d8282610847565b61072a5760008281526007602090815260408083206001600160a01b03851684529091529020805460ff19166001179055610f553390565b6001600160a01b0316816001600160a01b0316837f2f8788117e7eff1d82e926ec794901d17c78024a50270940304540a733656f0d60405160405180910390a45050565b610fa38282610847565b1561072a5760008281526007602090815260408083206001600160a01b0385168085529252808320805460ff1916905551339285917ff6391f5c32d9c69d2a47ea670b442974b53935d1edc7fd64eb21e047a839171b9190a45050565b61072a8282604051806020016040528060008152506114f4565b61102382610ba2565b6110865760405162461bcd60e51b815260206004820152602e60248201527f45524337323155524953746f726167653a2055524920736574206f66206e6f6e60448201526d32bc34b9ba32b73a103a37b5b2b760911b606482015260840161051e565b600082815260066020908152604090912082516106549284019061191c565b816001600160a01b0316836001600160a01b031614156111075760405162461bcd60e51b815260206004820152601960248201527f4552433732313a20617070726f766520746f2063616c6c657200000000000000604482015260640161051e565b6001600160a01b03838116600081815260056020908152604080832094871680845294825291829020805460ff191686151590811790915591519182527f17307eab39ab6107e8899845ad3d59bd9653f200f220920489ca2b5937696c31910160405180910390a3505050565b61117f848484610d13565b61118b84848484611527565b61096f5760405162461bcd60e51b815260040161051e90611dda565b6111b081611634565b600081815260066020526040902080546111c990611f22565b1590506111e75760008181526006602052604081206111e7916119a0565b50565b60606111f582610ba2565b6112595760405162461bcd60e51b815260206004820152602f60248201527f4552433732314d657461646174613a2055524920717565727920666f72206e6f60448201526e3732bc34b9ba32b73a103a37b5b2b760891b606482015260840161051e565b600061127060408051602081019091526000815290565b9050600081511161129057604051806020016040528060008152506112bb565b8061129a846116cf565b6040516020016112ab929190611ce6565b6040516020818303038152906040525b9392505050565b60006001600160e01b031982166380ac58cd60e01b14806112f357506001600160e01b03198216635b5e139f60e01b145b8061041e57506301ffc9a760e01b6001600160e01b031983161461041e565b60606000611321836002611ea9565b61132c906002611e7d565b67ffffffffffffffff81111561135257634e487b7160e01b600052604160045260246000fd5b6040519080825280601f01601f19166020018201604052801561137c576020820181803683370190505b509050600360fc1b816000815181106113a557634e487b7160e01b600052603260045260246000fd5b60200101906001600160f81b031916908160001a905350600f60fb1b816001815181106113e257634e487b7160e01b600052603260045260246000fd5b60200101906001600160f81b031916908160001a9053506000611406846002611ea9565b611411906001611e7d565b90505b60018111156114a5576f181899199a1a9b1b9c1cb0b131b232b360811b85600f166010811061145357634e487b7160e01b600052603260045260246000fd5b1a60f81b82828151811061147757634e487b7160e01b600052603260045260246000fd5b60200101906001600160f81b031916908160001a90535060049490941c9361149e81611f0b565b9050611414565b5083156112bb5760405162461bcd60e51b815260206004820181905260248201527f537472696e67733a20686578206c656e67746820696e73756666696369656e74604482015260640161051e565b6114fe83836117e9565b61150b6000848484611527565b6106545760405162461bcd60e51b815260040161051e90611dda565b60006001600160a01b0384163b1561162957604051630a85bd0160e11b81526001600160a01b0385169063150b7a029061156b903390899088908890600401611d8a565b602060405180830381600087803b15801561158557600080fd5b505af19250505080156115b5575060408051601f3d908101601f191682019092526115b291810190611c9e565b60015b61160f573d8080156115e3576040519150601f19603f3d011682016040523d82523d6000602084013e6115e8565b606091505b5080516116075760405162461bcd60e51b815260040161051e90611dda565b805181602001fd5b6001600160e01b031916630a85bd0160e11b149050610b19565b506001949350505050565b600061163f82610749565b905061164c600083610bbf565b6001600160a01b0381166000908152600360205260408120805460019290611675908490611ec8565b909155505060008281526002602052604080822080546001600160a01b0319169055518391906001600160a01b038416907fddf252ad1be2c89b69c2b068fc378daa952ba7f163c4a11628f55a4df523b3ef908390a45050565b6060816116f35750506040805180820190915260018152600360fc1b602082015290565b8160005b811561171d578061170781611f5d565b91506117169050600a83611e95565b91506116f7565b60008167ffffffffffffffff81111561174657634e487b7160e01b600052604160045260246000fd5b6040519080825280601f01601f191660200182016040528015611770576020820181803683370190505b5090505b8415610b1957611785600183611ec8565b9150611792600a86611f78565b61179d906030611e7d565b60f81b8183815181106117c057634e487b7160e01b600052603260045260246000fd5b60200101906001600160f81b031916908160001a9053506117e2600a86611e95565b9450611774565b6001600160a01b03821661183f5760405162461bcd60e51b815260206004820181905260248201527f4552433732313a206d696e7420746f20746865207a65726f2061646472657373604482015260640161051e565b61184881610ba2565b156118955760405162461bcd60e51b815260206004820152601c60248201527f4552433732313a20746f6b656e20616c7265616479206d696e74656400000000604482015260640161051e565b6001600160a01b03821660009081526003602052604081208054600192906118be908490611e7d565b909155505060008181526002602052604080822080546001600160a01b0319166001600160a01b03861690811790915590518392907fddf252ad1be2c89b69c2b068fc378daa952ba7f163c4a11628f55a4df523b3ef908290a45050565b82805461192890611f22565b90600052602060002090601f01602090048101928261194a5760008555611990565b82601f1061196357805160ff1916838001178555611990565b82800160010185558215611990579182015b82811115611990578251825591602001919060010190611975565b5061199c9291506119d6565b5090565b5080546119ac90611f22565b6000825580601f106119bc575050565b601f0160209004906000526020600020908101906111e791905b5b8082111561199c57600081556001016119d7565b80356001600160a01b0381168114611a0257600080fd5b919050565b600060208284031215611a18578081fd5b6112bb826119eb565b60008060408385031215611a33578081fd5b611a3c836119eb565b9150611a4a602084016119eb565b90509250929050565b600080600060608486031215611a67578081fd5b611a70846119eb565b9250611a7e602085016119eb565b9150604084013590509250925092565b60008060008060808587031215611aa3578081fd5b611aac856119eb565b9350611aba602086016119eb565b925060408501359150606085013567ffffffffffffffff80821115611add578283fd5b818701915087601f830112611af0578283fd5b813581811115611b0257611b02611fb8565b604051601f8201601f19908116603f01168101908382118183101715611b2a57611b2a611fb8565b816040528281528a6020848701011115611b42578586fd5b82602086016020830137918201602001949094529598949750929550505050565b60008060408385031215611b75578182fd5b611b7e836119eb565b915060208301358015158114611b92578182fd5b809150509250929050565b60008060408385031215611baf578182fd5b611bb8836119eb565b946020939093013593505050565b60008060008060608587031215611bdb578384fd5b611be4856119eb565b935060208501359250604085013567ffffffffffffffff80821115611c07578384fd5b818701915087601f830112611c1a578384fd5b813581811115611c28578485fd5b886020828501011115611c39578485fd5b95989497505060200194505050565b600060208284031215611c59578081fd5b5035919050565b60008060408385031215611c72578182fd5b82359150611a4a602084016119eb565b600060208284031215611c93578081fd5b81356112bb81611fce565b600060208284031215611caf578081fd5b81516112bb81611fce565b60008151808452611cd2816020860160208601611edf565b601f01601f19169290920160200192915050565b60008351611cf8818460208801611edf565b835190830190611d0c818360208801611edf565b01949350505050565b7f416363657373436f6e74726f6c3a206163636f756e7420000000000000000000815260008351611d4d816017850160208801611edf565b7001034b99036b4b9b9b4b733903937b6329607d1b6017918401918201528351611d7e816028840160208801611edf565b01602801949350505050565b6001600160a01b0385811682528416602082015260408101839052608060608201819052600090611dbd90830184611cba565b9695505050505050565b6020815260006112bb6020830184611cba565b60208082526032908201527f4552433732313a207472616e7366657220746f206e6f6e20455243373231526560408201527131b2b4bb32b91034b6b83632b6b2b73a32b960711b606082015260800190565b60208082526031908201527f4552433732313a207472616e736665722063616c6c6572206973206e6f74206f6040820152701ddb995c881b9bdc88185c1c1c9bdd9959607a1b606082015260800190565b60008219821115611e9057611e90611f8c565b500190565b600082611ea457611ea4611fa2565b500490565b6000816000190483118215151615611ec357611ec3611f8c565b500290565b600082821015611eda57611eda611f8c565b500390565b60005b83811015611efa578181015183820152602001611ee2565b8381111561096f5750506000910152565b600081611f1a57611f1a611f8c565b506000190190565b600181811c90821680611f3657607f821691505b60208210811415611f5757634e487b7160e01b600052602260045260246000fd5b50919050565b6000600019821415611f7157611f71611f8c565b5060010190565b600082611f8757611f87611fa2565b500690565b634e487b7160e01b600052601160045260246000fd5b634e487b7160e01b600052601260045260246000fd5b634e487b7160e01b600052604160045260246000fd5b6001600160e01b0319811681146111e757600080fdfea2646970667358221220b03152f61cb34edbb3d92602fe3c569be7ba2788f0b2bb2a3eed03a4bf5e6c3164736f6c63430008040033",
  "devdoc": {
    "author": "Justa Liang",
    "kind": "dev",
    "methods": {
      "adminBurn(uint256)": {
        "details": "Admin can burn any token"
      },
      "adminTransfer(address,uint256)": {
        "details": "Admin can transfer any token"
      },
      "approve(address,uint256)": {
        "details": "See {IERC721-approve}."
      },
      "balanceOf(address)": {
        "details": "See {IERC721-balanceOf}."
      },
      "constructor": {
        "details": "Setup ERC721 and AccessControl"
      },
      "getApproved(uint256)": {
        "details": "See {IERC721-getApproved}."
      },
      "getRoleAdmin(bytes32)": {
        "details": "Returns the admin role that controls `role`. See {grantRole} and {revokeRole}. To change a role's admin, use {_setRoleAdmin}."
      },
      "grantRole(bytes32,address)": {
        "details": "Grants `role` to `account`. If `account` had not been already granted `role`, emits a {RoleGranted} event. Requirements: - the caller must have ``role``'s admin role."
      },
      "hasRole(bytes32,address)": {
        "details": "Returns `true` if `account` has been granted `role`."
      },
      "isApprovedForAll(address,address)": {
        "details": "See {IERC721-isApprovedForAll}."
      },
      "mintTo(address,uint256,string)": {
        "details": "Admin mint"
      },
      "name()": {
        "details": "See {IERC721Metadata-name}."
      },
      "ownerOf(uint256)": {
        "details": "See {IERC721-ownerOf}."
      },
      "renounceRole(bytes32,address)": {
        "details": "Revokes `role` from the calling account. Roles are often managed via {grantRole} and {revokeRole}: this function's purpose is to provide a mechanism for accounts to lose their privileges if they are compromised (such as when a trusted device is misplaced). If the calling account had been revoked `role`, emits a {RoleRevoked} event. Requirements: - the caller must be `account`."
      },
      "revokeRole(bytes32,address)": {
        "details": "Revokes `role` from `account`. If `account` had been granted `role`, emits a {RoleRevoked} event. Requirements: - the caller must have ``role``'s admin role."
      },
      "safeTransferFrom(address,address,uint256)": {
        "details": "See {IERC721-safeTransferFrom}."
      },
      "safeTransferFrom(address,address,uint256,bytes)": {
        "details": "See {IERC721-safeTransferFrom}."
      },
      "selfDestruct()": {
        "details": "Self-destruct"
      },
      "setApprovalForAll(address,bool)": {
        "details": "See {IERC721-setApprovalForAll}."
      },
      "supportsInterface(bytes4)": {
        "details": "Override interface"
      },
      "symbol()": {
        "details": "See {IERC721Metadata-symbol}."
      },
      "tokenURI(uint256)": {
        "details": "See {IERC721Metadata-tokenURI}."
      },
      "transferFrom(address,address,uint256)": {
        "details": "See {IERC721-transferFrom}."
      }
    },
    "stateVariables": {
      "defaultAdmin": {
        "details": "deployer as default admin"
      },
      "totalSupply": {
        "details": "total supply"
      }
    },
    "title": "ERC721URIStorage with adminTransfer and adminBurn",
    "version": 1
  },
  "userdoc": {
    "kind": "user",
    "methods": {},
    "notice": "For BaaSid test",
    "version": 1
  },
  "storageLayout": {
    "storage": [
      {
        "astId": 407,
        "contract": "contracts/ERC721Admin.sol:ERC721Admin",
        "label": "_name",
        "offset": 0,
        "slot": "0",
        "type": "t_string_storage"
      },
      {
        "astId": 409,
        "contract": "contracts/ERC721Admin.sol:ERC721Admin",
        "label": "_symbol",
        "offset": 0,
        "slot": "1",
        "type": "t_string_storage"
      },
      {
        "astId": 413,
        "contract": "contracts/ERC721Admin.sol:ERC721Admin",
        "label": "_owners",
        "offset": 0,
        "slot": "2",
        "type": "t_mapping(t_uint256,t_address)"
      },
      {
        "astId": 417,
        "contract": "contracts/ERC721Admin.sol:ERC721Admin",
        "label": "_balances",
        "offset": 0,
        "slot": "3",
        "type": "t_mapping(t_address,t_uint256)"
      },
      {
        "astId": 421,
        "contract": "contracts/ERC721Admin.sol:ERC721Admin",
        "label": "_tokenApprovals",
        "offset": 0,
        "slot": "4",
        "type": "t_mapping(t_uint256,t_address)"
      },
      {
        "astId": 427,
        "contract": "contracts/ERC721Admin.sol:ERC721Admin",
        "label": "_operatorApprovals",
        "offset": 0,
        "slot": "5",
        "type": "t_mapping(t_address,t_mapping(t_address,t_bool))"
      },
      {
        "astId": 1394,
        "contract": "contracts/ERC721Admin.sol:ERC721Admin",
        "label": "_tokenURIs",
        "offset": 0,
        "slot": "6",
        "type": "t_mapping(t_uint256,t_string_storage)"
      },
      {
        "astId": 24,
        "contract": "contracts/ERC721Admin.sol:ERC721Admin",
        "label": "_roles",
        "offset": 0,
        "slot": "7",
        "type": "t_mapping(t_bytes32,t_struct(RoleData)19_storage)"
      },
      {
        "astId": 2110,
        "contract": "contracts/ERC721Admin.sol:ERC721Admin",
        "label": "totalSupply",
        "offset": 0,
        "slot": "8",
        "type": "t_uint256"
      }
    ],
    "types": {
      "t_address": {
        "encoding": "inplace",
        "label": "address",
        "numberOfBytes": "20"
      },
      "t_bool": {
        "encoding": "inplace",
        "label": "bool",
        "numberOfBytes": "1"
      },
      "t_bytes32": {
        "encoding": "inplace",
        "label": "bytes32",
        "numberOfBytes": "32"
      },
      "t_mapping(t_address,t_bool)": {
        "encoding": "mapping",
        "key": "t_address",
        "label": "mapping(address => bool)",
        "numberOfBytes": "32",
        "value": "t_bool"
      },
      "t_mapping(t_address,t_mapping(t_address,t_bool))": {
        "encoding": "mapping",
        "key": "t_address",
        "label": "mapping(address => mapping(address => bool))",
        "numberOfBytes": "32",
        "value": "t_mapping(t_address,t_bool)"
      },
      "t_mapping(t_address,t_uint256)": {
        "encoding": "mapping",
        "key": "t_address",
        "label": "mapping(address => uint256)",
        "numberOfBytes": "32",
        "value": "t_uint256"
      },
      "t_mapping(t_bytes32,t_struct(RoleData)19_storage)": {
        "encoding": "mapping",
        "key": "t_bytes32",
        "label": "mapping(bytes32 => struct AccessControl.RoleData)",
        "numberOfBytes": "32",
        "value": "t_struct(RoleData)19_storage"
      },
      "t_mapping(t_uint256,t_address)": {
        "encoding": "mapping",
        "key": "t_uint256",
        "label": "mapping(uint256 => address)",
        "numberOfBytes": "32",
        "value": "t_address"
      },
      "t_mapping(t_uint256,t_string_storage)": {
        "encoding": "mapping",
        "key": "t_uint256",
        "label": "mapping(uint256 => string)",
        "numberOfBytes": "32",
        "value": "t_string_storage"
      },
      "t_string_storage": {
        "encoding": "bytes",
        "label": "string",
        "numberOfBytes": "32"
      },
      "t_struct(RoleData)19_storage": {
        "encoding": "inplace",
        "label": "struct AccessControl.RoleData",
        "members": [
          {
            "astId": 16,
            "contract": "contracts/ERC721Admin.sol:ERC721Admin",
            "label": "members",
            "offset": 0,
            "slot": "0",
            "type": "t_mapping(t_address,t_bool)"
          },
          {
            "astId": 18,
            "contract": "contracts/ERC721Admin.sol:ERC721Admin",
            "label": "adminRole",
            "offset": 0,
            "slot": "1",
            "type": "t_bytes32"
          }
        ],
        "numberOfBytes": "64"
      },
      "t_uint256": {
        "encoding": "inplace",
        "label": "uint256",
        "numberOfBytes": "32"
      }
    }
  }
}